{
	"lunchVenue.sol": {
		"LunchVenue": {
			"abi": [
				{
					"inputs": [],
					"stateMutability": "nonpayable",
					"type": "constructor"
				},
				{
					"inputs": [
						{
							"internalType": "address",
							"name": "friendAddress",
							"type": "address"
						},
						{
							"internalType": "string",
							"name": "name",
							"type": "string"
						}
					],
					"name": "addFriend",
					"outputs": [
						{
							"internalType": "uint256",
							"name": "",
							"type": "uint256"
						}
					],
					"stateMutability": "nonpayable",
					"type": "function"
				},
				{
					"inputs": [
						{
							"internalType": "string",
							"name": "name",
							"type": "string"
						}
					],
					"name": "addRestaurant",
					"outputs": [
						{
							"internalType": "uint256",
							"name": "",
							"type": "uint256"
						}
					],
					"stateMutability": "nonpayable",
					"type": "function"
				},
				{
					"inputs": [
						{
							"internalType": "uint256",
							"name": "restaurant",
							"type": "uint256"
						}
					],
					"name": "doVote",
					"outputs": [
						{
							"internalType": "bool",
							"name": "validVote",
							"type": "bool"
						}
					],
					"stateMutability": "nonpayable",
					"type": "function"
				},
				{
					"inputs": [
						{
							"internalType": "address",
							"name": "",
							"type": "address"
						}
					],
					"name": "friends",
					"outputs": [
						{
							"internalType": "string",
							"name": "name",
							"type": "string"
						},
						{
							"internalType": "bool",
							"name": "voted",
							"type": "bool"
						}
					],
					"stateMutability": "view",
					"type": "function"
				},
				{
					"inputs": [],
					"name": "manager",
					"outputs": [
						{
							"internalType": "address",
							"name": "",
							"type": "address"
						}
					],
					"stateMutability": "view",
					"type": "function"
				},
				{
					"inputs": [],
					"name": "numFriends",
					"outputs": [
						{
							"internalType": "uint256",
							"name": "",
							"type": "uint256"
						}
					],
					"stateMutability": "view",
					"type": "function"
				},
				{
					"inputs": [],
					"name": "numRestaurants",
					"outputs": [
						{
							"internalType": "uint256",
							"name": "",
							"type": "uint256"
						}
					],
					"stateMutability": "view",
					"type": "function"
				},
				{
					"inputs": [],
					"name": "numVotes",
					"outputs": [
						{
							"internalType": "uint256",
							"name": "",
							"type": "uint256"
						}
					],
					"stateMutability": "view",
					"type": "function"
				},
				{
					"inputs": [
						{
							"internalType": "uint256",
							"name": "",
							"type": "uint256"
						}
					],
					"name": "restaurants",
					"outputs": [
						{
							"internalType": "string",
							"name": "",
							"type": "string"
						}
					],
					"stateMutability": "view",
					"type": "function"
				},
				{
					"inputs": [],
					"name": "voteOpen",
					"outputs": [
						{
							"internalType": "bool",
							"name": "",
							"type": "bool"
						}
					],
					"stateMutability": "view",
					"type": "function"
				},
				{
					"inputs": [],
					"name": "votedRestaurant",
					"outputs": [
						{
							"internalType": "string",
							"name": "",
							"type": "string"
						}
					],
					"stateMutability": "view",
					"type": "function"
				},
				{
					"inputs": [
						{
							"internalType": "uint256",
							"name": "",
							"type": "uint256"
						}
					],
					"name": "votes",
					"outputs": [
						{
							"internalType": "address",
							"name": "voterAddress",
							"type": "address"
						},
						{
							"internalType": "uint256",
							"name": "restaurant",
							"type": "uint256"
						}
					],
					"stateMutability": "view",
					"type": "function"
				}
			],
			"devdoc": {
				"author": "Dilum Bandara, CSIRO’s Data61",
				"kind": "dev",
				"methods": {
					"addFriend(address,string)": {
						"details": "To simplify the code duplication of friends is not checked",
						"params": {
							"friendAddress": "Friend’s account/address",
							"name": "Friend’s name"
						},
						"returns": {
							"_0": "Number of friends added so far"
						}
					},
					"addRestaurant(string)": {
						"details": "To simplify the code, duplication of restaurants isn’t checked",
						"params": {
							"name": "Restaurant name"
						},
						"returns": {
							"_0": "Number of restaurants added so far"
						}
					},
					"constructor": {
						"details": "Set manager when contract starts"
					},
					"doVote(uint256)": {
						"details": "To simplify the code duplicate votes by a friend is not checked",
						"params": {
							"restaurant": "Restaurant number being voted"
						},
						"returns": {
							"validVote": "Is the vote valid? A valid vote should be from a registered friend to a registered restaurant*"
						}
					}
				},
				"title": "Contract to agree on the lunch venue",
				"version": 1
			},
			"evm": {
				"assembly": "    /* \"lunchVenue.sol\":158:4364  contract LunchVenue{... */\n  mstore(0x40, 0x80)\n    /* \"lunchVenue.sol\":549:550  0 */\n  0x00\n    /* \"lunchVenue.sol\":520:550  uint public numRestaurants = 0 */\n  0x02\n  sstore\n    /* \"lunchVenue.sol\":581:582  0 */\n  0x00\n    /* \"lunchVenue.sol\":556:582  uint public numFriends = 0 */\n  0x03\n  sstore\n    /* \"lunchVenue.sol\":611:612  0 */\n  0x00\n    /* \"lunchVenue.sol\":588:612  uint public numVotes = 0 */\n  0x04\n  sstore\n    /* \"lunchVenue.sol\":665:699  string public votedRestaurant = \"\" */\n  mload(0x40)\n  dup1\n  0x20\n  add\n  0x40\n  mstore\n  dup1\n  0x00\n  dup2\n  mstore\n  pop\n  0x06\n  swap1\n  dup2\n  tag_1\n  swap2\n  swap1\n  tag_2\n  jump\t// in\ntag_1:\n  pop\n    /* \"lunchVenue.sol\":920:924  true */\n  0x01\n    /* \"lunchVenue.sol\":897:924  bool public voteOpen = true */\n  0x09\n  exp(0x0100, 0x00)\n  dup2\n  sload\n  dup2\n  0xff\n  mul\n  not\n  and\n  swap1\n  dup4\n  iszero\n  iszero\n  mul\n  or\n  swap1\n  sstore\n  pop\n    /* \"lunchVenue.sol\":1007:1093  constructor () {... */\n  callvalue\n  dup1\n  iszero\n  tag_3\n  jumpi\n  0x00\n  dup1\n  revert\ntag_3:\n  pop\n    /* \"lunchVenue.sol\":1042:1052  msg.sender */\n  caller\n    /* \"lunchVenue.sol\":1032:1039  manager */\n  0x05\n  0x00\n    /* \"lunchVenue.sol\":1032:1052  manager = msg.sender */\n  0x0100\n  exp\n  dup2\n  sload\n  dup2\n  0xffffffffffffffffffffffffffffffffffffffff\n  mul\n  not\n  and\n  swap1\n  dup4\n  0xffffffffffffffffffffffffffffffffffffffff\n  and\n  mul\n  or\n  swap1\n  sstore\n  pop\n    /* \"lunchVenue.sol\":158:4364  contract LunchVenue{... */\n  jump(tag_6)\n    /* \"#utility.yul\":7:106   */\ntag_7:\n    /* \"#utility.yul\":59:65   */\n  0x00\n    /* \"#utility.yul\":93:98   */\n  dup2\n    /* \"#utility.yul\":87:99   */\n  mload\n    /* \"#utility.yul\":77:99   */\n  swap1\n  pop\n    /* \"#utility.yul\":7:106   */\n  swap2\n  swap1\n  pop\n  jump\t// out\n    /* \"#utility.yul\":112:292   */\ntag_8:\n    /* \"#utility.yul\":160:237   */\n  0x4e487b7100000000000000000000000000000000000000000000000000000000\n    /* \"#utility.yul\":157:158   */\n  0x00\n    /* \"#utility.yul\":150:238   */\n  mstore\n    /* \"#utility.yul\":257:261   */\n  0x41\n    /* \"#utility.yul\":254:255   */\n  0x04\n    /* \"#utility.yul\":247:262   */\n  mstore\n    /* \"#utility.yul\":281:285   */\n  0x24\n    /* \"#utility.yul\":278:279   */\n  0x00\n    /* \"#utility.yul\":271:286   */\n  revert\n    /* \"#utility.yul\":298:478   */\ntag_9:\n    /* \"#utility.yul\":346:423   */\n  0x4e487b7100000000000000000000000000000000000000000000000000000000\n    /* \"#utility.yul\":343:344   */\n  0x00\n    /* \"#utility.yul\":336:424   */\n  mstore\n    /* \"#utility.yul\":443:447   */\n  0x22\n    /* \"#utility.yul\":440:441   */\n  0x04\n    /* \"#utility.yul\":433:448   */\n  mstore\n    /* \"#utility.yul\":467:471   */\n  0x24\n    /* \"#utility.yul\":464:465   */\n  0x00\n    /* \"#utility.yul\":457:472   */\n  revert\n    /* \"#utility.yul\":484:804   */\ntag_10:\n    /* \"#utility.yul\":528:534   */\n  0x00\n    /* \"#utility.yul\":565:566   */\n  0x02\n    /* \"#utility.yul\":559:563   */\n  dup3\n    /* \"#utility.yul\":555:567   */\n  div\n    /* \"#utility.yul\":545:567   */\n  swap1\n  pop\n    /* \"#utility.yul\":612:613   */\n  0x01\n    /* \"#utility.yul\":606:610   */\n  dup3\n    /* \"#utility.yul\":602:614   */\n  and\n    /* \"#utility.yul\":633:651   */\n  dup1\n    /* \"#utility.yul\":623:704   */\n  tag_32\n  jumpi\n    /* \"#utility.yul\":689:693   */\n  0x7f\n    /* \"#utility.yul\":681:687   */\n  dup3\n    /* \"#utility.yul\":677:694   */\n  and\n    /* \"#utility.yul\":667:694   */\n  swap2\n  pop\n    /* \"#utility.yul\":623:704   */\ntag_32:\n    /* \"#utility.yul\":751:753   */\n  0x20\n    /* \"#utility.yul\":743:749   */\n  dup3\n    /* \"#utility.yul\":740:754   */\n  lt\n    /* \"#utility.yul\":720:738   */\n  dup2\n    /* \"#utility.yul\":717:755   */\n  sub\n    /* \"#utility.yul\":714:798   */\n  tag_33\n  jumpi\n    /* \"#utility.yul\":770:788   */\n  tag_34\n  tag_9\n  jump\t// in\ntag_34:\n    /* \"#utility.yul\":714:798   */\ntag_33:\n    /* \"#utility.yul\":535:804   */\n  pop\n    /* \"#utility.yul\":484:804   */\n  swap2\n  swap1\n  pop\n  jump\t// out\n    /* \"#utility.yul\":810:951   */\ntag_11:\n    /* \"#utility.yul\":859:863   */\n  0x00\n    /* \"#utility.yul\":882:885   */\n  dup2\n    /* \"#utility.yul\":874:885   */\n  swap1\n  pop\n    /* \"#utility.yul\":905:908   */\n  dup2\n    /* \"#utility.yul\":902:903   */\n  0x00\n    /* \"#utility.yul\":895:909   */\n  mstore\n    /* \"#utility.yul\":939:943   */\n  0x20\n    /* \"#utility.yul\":936:937   */\n  0x00\n    /* \"#utility.yul\":926:944   */\n  keccak256\n    /* \"#utility.yul\":918:944   */\n  swap1\n  pop\n    /* \"#utility.yul\":810:951   */\n  swap2\n  swap1\n  pop\n  jump\t// out\n    /* \"#utility.yul\":957:1050   */\ntag_12:\n    /* \"#utility.yul\":994:1000   */\n  0x00\n    /* \"#utility.yul\":1041:1043   */\n  0x20\n    /* \"#utility.yul\":1036:1038   */\n  0x1f\n    /* \"#utility.yul\":1029:1034   */\n  dup4\n    /* \"#utility.yul\":1025:1039   */\n  add\n    /* \"#utility.yul\":1021:1044   */\n  div\n    /* \"#utility.yul\":1011:1044   */\n  swap1\n  pop\n    /* \"#utility.yul\":957:1050   */\n  swap2\n  swap1\n  pop\n  jump\t// out\n    /* \"#utility.yul\":1056:1163   */\ntag_13:\n    /* \"#utility.yul\":1100:1108   */\n  0x00\n    /* \"#utility.yul\":1150:1155   */\n  dup3\n    /* \"#utility.yul\":1144:1148   */\n  dup3\n    /* \"#utility.yul\":1140:1156   */\n  shl\n    /* \"#utility.yul\":1119:1156   */\n  swap1\n  pop\n    /* \"#utility.yul\":1056:1163   */\n  swap3\n  swap2\n  pop\n  pop\n  jump\t// out\n    /* \"#utility.yul\":1169:1562   */\ntag_14:\n    /* \"#utility.yul\":1238:1244   */\n  0x00\n    /* \"#utility.yul\":1288:1289   */\n  0x08\n    /* \"#utility.yul\":1276:1286   */\n  dup4\n    /* \"#utility.yul\":1272:1290   */\n  mul\n    /* \"#utility.yul\":1311:1408   */\n  tag_39\n    /* \"#utility.yul\":1341:1407   */\n  0xffffffffffffffffffffffffffffffffffffffffffffffffffffffffffffffff\n    /* \"#utility.yul\":1330:1339   */\n  dup3\n    /* \"#utility.yul\":1311:1408   */\n  tag_13\n  jump\t// in\ntag_39:\n    /* \"#utility.yul\":1429:1468   */\n  tag_40\n    /* \"#utility.yul\":1459:1467   */\n  dup7\n    /* \"#utility.yul\":1448:1457   */\n  dup4\n    /* \"#utility.yul\":1429:1468   */\n  tag_13\n  jump\t// in\ntag_40:\n    /* \"#utility.yul\":1417:1468   */\n  swap6\n  pop\n    /* \"#utility.yul\":1501:1505   */\n  dup1\n    /* \"#utility.yul\":1497:1506   */\n  not\n    /* \"#utility.yul\":1490:1495   */\n  dup5\n    /* \"#utility.yul\":1486:1507   */\n  and\n    /* \"#utility.yul\":1477:1507   */\n  swap4\n  pop\n    /* \"#utility.yul\":1550:1554   */\n  dup1\n    /* \"#utility.yul\":1540:1548   */\n  dup7\n    /* \"#utility.yul\":1536:1555   */\n  and\n    /* \"#utility.yul\":1529:1534   */\n  dup5\n    /* \"#utility.yul\":1526:1556   */\n  or\n    /* \"#utility.yul\":1516:1556   */\n  swap3\n  pop\n    /* \"#utility.yul\":1245:1562   */\n  pop\n  pop\n    /* \"#utility.yul\":1169:1562   */\n  swap4\n  swap3\n  pop\n  pop\n  pop\n  jump\t// out\n    /* \"#utility.yul\":1568:1645   */\ntag_15:\n    /* \"#utility.yul\":1605:1612   */\n  0x00\n    /* \"#utility.yul\":1634:1639   */\n  dup2\n    /* \"#utility.yul\":1623:1639   */\n  swap1\n  pop\n    /* \"#utility.yul\":1568:1645   */\n  swap2\n  swap1\n  pop\n  jump\t// out\n    /* \"#utility.yul\":1651:1711   */\ntag_16:\n    /* \"#utility.yul\":1679:1682   */\n  0x00\n    /* \"#utility.yul\":1700:1705   */\n  dup2\n    /* \"#utility.yul\":1693:1705   */\n  swap1\n  pop\n    /* \"#utility.yul\":1651:1711   */\n  swap2\n  swap1\n  pop\n  jump\t// out\n    /* \"#utility.yul\":1717:1859   */\ntag_17:\n    /* \"#utility.yul\":1767:1776   */\n  0x00\n    /* \"#utility.yul\":1800:1853   */\n  tag_44\n    /* \"#utility.yul\":1818:1852   */\n  tag_45\n    /* \"#utility.yul\":1827:1851   */\n  tag_46\n    /* \"#utility.yul\":1845:1850   */\n  dup5\n    /* \"#utility.yul\":1827:1851   */\n  tag_15\n  jump\t// in\ntag_46:\n    /* \"#utility.yul\":1818:1852   */\n  tag_16\n  jump\t// in\ntag_45:\n    /* \"#utility.yul\":1800:1853   */\n  tag_15\n  jump\t// in\ntag_44:\n    /* \"#utility.yul\":1787:1853   */\n  swap1\n  pop\n    /* \"#utility.yul\":1717:1859   */\n  swap2\n  swap1\n  pop\n  jump\t// out\n    /* \"#utility.yul\":1865:1940   */\ntag_18:\n    /* \"#utility.yul\":1908:1911   */\n  0x00\n    /* \"#utility.yul\":1929:1934   */\n  dup2\n    /* \"#utility.yul\":1922:1934   */\n  swap1\n  pop\n    /* \"#utility.yul\":1865:1940   */\n  swap2\n  swap1\n  pop\n  jump\t// out\n    /* \"#utility.yul\":1946:2215   */\ntag_19:\n    /* \"#utility.yul\":2056:2095   */\n  tag_49\n    /* \"#utility.yul\":2087:2094   */\n  dup4\n    /* \"#utility.yul\":2056:2095   */\n  tag_17\n  jump\t// in\ntag_49:\n    /* \"#utility.yul\":2117:2208   */\n  tag_50\n    /* \"#utility.yul\":2166:2207   */\n  tag_51\n    /* \"#utility.yul\":2190:2206   */\n  dup3\n    /* \"#utility.yul\":2166:2207   */\n  tag_18\n  jump\t// in\ntag_51:\n    /* \"#utility.yul\":2158:2164   */\n  dup5\n    /* \"#utility.yul\":2151:2155   */\n  dup5\n    /* \"#utility.yul\":2145:2156   */\n  sload\n    /* \"#utility.yul\":2117:2208   */\n  tag_14\n  jump\t// in\ntag_50:\n    /* \"#utility.yul\":2111:2115   */\n  dup3\n    /* \"#utility.yul\":2104:2209   */\n  sstore\n    /* \"#utility.yul\":2022:2215   */\n  pop\n    /* \"#utility.yul\":1946:2215   */\n  pop\n  pop\n  pop\n  jump\t// out\n    /* \"#utility.yul\":2221:2294   */\ntag_20:\n    /* \"#utility.yul\":2266:2269   */\n  0x00\n    /* \"#utility.yul\":2221:2294   */\n  swap1\n  jump\t// out\n    /* \"#utility.yul\":2300:2489   */\ntag_21:\n    /* \"#utility.yul\":2377:2409   */\n  tag_54\n  tag_20\n  jump\t// in\ntag_54:\n    /* \"#utility.yul\":2418:2483   */\n  tag_55\n    /* \"#utility.yul\":2476:2482   */\n  dup2\n    /* \"#utility.yul\":2468:2474   */\n  dup5\n    /* \"#utility.yul\":2462:2466   */\n  dup5\n    /* \"#utility.yul\":2418:2483   */\n  tag_19\n  jump\t// in\ntag_55:\n    /* \"#utility.yul\":2353:2489   */\n  pop\n    /* \"#utility.yul\":2300:2489   */\n  pop\n  pop\n  jump\t// out\n    /* \"#utility.yul\":2495:2681   */\ntag_22:\n    /* \"#utility.yul\":2555:2675   */\ntag_57:\n    /* \"#utility.yul\":2572:2575   */\n  dup2\n    /* \"#utility.yul\":2565:2570   */\n  dup2\n    /* \"#utility.yul\":2562:2576   */\n  lt\n    /* \"#utility.yul\":2555:2675   */\n  iszero\n  tag_59\n  jumpi\n    /* \"#utility.yul\":2626:2665   */\n  tag_60\n    /* \"#utility.yul\":2663:2664   */\n  0x00\n    /* \"#utility.yul\":2656:2661   */\n  dup3\n    /* \"#utility.yul\":2626:2665   */\n  tag_21\n  jump\t// in\ntag_60:\n    /* \"#utility.yul\":2599:2600   */\n  0x01\n    /* \"#utility.yul\":2592:2597   */\n  dup2\n    /* \"#utility.yul\":2588:2601   */\n  add\n    /* \"#utility.yul\":2579:2601   */\n  swap1\n  pop\n    /* \"#utility.yul\":2555:2675   */\n  jump(tag_57)\ntag_59:\n    /* \"#utility.yul\":2495:2681   */\n  pop\n  pop\n  jump\t// out\n    /* \"#utility.yul\":2687:3230   */\ntag_23:\n    /* \"#utility.yul\":2788:2790   */\n  0x1f\n    /* \"#utility.yul\":2783:2786   */\n  dup3\n    /* \"#utility.yul\":2780:2791   */\n  gt\n    /* \"#utility.yul\":2777:3223   */\n  iszero\n  tag_62\n  jumpi\n    /* \"#utility.yul\":2822:2860   */\n  tag_63\n    /* \"#utility.yul\":2854:2859   */\n  dup2\n    /* \"#utility.yul\":2822:2860   */\n  tag_11\n  jump\t// in\ntag_63:\n    /* \"#utility.yul\":2906:2935   */\n  tag_64\n    /* \"#utility.yul\":2924:2934   */\n  dup5\n    /* \"#utility.yul\":2906:2935   */\n  tag_12\n  jump\t// in\ntag_64:\n    /* \"#utility.yul\":2896:2904   */\n  dup2\n    /* \"#utility.yul\":2892:2936   */\n  add\n    /* \"#utility.yul\":3089:3091   */\n  0x20\n    /* \"#utility.yul\":3077:3087   */\n  dup6\n    /* \"#utility.yul\":3074:3092   */\n  lt\n    /* \"#utility.yul\":3071:3120   */\n  iszero\n  tag_65\n  jumpi\n    /* \"#utility.yul\":3110:3118   */\n  dup2\n    /* \"#utility.yul\":3095:3118   */\n  swap1\n  pop\n    /* \"#utility.yul\":3071:3120   */\ntag_65:\n    /* \"#utility.yul\":3133:3213   */\n  tag_66\n    /* \"#utility.yul\":3189:3211   */\n  tag_67\n    /* \"#utility.yul\":3207:3210   */\n  dup6\n    /* \"#utility.yul\":3189:3211   */\n  tag_12\n  jump\t// in\ntag_67:\n    /* \"#utility.yul\":3179:3187   */\n  dup4\n    /* \"#utility.yul\":3175:3212   */\n  add\n    /* \"#utility.yul\":3162:3173   */\n  dup3\n    /* \"#utility.yul\":3133:3213   */\n  tag_22\n  jump\t// in\ntag_66:\n    /* \"#utility.yul\":2792:3223   */\n  pop\n  pop\n    /* \"#utility.yul\":2777:3223   */\ntag_62:\n    /* \"#utility.yul\":2687:3230   */\n  pop\n  pop\n  pop\n  jump\t// out\n    /* \"#utility.yul\":3236:3353   */\ntag_24:\n    /* \"#utility.yul\":3290:3298   */\n  0x00\n    /* \"#utility.yul\":3340:3345   */\n  dup3\n    /* \"#utility.yul\":3334:3338   */\n  dup3\n    /* \"#utility.yul\":3330:3346   */\n  shr\n    /* \"#utility.yul\":3309:3346   */\n  swap1\n  pop\n    /* \"#utility.yul\":3236:3353   */\n  swap3\n  swap2\n  pop\n  pop\n  jump\t// out\n    /* \"#utility.yul\":3359:3528   */\ntag_25:\n    /* \"#utility.yul\":3403:3409   */\n  0x00\n    /* \"#utility.yul\":3436:3487   */\n  tag_70\n    /* \"#utility.yul\":3484:3485   */\n  0x00\n    /* \"#utility.yul\":3480:3486   */\n  not\n    /* \"#utility.yul\":3472:3477   */\n  dup5\n    /* \"#utility.yul\":3469:3470   */\n  0x08\n    /* \"#utility.yul\":3465:3478   */\n  mul\n    /* \"#utility.yul\":3436:3487   */\n  tag_24\n  jump\t// in\ntag_70:\n    /* \"#utility.yul\":3432:3488   */\n  not\n    /* \"#utility.yul\":3517:3521   */\n  dup1\n    /* \"#utility.yul\":3511:3515   */\n  dup4\n    /* \"#utility.yul\":3507:3522   */\n  and\n    /* \"#utility.yul\":3497:3522   */\n  swap2\n  pop\n    /* \"#utility.yul\":3410:3528   */\n  pop\n    /* \"#utility.yul\":3359:3528   */\n  swap3\n  swap2\n  pop\n  pop\n  jump\t// out\n    /* \"#utility.yul\":3533:3828   */\ntag_26:\n    /* \"#utility.yul\":3609:3613   */\n  0x00\n    /* \"#utility.yul\":3755:3784   */\n  tag_72\n    /* \"#utility.yul\":3780:3783   */\n  dup4\n    /* \"#utility.yul\":3774:3778   */\n  dup4\n    /* \"#utility.yul\":3755:3784   */\n  tag_25\n  jump\t// in\ntag_72:\n    /* \"#utility.yul\":3747:3784   */\n  swap2\n  pop\n    /* \"#utility.yul\":3817:3820   */\n  dup3\n    /* \"#utility.yul\":3814:3815   */\n  0x02\n    /* \"#utility.yul\":3810:3821   */\n  mul\n    /* \"#utility.yul\":3804:3808   */\n  dup3\n    /* \"#utility.yul\":3801:3822   */\n  or\n    /* \"#utility.yul\":3793:3822   */\n  swap1\n  pop\n    /* \"#utility.yul\":3533:3828   */\n  swap3\n  swap2\n  pop\n  pop\n  jump\t// out\n    /* \"#utility.yul\":3833:5228   */\ntag_2:\n    /* \"#utility.yul\":3950:3987   */\n  tag_74\n    /* \"#utility.yul\":3983:3986   */\n  dup3\n    /* \"#utility.yul\":3950:3987   */\n  tag_7\n  jump\t// in\ntag_74:\n    /* \"#utility.yul\":4052:4070   */\n  0xffffffffffffffff\n    /* \"#utility.yul\":4044:4050   */\n  dup2\n    /* \"#utility.yul\":4041:4071   */\n  gt\n    /* \"#utility.yul\":4038:4094   */\n  iszero\n  tag_75\n  jumpi\n    /* \"#utility.yul\":4074:4092   */\n  tag_76\n  tag_8\n  jump\t// in\ntag_76:\n    /* \"#utility.yul\":4038:4094   */\ntag_75:\n    /* \"#utility.yul\":4118:4156   */\n  tag_77\n    /* \"#utility.yul\":4150:4154   */\n  dup3\n    /* \"#utility.yul\":4144:4155   */\n  sload\n    /* \"#utility.yul\":4118:4156   */\n  tag_10\n  jump\t// in\ntag_77:\n    /* \"#utility.yul\":4203:4270   */\n  tag_78\n    /* \"#utility.yul\":4263:4269   */\n  dup3\n    /* \"#utility.yul\":4255:4261   */\n  dup3\n    /* \"#utility.yul\":4249:4253   */\n  dup6\n    /* \"#utility.yul\":4203:4270   */\n  tag_23\n  jump\t// in\ntag_78:\n    /* \"#utility.yul\":4297:4298   */\n  0x00\n    /* \"#utility.yul\":4321:4325   */\n  0x20\n    /* \"#utility.yul\":4308:4325   */\n  swap1\n  pop\n    /* \"#utility.yul\":4353:4355   */\n  0x1f\n    /* \"#utility.yul\":4345:4351   */\n  dup4\n    /* \"#utility.yul\":4342:4356   */\n  gt\n    /* \"#utility.yul\":4370:4371   */\n  0x01\n    /* \"#utility.yul\":4365:4983   */\n  dup2\n  eq\n  tag_80\n  jumpi\n    /* \"#utility.yul\":5027:5028   */\n  0x00\n    /* \"#utility.yul\":5044:5050   */\n  dup5\n    /* \"#utility.yul\":5041:5118   */\n  iszero\n  tag_81\n  jumpi\n    /* \"#utility.yul\":5093:5102   */\n  dup3\n    /* \"#utility.yul\":5088:5091   */\n  dup8\n    /* \"#utility.yul\":5084:5103   */\n  add\n    /* \"#utility.yul\":5078:5104   */\n  mload\n    /* \"#utility.yul\":5069:5104   */\n  swap1\n  pop\n    /* \"#utility.yul\":5041:5118   */\ntag_81:\n    /* \"#utility.yul\":5144:5211   */\n  tag_82\n    /* \"#utility.yul\":5204:5210   */\n  dup6\n    /* \"#utility.yul\":5197:5202   */\n  dup3\n    /* \"#utility.yul\":5144:5211   */\n  tag_26\n  jump\t// in\ntag_82:\n    /* \"#utility.yul\":5138:5142   */\n  dup7\n    /* \"#utility.yul\":5131:5212   */\n  sstore\n    /* \"#utility.yul\":5000:5222   */\n  pop\n    /* \"#utility.yul\":4335:5222   */\n  jump(tag_79)\n    /* \"#utility.yul\":4365:4983   */\ntag_80:\n    /* \"#utility.yul\":4417:4421   */\n  0x1f\n    /* \"#utility.yul\":4413:4422   */\n  not\n    /* \"#utility.yul\":4405:4411   */\n  dup5\n    /* \"#utility.yul\":4401:4423   */\n  and\n    /* \"#utility.yul\":4451:4488   */\n  tag_83\n    /* \"#utility.yul\":4483:4487   */\n  dup7\n    /* \"#utility.yul\":4451:4488   */\n  tag_11\n  jump\t// in\ntag_83:\n    /* \"#utility.yul\":4510:4511   */\n  0x00\n    /* \"#utility.yul\":4524:4732   */\ntag_84:\n    /* \"#utility.yul\":4538:4545   */\n  dup3\n    /* \"#utility.yul\":4535:4536   */\n  dup2\n    /* \"#utility.yul\":4532:4546   */\n  lt\n    /* \"#utility.yul\":4524:4732   */\n  iszero\n  tag_86\n  jumpi\n    /* \"#utility.yul\":4617:4626   */\n  dup5\n    /* \"#utility.yul\":4612:4615   */\n  dup10\n    /* \"#utility.yul\":4608:4627   */\n  add\n    /* \"#utility.yul\":4602:4628   */\n  mload\n    /* \"#utility.yul\":4594:4600   */\n  dup3\n    /* \"#utility.yul\":4587:4629   */\n  sstore\n    /* \"#utility.yul\":4668:4669   */\n  0x01\n    /* \"#utility.yul\":4660:4666   */\n  dup3\n    /* \"#utility.yul\":4656:4670   */\n  add\n    /* \"#utility.yul\":4646:4670   */\n  swap2\n  pop\n    /* \"#utility.yul\":4715:4717   */\n  0x20\n    /* \"#utility.yul\":4704:4713   */\n  dup6\n    /* \"#utility.yul\":4700:4718   */\n  add\n    /* \"#utility.yul\":4687:4718   */\n  swap5\n  pop\n    /* \"#utility.yul\":4561:4565   */\n  0x20\n    /* \"#utility.yul\":4558:4559   */\n  dup2\n    /* \"#utility.yul\":4554:4566   */\n  add\n    /* \"#utility.yul\":4549:4566   */\n  swap1\n  pop\n    /* \"#utility.yul\":4524:4732   */\n  jump(tag_84)\ntag_86:\n    /* \"#utility.yul\":4760:4766   */\n  dup7\n    /* \"#utility.yul\":4751:4758   */\n  dup4\n    /* \"#utility.yul\":4748:4767   */\n  lt\n    /* \"#utility.yul\":4745:4924   */\n  iszero\n  tag_87\n  jumpi\n    /* \"#utility.yul\":4818:4827   */\n  dup5\n    /* \"#utility.yul\":4813:4816   */\n  dup10\n    /* \"#utility.yul\":4809:4828   */\n  add\n    /* \"#utility.yul\":4803:4829   */\n  mload\n    /* \"#utility.yul\":4861:4909   */\n  tag_88\n    /* \"#utility.yul\":4903:4907   */\n  0x1f\n    /* \"#utility.yul\":4895:4901   */\n  dup10\n    /* \"#utility.yul\":4891:4908   */\n  and\n    /* \"#utility.yul\":4880:4889   */\n  dup3\n    /* \"#utility.yul\":4861:4909   */\n  tag_25\n  jump\t// in\ntag_88:\n    /* \"#utility.yul\":4853:4859   */\n  dup4\n    /* \"#utility.yul\":4846:4910   */\n  sstore\n    /* \"#utility.yul\":4768:4924   */\n  pop\n    /* \"#utility.yul\":4745:4924   */\ntag_87:\n    /* \"#utility.yul\":4970:4971   */\n  0x01\n    /* \"#utility.yul\":4966:4967   */\n  0x02\n    /* \"#utility.yul\":4958:4964   */\n  dup9\n    /* \"#utility.yul\":4954:4968   */\n  mul\n    /* \"#utility.yul\":4950:4972   */\n  add\n    /* \"#utility.yul\":4944:4948   */\n  dup9\n    /* \"#utility.yul\":4937:4973   */\n  sstore\n    /* \"#utility.yul\":4372:4983   */\n  pop\n  pop\n  pop\n    /* \"#utility.yul\":4335:5222   */\ntag_79:\n  pop\n    /* \"#utility.yul\":3925:5228   */\n  pop\n  pop\n  pop\n    /* \"#utility.yul\":3833:5228   */\n  pop\n  pop\n  jump\t// out\n    /* \"lunchVenue.sol\":158:4364  contract LunchVenue{... */\ntag_6:\n  dataSize(sub_0)\n  dup1\n  dataOffset(sub_0)\n  0x00\n  codecopy\n  0x00\n  return\nstop\n\nsub_0: assembly {\n        /* \"lunchVenue.sol\":158:4364  contract LunchVenue{... */\n      mstore(0x40, 0x80)\n      callvalue\n      dup1\n      iszero\n      tag_1\n      jumpi\n      0x00\n      dup1\n      revert\n    tag_1:\n      pop\n      jumpi(tag_2, lt(calldatasize, 0x04))\n      shr(0xe0, calldataload(0x00))\n      dup1\n      0x6d77bd3e\n      gt\n      tag_15\n      jumpi\n      dup1\n      0x6d77bd3e\n      eq\n      tag_9\n      jumpi\n      dup1\n      0x788d3851\n      eq\n      tag_10\n      jumpi\n      dup1\n      0xa3bef4d7\n      eq\n      tag_11\n      jumpi\n      dup1\n      0xad5461d8\n      eq\n      tag_12\n      jumpi\n      dup1\n      0xb798867f\n      eq\n      tag_13\n      jumpi\n      dup1\n      0xc1c16efc\n      eq\n      tag_14\n      jumpi\n      jump(tag_2)\n    tag_15:\n      dup1\n      0x124258c6\n      eq\n      tag_3\n      jumpi\n      dup1\n      0x1ddabf7a\n      eq\n      tag_4\n      jumpi\n      dup1\n      0x3b9f708d\n      eq\n      tag_5\n      jumpi\n      dup1\n      0x47098f36\n      eq\n      tag_6\n      jumpi\n      dup1\n      0x481c6a75\n      eq\n      tag_7\n      jumpi\n      dup1\n      0x5df81330\n      eq\n      tag_8\n      jumpi\n    tag_2:\n      0x00\n      dup1\n      revert\n        /* \"lunchVenue.sol\":2417:3130  function doVote(uint restaurant) public votingOpen returns (bool validVote){... */\n    tag_3:\n      tag_16\n      0x04\n      dup1\n      calldatasize\n      sub\n      dup2\n      add\n      swap1\n      tag_17\n      swap2\n      swap1\n      tag_18\n      jump\t// in\n    tag_17:\n      tag_19\n      jump\t// in\n    tag_16:\n      mload(0x40)\n      tag_20\n      swap2\n      swap1\n      tag_21\n      jump\t// in\n    tag_20:\n      mload(0x40)\n      dup1\n      swap2\n      sub\n      swap1\n      return\n        /* \"lunchVenue.sol\":437:478  mapping(address => Friend) public friends */\n    tag_4:\n      tag_22\n      0x04\n      dup1\n      calldatasize\n      sub\n      dup2\n      add\n      swap1\n      tag_23\n      swap2\n      swap1\n      tag_24\n      jump\t// in\n    tag_23:\n      tag_25\n      jump\t// in\n    tag_22:\n      mload(0x40)\n      tag_26\n      swap3\n      swap2\n      swap1\n      tag_27\n      jump\t// in\n    tag_26:\n      mload(0x40)\n      dup1\n      swap2\n      sub\n      swap1\n      return\n        /* \"lunchVenue.sol\":1816:2075  function addFriend(address friendAddress, string memory name) public restricted returns (uint){... */\n    tag_5:\n      tag_28\n      0x04\n      dup1\n      calldatasize\n      sub\n      dup2\n      add\n      swap1\n      tag_29\n      swap2\n      swap1\n      tag_30\n      jump\t// in\n    tag_29:\n      tag_31\n      jump\t// in\n    tag_28:\n      mload(0x40)\n      tag_32\n      swap2\n      swap1\n      tag_33\n      jump\t// in\n    tag_32:\n      mload(0x40)\n      dup1\n      swap2\n      sub\n      swap1\n      return\n        /* \"lunchVenue.sol\":556:582  uint public numFriends = 0 */\n    tag_6:\n      tag_34\n      tag_35\n      jump\t// in\n    tag_34:\n      mload(0x40)\n      tag_36\n      swap2\n      swap1\n      tag_33\n      jump\t// in\n    tag_36:\n      mload(0x40)\n      dup1\n      swap2\n      sub\n      swap1\n      return\n        /* \"lunchVenue.sol\":618:640  address public manager */\n    tag_7:\n      tag_37\n      tag_38\n      jump\t// in\n    tag_37:\n      mload(0x40)\n      tag_39\n      swap2\n      swap1\n      tag_40\n      jump\t// in\n    tag_39:\n      mload(0x40)\n      dup1\n      swap2\n      sub\n      swap1\n      return\n        /* \"lunchVenue.sol\":728:763  mapping (uint => Vote) public votes */\n    tag_8:\n      tag_41\n      0x04\n      dup1\n      calldatasize\n      sub\n      dup2\n      add\n      swap1\n      tag_42\n      swap2\n      swap1\n      tag_18\n      jump\t// in\n    tag_42:\n      tag_43\n      jump\t// in\n    tag_41:\n      mload(0x40)\n      tag_44\n      swap3\n      swap2\n      swap1\n      tag_45\n      jump\t// in\n    tag_44:\n      mload(0x40)\n      dup1\n      swap2\n      sub\n      swap1\n      return\n        /* \"lunchVenue.sol\":1334:1517  function addRestaurant(string memory name) public restricted returns (uint){... */\n    tag_9:\n      tag_46\n      0x04\n      dup1\n      calldatasize\n      sub\n      dup2\n      add\n      swap1\n      tag_47\n      swap2\n      swap1\n      tag_48\n      jump\t// in\n    tag_47:\n      tag_49\n      jump\t// in\n    tag_46:\n      mload(0x40)\n      tag_50\n      swap2\n      swap1\n      tag_33\n      jump\t// in\n    tag_50:\n      mload(0x40)\n      dup1\n      swap2\n      sub\n      swap1\n      return\n        /* \"lunchVenue.sol\":897:924  bool public voteOpen = true */\n    tag_10:\n      tag_51\n      tag_52\n      jump\t// in\n    tag_51:\n      mload(0x40)\n      tag_53\n      swap2\n      swap1\n      tag_21\n      jump\t// in\n    tag_53:\n      mload(0x40)\n      dup1\n      swap2\n      sub\n      swap1\n      return\n        /* \"lunchVenue.sol\":588:612  uint public numVotes = 0 */\n    tag_11:\n      tag_54\n      tag_55\n      jump\t// in\n    tag_54:\n      mload(0x40)\n      tag_56\n      swap2\n      swap1\n      tag_33\n      jump\t// in\n    tag_56:\n      mload(0x40)\n      dup1\n      swap2\n      sub\n      swap1\n      return\n        /* \"lunchVenue.sol\":344:387  mapping (uint => string) public restaurants */\n    tag_12:\n      tag_57\n      0x04\n      dup1\n      calldatasize\n      sub\n      dup2\n      add\n      swap1\n      tag_58\n      swap2\n      swap1\n      tag_18\n      jump\t// in\n    tag_58:\n      tag_59\n      jump\t// in\n    tag_57:\n      mload(0x40)\n      tag_60\n      swap2\n      swap1\n      tag_61\n      jump\t// in\n    tag_60:\n      mload(0x40)\n      dup1\n      swap2\n      sub\n      swap1\n      return\n        /* \"lunchVenue.sol\":520:550  uint public numRestaurants = 0 */\n    tag_13:\n      tag_62\n      tag_63\n      jump\t// in\n    tag_62:\n      mload(0x40)\n      tag_64\n      swap2\n      swap1\n      tag_33\n      jump\t// in\n    tag_64:\n      mload(0x40)\n      dup1\n      swap2\n      sub\n      swap1\n      return\n        /* \"lunchVenue.sol\":665:699  string public votedRestaurant = \"\" */\n    tag_14:\n      tag_65\n      tag_66\n      jump\t// in\n    tag_65:\n      mload(0x40)\n      tag_67\n      swap2\n      swap1\n      tag_61\n      jump\t// in\n    tag_67:\n      mload(0x40)\n      dup1\n      swap2\n      sub\n      swap1\n      return\n        /* \"lunchVenue.sol\":2417:3130  function doVote(uint restaurant) public votingOpen returns (bool validVote){... */\n    tag_19:\n        /* \"lunchVenue.sol\":2477:2491  bool validVote */\n      0x00\n        /* \"lunchVenue.sol\":4300:4304  true */\n      0x01\n        /* \"lunchVenue.sol\":4288:4304  voteOpen == true */\n      iszero\n      iszero\n        /* \"lunchVenue.sol\":4288:4296  voteOpen */\n      0x09\n      0x00\n      swap1\n      sload\n      swap1\n      0x0100\n      exp\n      swap1\n      div\n      0xff\n      and\n        /* \"lunchVenue.sol\":4288:4304  voteOpen == true */\n      iszero\n      iszero\n      eq\n        /* \"lunchVenue.sol\":4280:4344  require(voteOpen == true, \"Can vote only while voting is open.\") */\n      tag_69\n      jumpi\n      mload(0x40)\n      0x08c379a000000000000000000000000000000000000000000000000000000000\n      dup2\n      mstore\n      0x04\n      add\n      tag_70\n      swap1\n      tag_71\n      jump\t// in\n    tag_70:\n      mload(0x40)\n      dup1\n      swap2\n      sub\n      swap1\n      revert\n    tag_69:\n        /* \"lunchVenue.sol\":2514:2519  false */\n      0x00\n        /* \"lunchVenue.sol\":2502:2519  validVote = false */\n      swap1\n      pop\n        /* \"lunchVenue.sol\":2596:2597  0 */\n      0x00\n        /* \"lunchVenue.sol\":2560:2567  friends */\n      0x01\n        /* \"lunchVenue.sol\":2560:2579  friends[msg.sender] */\n      0x00\n        /* \"lunchVenue.sol\":2568:2578  msg.sender */\n      caller\n        /* \"lunchVenue.sol\":2560:2579  friends[msg.sender] */\n      0xffffffffffffffffffffffffffffffffffffffff\n      and\n      0xffffffffffffffffffffffffffffffffffffffff\n      and\n      dup2\n      mstore\n      0x20\n      add\n      swap1\n      dup2\n      mstore\n      0x20\n      add\n      0x00\n      keccak256\n        /* \"lunchVenue.sol\":2560:2584  friends[msg.sender].name */\n      0x00\n      add\n        /* \"lunchVenue.sol\":2554:2592  bytes(friends[msg.sender].name).length */\n      dup1\n      sload\n      tag_73\n      swap1\n      tag_74\n      jump\t// in\n    tag_73:\n      swap1\n      pop\n        /* \"lunchVenue.sol\":2554:2597  bytes(friends[msg.sender].name).length != 0 */\n      eq\n        /* \"lunchVenue.sol\":2550:3000  if (bytes(friends[msg.sender].name).length != 0) { //Does friend exist?... */\n      tag_75\n      jumpi\n        /* \"lunchVenue.sol\":2679:2680  0 */\n      0x00\n        /* \"lunchVenue.sol\":2644:2655  restaurants */\n      dup1\n        /* \"lunchVenue.sol\":2644:2667  restaurants[restaurant] */\n      0x00\n        /* \"lunchVenue.sol\":2656:2666  restaurant */\n      dup5\n        /* \"lunchVenue.sol\":2644:2667  restaurants[restaurant] */\n      dup2\n      mstore\n      0x20\n      add\n      swap1\n      dup2\n      mstore\n      0x20\n      add\n      0x00\n      keccak256\n        /* \"lunchVenue.sol\":2638:2675  bytes(restaurants[restaurant]).length */\n      dup1\n      sload\n      tag_76\n      swap1\n      tag_74\n      jump\t// in\n    tag_76:\n      swap1\n      pop\n        /* \"lunchVenue.sol\":2638:2680  bytes(restaurants[restaurant]).length != 0 */\n      eq\n        /* \"lunchVenue.sol\":2634:2990  if (bytes(restaurants[restaurant]).length != 0) { //Does restaurant exist?... */\n      tag_77\n      jumpi\n        /* \"lunchVenue.sol\":2737:2741  true */\n      0x01\n        /* \"lunchVenue.sol\":2725:2741  validVote = true */\n      swap1\n      pop\n        /* \"lunchVenue.sol\":2787:2791  true */\n      0x01\n        /* \"lunchVenue.sol\":2759:2766  friends */\n      dup1\n        /* \"lunchVenue.sol\":2759:2778  friends[msg.sender] */\n      0x00\n        /* \"lunchVenue.sol\":2767:2777  msg.sender */\n      caller\n        /* \"lunchVenue.sol\":2759:2778  friends[msg.sender] */\n      0xffffffffffffffffffffffffffffffffffffffff\n      and\n      0xffffffffffffffffffffffffffffffffffffffff\n      and\n      dup2\n      mstore\n      0x20\n      add\n      swap1\n      dup2\n      mstore\n      0x20\n      add\n      0x00\n      keccak256\n        /* \"lunchVenue.sol\":2759:2784  friends[msg.sender].voted */\n      0x01\n      add\n      0x00\n        /* \"lunchVenue.sol\":2759:2791  friends[msg.sender].voted = true */\n      0x0100\n      exp\n      dup2\n      sload\n      dup2\n      0xff\n      mul\n      not\n      and\n      swap1\n      dup4\n      iszero\n      iszero\n      mul\n      or\n      swap1\n      sstore\n      pop\n        /* \"lunchVenue.sol\":2809:2822  Vote memory v */\n      tag_78\n      tag_79\n      jump\t// in\n    tag_78:\n        /* \"lunchVenue.sol\":2857:2867  msg.sender */\n      caller\n        /* \"lunchVenue.sol\":2840:2841  v */\n      dup2\n        /* \"lunchVenue.sol\":2840:2854  v.voterAddress */\n      0x00\n      add\n        /* \"lunchVenue.sol\":2840:2867  v.voterAddress = msg.sender */\n      swap1\n      0xffffffffffffffffffffffffffffffffffffffff\n      and\n      swap1\n      dup2\n      0xffffffffffffffffffffffffffffffffffffffff\n      and\n      dup2\n      mstore\n      pop\n      pop\n        /* \"lunchVenue.sol\":2900:2910  restaurant */\n      dup3\n        /* \"lunchVenue.sol\":2885:2886  v */\n      dup2\n        /* \"lunchVenue.sol\":2885:2897  v.restaurant */\n      0x20\n      add\n        /* \"lunchVenue.sol\":2885:2910  v.restaurant = restaurant */\n      dup2\n      dup2\n      mstore\n      pop\n      pop\n        /* \"lunchVenue.sol\":2928:2936  numVotes */\n      0x04\n      0x00\n        /* \"lunchVenue.sol\":2928:2938  numVotes++ */\n      dup2\n      sload\n      dup1\n      swap3\n      swap2\n      swap1\n      tag_80\n      swap1\n      tag_81\n      jump\t// in\n    tag_80:\n      swap2\n      swap1\n      pop\n      sstore\n      pop\n        /* \"lunchVenue.sol\":2974:2975  v */\n      dup1\n        /* \"lunchVenue.sol\":2956:2961  votes */\n      0x07\n        /* \"lunchVenue.sol\":2956:2971  votes[numVotes] */\n      0x00\n        /* \"lunchVenue.sol\":2962:2970  numVotes */\n      sload(0x04)\n        /* \"lunchVenue.sol\":2956:2971  votes[numVotes] */\n      dup2\n      mstore\n      0x20\n      add\n      swap1\n      dup2\n      mstore\n      0x20\n      add\n      0x00\n      keccak256\n        /* \"lunchVenue.sol\":2956:2975  votes[numVotes] = v */\n      0x00\n      dup3\n      add\n      mload\n      dup2\n      0x00\n      add\n      exp(0x0100, 0x00)\n      dup2\n      sload\n      dup2\n      0xffffffffffffffffffffffffffffffffffffffff\n      mul\n      not\n      and\n      swap1\n      dup4\n      0xffffffffffffffffffffffffffffffffffffffff\n      and\n      mul\n      or\n      swap1\n      sstore\n      pop\n      0x20\n      dup3\n      add\n      mload\n      dup2\n      0x01\n      add\n      sstore\n      swap1\n      pop\n      pop\n        /* \"lunchVenue.sol\":2682:2990  { //Does restaurant exist?... */\n      pop\n        /* \"lunchVenue.sol\":2634:2990  if (bytes(restaurants[restaurant]).length != 0) { //Does restaurant exist?... */\n    tag_77:\n        /* \"lunchVenue.sol\":2550:3000  if (bytes(friends[msg.sender].name).length != 0) { //Does friend exist?... */\n    tag_75:\n        /* \"lunchVenue.sol\":3041:3042  1 */\n      0x01\n        /* \"lunchVenue.sol\":3037:3038  2 */\n      0x02\n        /* \"lunchVenue.sol\":3026:3036  numFriends */\n      sload(0x03)\n        /* \"lunchVenue.sol\":3026:3038  numFriends/2 */\n      tag_82\n      swap2\n      swap1\n      tag_83\n      jump\t// in\n    tag_82:\n        /* \"lunchVenue.sol\":3026:3042  numFriends/2 + 1 */\n      tag_84\n      swap2\n      swap1\n      tag_85\n      jump\t// in\n    tag_84:\n        /* \"lunchVenue.sol\":3014:3022  numVotes */\n      sload(0x04)\n        /* \"lunchVenue.sol\":3014:3042  numVotes >= numFriends/2 + 1 */\n      lt\n        /* \"lunchVenue.sol\":3010:3098  if (numVotes >= numFriends/2 + 1) { //Quorum is met... */\n      tag_86\n      jumpi\n        /* \"lunchVenue.sol\":3074:3087  finalResult() */\n      tag_87\n        /* \"lunchVenue.sol\":3074:3085  finalResult */\n      tag_88\n        /* \"lunchVenue.sol\":3074:3087  finalResult() */\n      jump\t// in\n    tag_87:\n        /* \"lunchVenue.sol\":3010:3098  if (numVotes >= numFriends/2 + 1) { //Quorum is met... */\n    tag_86:\n        /* \"lunchVenue.sol\":2417:3130  function doVote(uint restaurant) public votingOpen returns (bool validVote){... */\n      swap2\n      swap1\n      pop\n      jump\t// out\n        /* \"lunchVenue.sol\":437:478  mapping(address => Friend) public friends */\n    tag_25:\n      mstore(0x20, 0x01)\n      dup1\n      0x00\n      mstore\n      keccak256(0x00, 0x40)\n      0x00\n      swap2\n      pop\n      swap1\n      pop\n      dup1\n      0x00\n      add\n      dup1\n      sload\n      tag_89\n      swap1\n      tag_74\n      jump\t// in\n    tag_89:\n      dup1\n      0x1f\n      add\n      0x20\n      dup1\n      swap2\n      div\n      mul\n      0x20\n      add\n      mload(0x40)\n      swap1\n      dup2\n      add\n      0x40\n      mstore\n      dup1\n      swap3\n      swap2\n      swap1\n      dup2\n      dup2\n      mstore\n      0x20\n      add\n      dup3\n      dup1\n      sload\n      tag_90\n      swap1\n      tag_74\n      jump\t// in\n    tag_90:\n      dup1\n      iszero\n      tag_91\n      jumpi\n      dup1\n      0x1f\n      lt\n      tag_92\n      jumpi\n      0x0100\n      dup1\n      dup4\n      sload\n      div\n      mul\n      dup4\n      mstore\n      swap2\n      0x20\n      add\n      swap2\n      jump(tag_91)\n    tag_92:\n      dup3\n      add\n      swap2\n      swap1\n      0x00\n      mstore\n      keccak256(0x00, 0x20)\n      swap1\n    tag_93:\n      dup2\n      sload\n      dup2\n      mstore\n      swap1\n      0x01\n      add\n      swap1\n      0x20\n      add\n      dup1\n      dup4\n      gt\n      tag_93\n      jumpi\n      dup3\n      swap1\n      sub\n      0x1f\n      and\n      dup3\n      add\n      swap2\n    tag_91:\n      pop\n      pop\n      pop\n      pop\n      pop\n      swap1\n      dup1\n      0x01\n      add\n      0x00\n      swap1\n      sload\n      swap1\n      0x0100\n      exp\n      swap1\n      div\n      0xff\n      and\n      swap1\n      pop\n      dup3\n      jump\t// out\n        /* \"lunchVenue.sol\":1816:2075  function addFriend(address friendAddress, string memory name) public restricted returns (uint){... */\n    tag_31:\n        /* \"lunchVenue.sol\":1905:1909  uint */\n      0x00\n        /* \"lunchVenue.sol\":4117:4124  manager */\n      0x05\n      0x00\n      swap1\n      sload\n      swap1\n      0x0100\n      exp\n      swap1\n      div\n      0xffffffffffffffffffffffffffffffffffffffff\n      and\n        /* \"lunchVenue.sol\":4103:4124  msg.sender == manager */\n      0xffffffffffffffffffffffffffffffffffffffff\n      and\n        /* \"lunchVenue.sol\":4103:4113  msg.sender */\n      caller\n        /* \"lunchVenue.sol\":4103:4124  msg.sender == manager */\n      0xffffffffffffffffffffffffffffffffffffffff\n      and\n      eq\n        /* \"lunchVenue.sol\":4094:4164  require (msg.sender == manager, \"Can only be executed by the manager\") */\n      tag_95\n      jumpi\n      mload(0x40)\n      0x08c379a000000000000000000000000000000000000000000000000000000000\n      dup2\n      mstore\n      0x04\n      add\n      tag_96\n      swap1\n      tag_97\n      jump\t// in\n    tag_96:\n      mload(0x40)\n      dup1\n      swap2\n      sub\n      swap1\n      revert\n    tag_95:\n        /* \"lunchVenue.sol\":1920:1935  Friend memory f */\n      tag_99\n      tag_100\n      jump\t// in\n    tag_99:\n        /* \"lunchVenue.sol\":1954:1958  name */\n      dup3\n        /* \"lunchVenue.sol\":1945:1946  f */\n      dup2\n        /* \"lunchVenue.sol\":1945:1951  f.name */\n      0x00\n      add\n        /* \"lunchVenue.sol\":1945:1958  f.name = name */\n      dup2\n      swap1\n      mstore\n      pop\n        /* \"lunchVenue.sol\":1978:1983  false */\n      0x00\n        /* \"lunchVenue.sol\":1968:1969  f */\n      dup2\n        /* \"lunchVenue.sol\":1968:1975  f.voted */\n      0x20\n      add\n        /* \"lunchVenue.sol\":1968:1983  f.voted = false */\n      swap1\n      iszero\n      iszero\n      swap1\n      dup2\n      iszero\n      iszero\n      dup2\n      mstore\n      pop\n      pop\n        /* \"lunchVenue.sol\":2018:2019  f */\n      dup1\n        /* \"lunchVenue.sol\":1993:2000  friends */\n      0x01\n        /* \"lunchVenue.sol\":1993:2015  friends[friendAddress] */\n      0x00\n        /* \"lunchVenue.sol\":2001:2014  friendAddress */\n      dup7\n        /* \"lunchVenue.sol\":1993:2015  friends[friendAddress] */\n      0xffffffffffffffffffffffffffffffffffffffff\n      and\n      0xffffffffffffffffffffffffffffffffffffffff\n      and\n      dup2\n      mstore\n      0x20\n      add\n      swap1\n      dup2\n      mstore\n      0x20\n      add\n      0x00\n      keccak256\n        /* \"lunchVenue.sol\":1993:2019  friends[friendAddress] = f */\n      0x00\n      dup3\n      add\n      mload\n      dup2\n      0x00\n      add\n      swap1\n      dup2\n      tag_101\n      swap2\n      swap1\n      tag_102\n      jump\t// in\n    tag_101:\n      pop\n      0x20\n      dup3\n      add\n      mload\n      dup2\n      0x01\n      add\n      exp(0x0100, 0x00)\n      dup2\n      sload\n      dup2\n      0xff\n      mul\n      not\n      and\n      swap1\n      dup4\n      iszero\n      iszero\n      mul\n      or\n      swap1\n      sstore\n      pop\n      swap1\n      pop\n      pop\n        /* \"lunchVenue.sol\":2029:2039  numFriends */\n      0x03\n      0x00\n        /* \"lunchVenue.sol\":2029:2041  numFriends++ */\n      dup2\n      sload\n      dup1\n      swap3\n      swap2\n      swap1\n      tag_103\n      swap1\n      tag_81\n      jump\t// in\n    tag_103:\n      swap2\n      swap1\n      pop\n      sstore\n      pop\n        /* \"lunchVenue.sol\":2058:2068  numFriends */\n      sload(0x03)\n        /* \"lunchVenue.sol\":2051:2068  return numFriends */\n      swap2\n      pop\n      pop\n        /* \"lunchVenue.sol\":1816:2075  function addFriend(address friendAddress, string memory name) public restricted returns (uint){... */\n      swap3\n      swap2\n      pop\n      pop\n      jump\t// out\n        /* \"lunchVenue.sol\":556:582  uint public numFriends = 0 */\n    tag_35:\n      sload(0x03)\n      dup2\n      jump\t// out\n        /* \"lunchVenue.sol\":618:640  address public manager */\n    tag_38:\n      0x05\n      0x00\n      swap1\n      sload\n      swap1\n      0x0100\n      exp\n      swap1\n      div\n      0xffffffffffffffffffffffffffffffffffffffff\n      and\n      dup2\n      jump\t// out\n        /* \"lunchVenue.sol\":728:763  mapping (uint => Vote) public votes */\n    tag_43:\n      mstore(0x20, 0x07)\n      dup1\n      0x00\n      mstore\n      keccak256(0x00, 0x40)\n      0x00\n      swap2\n      pop\n      swap1\n      pop\n      dup1\n      0x00\n      add\n      0x00\n      swap1\n      sload\n      swap1\n      0x0100\n      exp\n      swap1\n      div\n      0xffffffffffffffffffffffffffffffffffffffff\n      and\n      swap1\n      dup1\n      0x01\n      add\n      sload\n      swap1\n      pop\n      dup3\n      jump\t// out\n        /* \"lunchVenue.sol\":1334:1517  function addRestaurant(string memory name) public restricted returns (uint){... */\n    tag_49:\n        /* \"lunchVenue.sol\":1404:1408  uint */\n      0x00\n        /* \"lunchVenue.sol\":4117:4124  manager */\n      0x05\n      0x00\n      swap1\n      sload\n      swap1\n      0x0100\n      exp\n      swap1\n      div\n      0xffffffffffffffffffffffffffffffffffffffff\n      and\n        /* \"lunchVenue.sol\":4103:4124  msg.sender == manager */\n      0xffffffffffffffffffffffffffffffffffffffff\n      and\n        /* \"lunchVenue.sol\":4103:4113  msg.sender */\n      caller\n        /* \"lunchVenue.sol\":4103:4124  msg.sender == manager */\n      0xffffffffffffffffffffffffffffffffffffffff\n      and\n      eq\n        /* \"lunchVenue.sol\":4094:4164  require (msg.sender == manager, \"Can only be executed by the manager\") */\n      tag_105\n      jumpi\n      mload(0x40)\n      0x08c379a000000000000000000000000000000000000000000000000000000000\n      dup2\n      mstore\n      0x04\n      add\n      tag_106\n      swap1\n      tag_97\n      jump\t// in\n    tag_106:\n      mload(0x40)\n      dup1\n      swap2\n      sub\n      swap1\n      revert\n    tag_105:\n        /* \"lunchVenue.sol\":1419:1433  numRestaurants */\n      0x02\n      0x00\n        /* \"lunchVenue.sol\":1419:1435  numRestaurants++ */\n      dup2\n      sload\n      dup1\n      swap3\n      swap2\n      swap1\n      tag_108\n      swap1\n      tag_81\n      jump\t// in\n    tag_108:\n      swap2\n      swap1\n      pop\n      sstore\n      pop\n        /* \"lunchVenue.sol\":1475:1479  name */\n      dup2\n        /* \"lunchVenue.sol\":1445:1456  restaurants */\n      0x00\n        /* \"lunchVenue.sol\":1445:1472  restaurants[numRestaurants] */\n      dup1\n        /* \"lunchVenue.sol\":1457:1471  numRestaurants */\n      sload(0x02)\n        /* \"lunchVenue.sol\":1445:1472  restaurants[numRestaurants] */\n      dup2\n      mstore\n      0x20\n      add\n      swap1\n      dup2\n      mstore\n      0x20\n      add\n      0x00\n      keccak256\n        /* \"lunchVenue.sol\":1445:1479  restaurants[numRestaurants] = name */\n      swap1\n      dup2\n      tag_109\n      swap2\n      swap1\n      tag_102\n      jump\t// in\n    tag_109:\n      pop\n        /* \"lunchVenue.sol\":1496:1510  numRestaurants */\n      sload(0x02)\n        /* \"lunchVenue.sol\":1489:1510  return numRestaurants */\n      swap1\n      pop\n        /* \"lunchVenue.sol\":1334:1517  function addRestaurant(string memory name) public restricted returns (uint){... */\n      swap2\n      swap1\n      pop\n      jump\t// out\n        /* \"lunchVenue.sol\":897:924  bool public voteOpen = true */\n    tag_52:\n      0x09\n      0x00\n      swap1\n      sload\n      swap1\n      0x0100\n      exp\n      swap1\n      div\n      0xff\n      and\n      dup2\n      jump\t// out\n        /* \"lunchVenue.sol\":588:612  uint public numVotes = 0 */\n    tag_55:\n      sload(0x04)\n      dup2\n      jump\t// out\n        /* \"lunchVenue.sol\":344:387  mapping (uint => string) public restaurants */\n    tag_59:\n      mstore(0x20, 0x00)\n      dup1\n      0x00\n      mstore\n      keccak256(0x00, 0x40)\n      0x00\n      swap2\n      pop\n      swap1\n      pop\n      dup1\n      sload\n      tag_110\n      swap1\n      tag_74\n      jump\t// in\n    tag_110:\n      dup1\n      0x1f\n      add\n      0x20\n      dup1\n      swap2\n      div\n      mul\n      0x20\n      add\n      mload(0x40)\n      swap1\n      dup2\n      add\n      0x40\n      mstore\n      dup1\n      swap3\n      swap2\n      swap1\n      dup2\n      dup2\n      mstore\n      0x20\n      add\n      dup3\n      dup1\n      sload\n      tag_111\n      swap1\n      tag_74\n      jump\t// in\n    tag_111:\n      dup1\n      iszero\n      tag_112\n      jumpi\n      dup1\n      0x1f\n      lt\n      tag_113\n      jumpi\n      0x0100\n      dup1\n      dup4\n      sload\n      div\n      mul\n      dup4\n      mstore\n      swap2\n      0x20\n      add\n      swap2\n      jump(tag_112)\n    tag_113:\n      dup3\n      add\n      swap2\n      swap1\n      0x00\n      mstore\n      keccak256(0x00, 0x20)\n      swap1\n    tag_114:\n      dup2\n      sload\n      dup2\n      mstore\n      swap1\n      0x01\n      add\n      swap1\n      0x20\n      add\n      dup1\n      dup4\n      gt\n      tag_114\n      jumpi\n      dup3\n      swap1\n      sub\n      0x1f\n      and\n      dup3\n      add\n      swap2\n    tag_112:\n      pop\n      pop\n      pop\n      pop\n      pop\n      dup2\n      jump\t// out\n        /* \"lunchVenue.sol\":520:550  uint public numRestaurants = 0 */\n    tag_63:\n      sload(0x02)\n      dup2\n      jump\t// out\n        /* \"lunchVenue.sol\":665:699  string public votedRestaurant = \"\" */\n    tag_66:\n      0x06\n      dup1\n      sload\n      tag_115\n      swap1\n      tag_74\n      jump\t// in\n    tag_115:\n      dup1\n      0x1f\n      add\n      0x20\n      dup1\n      swap2\n      div\n      mul\n      0x20\n      add\n      mload(0x40)\n      swap1\n      dup2\n      add\n      0x40\n      mstore\n      dup1\n      swap3\n      swap2\n      swap1\n      dup2\n      dup2\n      mstore\n      0x20\n      add\n      dup3\n      dup1\n      sload\n      tag_116\n      swap1\n      tag_74\n      jump\t// in\n    tag_116:\n      dup1\n      iszero\n      tag_117\n      jumpi\n      dup1\n      0x1f\n      lt\n      tag_118\n      jumpi\n      0x0100\n      dup1\n      dup4\n      sload\n      div\n      mul\n      dup4\n      mstore\n      swap2\n      0x20\n      add\n      swap2\n      jump(tag_117)\n    tag_118:\n      dup3\n      add\n      swap2\n      swap1\n      0x00\n      mstore\n      keccak256(0x00, 0x20)\n      swap1\n    tag_119:\n      dup2\n      sload\n      dup2\n      mstore\n      swap1\n      0x01\n      add\n      swap1\n      0x20\n      add\n      dup1\n      dup4\n      gt\n      tag_119\n      jumpi\n      dup3\n      swap1\n      sub\n      0x1f\n      and\n      dup3\n      add\n      swap2\n    tag_117:\n      pop\n      pop\n      pop\n      pop\n      pop\n      dup2\n      jump\t// out\n        /* \"lunchVenue.sol\":3289:4003  function finalResult() private{... */\n    tag_88:\n        /* \"lunchVenue.sol\":3329:3346  uint highestVotes */\n      0x00\n        /* \"lunchVenue.sol\":3360:3382  uint highestRestaurant */\n      dup1\n        /* \"lunchVenue.sol\":3402:3408  uint i */\n      0x00\n        /* \"lunchVenue.sol\":3411:3412  1 */\n      0x01\n        /* \"lunchVenue.sol\":3402:3412  uint i = 1 */\n      swap1\n      pop\n        /* \"lunchVenue.sol\":3397:3870  for (uint i = 1; i <= numVotes; i++){ //For each vote... */\n    tag_121:\n        /* \"lunchVenue.sol\":3419:3427  numVotes */\n      sload(0x04)\n        /* \"lunchVenue.sol\":3414:3415  i */\n      dup2\n        /* \"lunchVenue.sol\":3414:3427  i <= numVotes */\n      gt\n        /* \"lunchVenue.sol\":3397:3870  for (uint i = 1; i <= numVotes; i++){ //For each vote... */\n      tag_122\n      jumpi\n        /* \"lunchVenue.sol\":3463:3477  uint voteCount */\n      0x00\n        /* \"lunchVenue.sol\":3480:3481  1 */\n      0x01\n        /* \"lunchVenue.sol\":3463:3481  uint voteCount = 1 */\n      swap1\n      pop\n        /* \"lunchVenue.sol\":3530:3531  0 */\n      0x00\n        /* \"lunchVenue.sol\":3498:3506  _results */\n      0x08\n        /* \"lunchVenue.sol\":3498:3527  _results[votes[i].restaurant] */\n      0x00\n        /* \"lunchVenue.sol\":3507:3512  votes */\n      0x07\n        /* \"lunchVenue.sol\":3507:3515  votes[i] */\n      0x00\n        /* \"lunchVenue.sol\":3513:3514  i */\n      dup7\n        /* \"lunchVenue.sol\":3507:3515  votes[i] */\n      dup2\n      mstore\n      0x20\n      add\n      swap1\n      dup2\n      mstore\n      0x20\n      add\n      0x00\n      keccak256\n        /* \"lunchVenue.sol\":3507:3526  votes[i].restaurant */\n      0x01\n      add\n      sload\n        /* \"lunchVenue.sol\":3498:3527  _results[votes[i].restaurant] */\n      dup2\n      mstore\n      0x20\n      add\n      swap1\n      dup2\n      mstore\n      0x20\n      add\n      0x00\n      keccak256\n      sload\n        /* \"lunchVenue.sol\":3498:3531  _results[votes[i].restaurant] > 0 */\n      gt\n        /* \"lunchVenue.sol\":3495:3634  if(_results[votes[i].restaurant] > 0) { // Already start counting... */\n      iszero\n      tag_124\n      jumpi\n        /* \"lunchVenue.sol\":3590:3598  _results */\n      0x08\n        /* \"lunchVenue.sol\":3590:3619  _results[votes[i].restaurant] */\n      0x00\n        /* \"lunchVenue.sol\":3599:3604  votes */\n      0x07\n        /* \"lunchVenue.sol\":3599:3607  votes[i] */\n      0x00\n        /* \"lunchVenue.sol\":3605:3606  i */\n      dup6\n        /* \"lunchVenue.sol\":3599:3607  votes[i] */\n      dup2\n      mstore\n      0x20\n      add\n      swap1\n      dup2\n      mstore\n      0x20\n      add\n      0x00\n      keccak256\n        /* \"lunchVenue.sol\":3599:3618  votes[i].restaurant */\n      0x01\n      add\n      sload\n        /* \"lunchVenue.sol\":3590:3619  _results[votes[i].restaurant] */\n      dup2\n      mstore\n      0x20\n      add\n      swap1\n      dup2\n      mstore\n      0x20\n      add\n      0x00\n      keccak256\n      sload\n        /* \"lunchVenue.sol\":3577:3619  voteCount += _results[votes[i].restaurant] */\n      dup2\n      tag_125\n      swap2\n      swap1\n      tag_85\n      jump\t// in\n    tag_125:\n      swap1\n      pop\n        /* \"lunchVenue.sol\":3495:3634  if(_results[votes[i].restaurant] > 0) { // Already start counting... */\n    tag_124:\n        /* \"lunchVenue.sol\":3679:3688  voteCount */\n      dup1\n        /* \"lunchVenue.sol\":3647:3655  _results */\n      0x08\n        /* \"lunchVenue.sol\":3647:3676  _results[votes[i].restaurant] */\n      0x00\n        /* \"lunchVenue.sol\":3656:3661  votes */\n      0x07\n        /* \"lunchVenue.sol\":3656:3664  votes[i] */\n      0x00\n        /* \"lunchVenue.sol\":3662:3663  i */\n      dup7\n        /* \"lunchVenue.sol\":3656:3664  votes[i] */\n      dup2\n      mstore\n      0x20\n      add\n      swap1\n      dup2\n      mstore\n      0x20\n      add\n      0x00\n      keccak256\n        /* \"lunchVenue.sol\":3656:3675  votes[i].restaurant */\n      0x01\n      add\n      sload\n        /* \"lunchVenue.sol\":3647:3676  _results[votes[i].restaurant] */\n      dup2\n      mstore\n      0x20\n      add\n      swap1\n      dup2\n      mstore\n      0x20\n      add\n      0x00\n      keccak256\n        /* \"lunchVenue.sol\":3647:3688  _results[votes[i].restaurant] = voteCount */\n      dup2\n      swap1\n      sstore\n      pop\n        /* \"lunchVenue.sol\":3719:3731  highestVotes */\n      dup4\n        /* \"lunchVenue.sol\":3707:3716  voteCount */\n      dup2\n        /* \"lunchVenue.sol\":3707:3731  voteCount > highestVotes */\n      gt\n        /* \"lunchVenue.sol\":3703:3860  if (voteCount > highestVotes){ // New winner... */\n      iszero\n      tag_126\n      jumpi\n        /* \"lunchVenue.sol\":3779:3788  voteCount */\n      dup1\n        /* \"lunchVenue.sol\":3764:3788  highestVotes = voteCount */\n      swap4\n      pop\n        /* \"lunchVenue.sol\":3826:3831  votes */\n      0x07\n        /* \"lunchVenue.sol\":3826:3834  votes[i] */\n      0x00\n        /* \"lunchVenue.sol\":3832:3833  i */\n      dup4\n        /* \"lunchVenue.sol\":3826:3834  votes[i] */\n      dup2\n      mstore\n      0x20\n      add\n      swap1\n      dup2\n      mstore\n      0x20\n      add\n      0x00\n      keccak256\n        /* \"lunchVenue.sol\":3826:3845  votes[i].restaurant */\n      0x01\n      add\n      sload\n        /* \"lunchVenue.sol\":3806:3845  highestRestaurant = votes[i].restaurant */\n      swap3\n      pop\n        /* \"lunchVenue.sol\":3703:3860  if (voteCount > highestVotes){ // New winner... */\n    tag_126:\n        /* \"lunchVenue.sol\":3433:3870  { //For each vote... */\n      pop\n        /* \"lunchVenue.sol\":3429:3432  i++ */\n      dup1\n      dup1\n      tag_127\n      swap1\n      tag_81\n      jump\t// in\n    tag_127:\n      swap2\n      pop\n      pop\n        /* \"lunchVenue.sol\":3397:3870  for (uint i = 1; i <= numVotes; i++){ //For each vote... */\n      jump(tag_121)\n    tag_122:\n      pop\n        /* \"lunchVenue.sol\":3897:3908  restaurants */\n      0x00\n        /* \"lunchVenue.sol\":3897:3927  restaurants[highestRestaurant] */\n      dup1\n        /* \"lunchVenue.sol\":3909:3926  highestRestaurant */\n      dup3\n        /* \"lunchVenue.sol\":3897:3927  restaurants[highestRestaurant] */\n      dup2\n      mstore\n      0x20\n      add\n      swap1\n      dup2\n      mstore\n      0x20\n      add\n      0x00\n      keccak256\n        /* \"lunchVenue.sol\":3879:3894  votedRestaurant */\n      0x06\n        /* \"lunchVenue.sol\":3879:3927  votedRestaurant = restaurants[highestRestaurant] */\n      swap1\n      dup2\n      tag_128\n      swap2\n      swap1\n      tag_129\n      jump\t// in\n    tag_128:\n      pop\n        /* \"lunchVenue.sol\":3968:3973  false */\n      0x00\n        /* \"lunchVenue.sol\":3957:3965  voteOpen */\n      0x09\n      0x00\n        /* \"lunchVenue.sol\":3957:3973  voteOpen = false */\n      0x0100\n      exp\n      dup2\n      sload\n      dup2\n      0xff\n      mul\n      not\n      and\n      swap1\n      dup4\n      iszero\n      iszero\n      mul\n      or\n      swap1\n      sstore\n      pop\n        /* \"lunchVenue.sol\":3319:4003  {... */\n      pop\n      pop\n        /* \"lunchVenue.sol\":3289:4003  function finalResult() private{... */\n      jump\t// out\n    tag_79:\n      mload(0x40)\n      dup1\n      0x40\n      add\n      0x40\n      mstore\n      dup1\n      and(0xffffffffffffffffffffffffffffffffffffffff, 0x00)\n      dup2\n      mstore\n      0x20\n      add\n      0x00\n      dup2\n      mstore\n      pop\n      swap1\n      jump\t// out\n    tag_100:\n      mload(0x40)\n      dup1\n      0x40\n      add\n      0x40\n      mstore\n      dup1\n      0x60\n      dup2\n      mstore\n      0x20\n      add\n      iszero(iszero(0x00))\n      dup2\n      mstore\n      pop\n      swap1\n      jump\t// out\n        /* \"#utility.yul\":7:82   */\n    tag_130:\n        /* \"#utility.yul\":40:46   */\n      0x00\n        /* \"#utility.yul\":73:75   */\n      0x40\n        /* \"#utility.yul\":67:76   */\n      mload\n        /* \"#utility.yul\":57:76   */\n      swap1\n      pop\n        /* \"#utility.yul\":7:82   */\n      swap1\n      jump\t// out\n        /* \"#utility.yul\":88:205   */\n    tag_131:\n        /* \"#utility.yul\":197:198   */\n      0x00\n        /* \"#utility.yul\":194:195   */\n      dup1\n        /* \"#utility.yul\":187:199   */\n      revert\n        /* \"#utility.yul\":211:328   */\n    tag_132:\n        /* \"#utility.yul\":320:321   */\n      0x00\n        /* \"#utility.yul\":317:318   */\n      dup1\n        /* \"#utility.yul\":310:322   */\n      revert\n        /* \"#utility.yul\":334:411   */\n    tag_133:\n        /* \"#utility.yul\":371:378   */\n      0x00\n        /* \"#utility.yul\":400:405   */\n      dup2\n        /* \"#utility.yul\":389:405   */\n      swap1\n      pop\n        /* \"#utility.yul\":334:411   */\n      swap2\n      swap1\n      pop\n      jump\t// out\n        /* \"#utility.yul\":417:539   */\n    tag_134:\n        /* \"#utility.yul\":490:514   */\n      tag_188\n        /* \"#utility.yul\":508:513   */\n      dup2\n        /* \"#utility.yul\":490:514   */\n      tag_133\n      jump\t// in\n    tag_188:\n        /* \"#utility.yul\":483:488   */\n      dup2\n        /* \"#utility.yul\":480:515   */\n      eq\n        /* \"#utility.yul\":470:533   */\n      tag_189\n      jumpi\n        /* \"#utility.yul\":529:530   */\n      0x00\n        /* \"#utility.yul\":526:527   */\n      dup1\n        /* \"#utility.yul\":519:531   */\n      revert\n        /* \"#utility.yul\":470:533   */\n    tag_189:\n        /* \"#utility.yul\":417:539   */\n      pop\n      jump\t// out\n        /* \"#utility.yul\":545:684   */\n    tag_135:\n        /* \"#utility.yul\":591:596   */\n      0x00\n        /* \"#utility.yul\":629:635   */\n      dup2\n        /* \"#utility.yul\":616:636   */\n      calldataload\n        /* \"#utility.yul\":607:636   */\n      swap1\n      pop\n        /* \"#utility.yul\":645:678   */\n      tag_191\n        /* \"#utility.yul\":672:677   */\n      dup2\n        /* \"#utility.yul\":645:678   */\n      tag_134\n      jump\t// in\n    tag_191:\n        /* \"#utility.yul\":545:684   */\n      swap3\n      swap2\n      pop\n      pop\n      jump\t// out\n        /* \"#utility.yul\":690:1019   */\n    tag_18:\n        /* \"#utility.yul\":749:755   */\n      0x00\n        /* \"#utility.yul\":798:800   */\n      0x20\n        /* \"#utility.yul\":786:795   */\n      dup3\n        /* \"#utility.yul\":777:784   */\n      dup5\n        /* \"#utility.yul\":773:796   */\n      sub\n        /* \"#utility.yul\":769:801   */\n      slt\n        /* \"#utility.yul\":766:885   */\n      iszero\n      tag_193\n      jumpi\n        /* \"#utility.yul\":804:883   */\n      tag_194\n      tag_131\n      jump\t// in\n    tag_194:\n        /* \"#utility.yul\":766:885   */\n    tag_193:\n        /* \"#utility.yul\":924:925   */\n      0x00\n        /* \"#utility.yul\":949:1002   */\n      tag_195\n        /* \"#utility.yul\":994:1001   */\n      dup5\n        /* \"#utility.yul\":985:991   */\n      dup3\n        /* \"#utility.yul\":974:983   */\n      dup6\n        /* \"#utility.yul\":970:992   */\n      add\n        /* \"#utility.yul\":949:1002   */\n      tag_135\n      jump\t// in\n    tag_195:\n        /* \"#utility.yul\":939:1002   */\n      swap2\n      pop\n        /* \"#utility.yul\":895:1012   */\n      pop\n        /* \"#utility.yul\":690:1019   */\n      swap3\n      swap2\n      pop\n      pop\n      jump\t// out\n        /* \"#utility.yul\":1025:1115   */\n    tag_136:\n        /* \"#utility.yul\":1059:1066   */\n      0x00\n        /* \"#utility.yul\":1102:1107   */\n      dup2\n        /* \"#utility.yul\":1095:1108   */\n      iszero\n        /* \"#utility.yul\":1088:1109   */\n      iszero\n        /* \"#utility.yul\":1077:1109   */\n      swap1\n      pop\n        /* \"#utility.yul\":1025:1115   */\n      swap2\n      swap1\n      pop\n      jump\t// out\n        /* \"#utility.yul\":1121:1230   */\n    tag_137:\n        /* \"#utility.yul\":1202:1223   */\n      tag_198\n        /* \"#utility.yul\":1217:1222   */\n      dup2\n        /* \"#utility.yul\":1202:1223   */\n      tag_136\n      jump\t// in\n    tag_198:\n        /* \"#utility.yul\":1197:1200   */\n      dup3\n        /* \"#utility.yul\":1190:1224   */\n      mstore\n        /* \"#utility.yul\":1121:1230   */\n      pop\n      pop\n      jump\t// out\n        /* \"#utility.yul\":1236:1446   */\n    tag_21:\n        /* \"#utility.yul\":1323:1327   */\n      0x00\n        /* \"#utility.yul\":1361:1363   */\n      0x20\n        /* \"#utility.yul\":1350:1359   */\n      dup3\n        /* \"#utility.yul\":1346:1364   */\n      add\n        /* \"#utility.yul\":1338:1364   */\n      swap1\n      pop\n        /* \"#utility.yul\":1374:1439   */\n      tag_200\n        /* \"#utility.yul\":1436:1437   */\n      0x00\n        /* \"#utility.yul\":1425:1434   */\n      dup4\n        /* \"#utility.yul\":1421:1438   */\n      add\n        /* \"#utility.yul\":1412:1418   */\n      dup5\n        /* \"#utility.yul\":1374:1439   */\n      tag_137\n      jump\t// in\n    tag_200:\n        /* \"#utility.yul\":1236:1446   */\n      swap3\n      swap2\n      pop\n      pop\n      jump\t// out\n        /* \"#utility.yul\":1452:1578   */\n    tag_138:\n        /* \"#utility.yul\":1489:1496   */\n      0x00\n        /* \"#utility.yul\":1529:1571   */\n      0xffffffffffffffffffffffffffffffffffffffff\n        /* \"#utility.yul\":1522:1527   */\n      dup3\n        /* \"#utility.yul\":1518:1572   */\n      and\n        /* \"#utility.yul\":1507:1572   */\n      swap1\n      pop\n        /* \"#utility.yul\":1452:1578   */\n      swap2\n      swap1\n      pop\n      jump\t// out\n        /* \"#utility.yul\":1584:1680   */\n    tag_139:\n        /* \"#utility.yul\":1621:1628   */\n      0x00\n        /* \"#utility.yul\":1650:1674   */\n      tag_203\n        /* \"#utility.yul\":1668:1673   */\n      dup3\n        /* \"#utility.yul\":1650:1674   */\n      tag_138\n      jump\t// in\n    tag_203:\n        /* \"#utility.yul\":1639:1674   */\n      swap1\n      pop\n        /* \"#utility.yul\":1584:1680   */\n      swap2\n      swap1\n      pop\n      jump\t// out\n        /* \"#utility.yul\":1686:1808   */\n    tag_140:\n        /* \"#utility.yul\":1759:1783   */\n      tag_205\n        /* \"#utility.yul\":1777:1782   */\n      dup2\n        /* \"#utility.yul\":1759:1783   */\n      tag_139\n      jump\t// in\n    tag_205:\n        /* \"#utility.yul\":1752:1757   */\n      dup2\n        /* \"#utility.yul\":1749:1784   */\n      eq\n        /* \"#utility.yul\":1739:1802   */\n      tag_206\n      jumpi\n        /* \"#utility.yul\":1798:1799   */\n      0x00\n        /* \"#utility.yul\":1795:1796   */\n      dup1\n        /* \"#utility.yul\":1788:1800   */\n      revert\n        /* \"#utility.yul\":1739:1802   */\n    tag_206:\n        /* \"#utility.yul\":1686:1808   */\n      pop\n      jump\t// out\n        /* \"#utility.yul\":1814:1953   */\n    tag_141:\n        /* \"#utility.yul\":1860:1865   */\n      0x00\n        /* \"#utility.yul\":1898:1904   */\n      dup2\n        /* \"#utility.yul\":1885:1905   */\n      calldataload\n        /* \"#utility.yul\":1876:1905   */\n      swap1\n      pop\n        /* \"#utility.yul\":1914:1947   */\n      tag_208\n        /* \"#utility.yul\":1941:1946   */\n      dup2\n        /* \"#utility.yul\":1914:1947   */\n      tag_140\n      jump\t// in\n    tag_208:\n        /* \"#utility.yul\":1814:1953   */\n      swap3\n      swap2\n      pop\n      pop\n      jump\t// out\n        /* \"#utility.yul\":1959:2288   */\n    tag_24:\n        /* \"#utility.yul\":2018:2024   */\n      0x00\n        /* \"#utility.yul\":2067:2069   */\n      0x20\n        /* \"#utility.yul\":2055:2064   */\n      dup3\n        /* \"#utility.yul\":2046:2053   */\n      dup5\n        /* \"#utility.yul\":2042:2065   */\n      sub\n        /* \"#utility.yul\":2038:2070   */\n      slt\n        /* \"#utility.yul\":2035:2154   */\n      iszero\n      tag_210\n      jumpi\n        /* \"#utility.yul\":2073:2152   */\n      tag_211\n      tag_131\n      jump\t// in\n    tag_211:\n        /* \"#utility.yul\":2035:2154   */\n    tag_210:\n        /* \"#utility.yul\":2193:2194   */\n      0x00\n        /* \"#utility.yul\":2218:2271   */\n      tag_212\n        /* \"#utility.yul\":2263:2270   */\n      dup5\n        /* \"#utility.yul\":2254:2260   */\n      dup3\n        /* \"#utility.yul\":2243:2252   */\n      dup6\n        /* \"#utility.yul\":2239:2261   */\n      add\n        /* \"#utility.yul\":2218:2271   */\n      tag_141\n      jump\t// in\n    tag_212:\n        /* \"#utility.yul\":2208:2271   */\n      swap2\n      pop\n        /* \"#utility.yul\":2164:2281   */\n      pop\n        /* \"#utility.yul\":1959:2288   */\n      swap3\n      swap2\n      pop\n      pop\n      jump\t// out\n        /* \"#utility.yul\":2294:2393   */\n    tag_142:\n        /* \"#utility.yul\":2346:2352   */\n      0x00\n        /* \"#utility.yul\":2380:2385   */\n      dup2\n        /* \"#utility.yul\":2374:2386   */\n      mload\n        /* \"#utility.yul\":2364:2386   */\n      swap1\n      pop\n        /* \"#utility.yul\":2294:2393   */\n      swap2\n      swap1\n      pop\n      jump\t// out\n        /* \"#utility.yul\":2399:2568   */\n    tag_143:\n        /* \"#utility.yul\":2483:2494   */\n      0x00\n        /* \"#utility.yul\":2517:2523   */\n      dup3\n        /* \"#utility.yul\":2512:2515   */\n      dup3\n        /* \"#utility.yul\":2505:2524   */\n      mstore\n        /* \"#utility.yul\":2557:2561   */\n      0x20\n        /* \"#utility.yul\":2552:2555   */\n      dup3\n        /* \"#utility.yul\":2548:2562   */\n      add\n        /* \"#utility.yul\":2533:2562   */\n      swap1\n      pop\n        /* \"#utility.yul\":2399:2568   */\n      swap3\n      swap2\n      pop\n      pop\n      jump\t// out\n        /* \"#utility.yul\":2574:2713   */\n    tag_144:\n        /* \"#utility.yul\":2663:2669   */\n      dup3\n        /* \"#utility.yul\":2658:2661   */\n      dup2\n        /* \"#utility.yul\":2653:2656   */\n      dup4\n        /* \"#utility.yul\":2647:2670   */\n      mcopy\n        /* \"#utility.yul\":2704:2705   */\n      0x00\n        /* \"#utility.yul\":2695:2701   */\n      dup4\n        /* \"#utility.yul\":2690:2693   */\n      dup4\n        /* \"#utility.yul\":2686:2702   */\n      add\n        /* \"#utility.yul\":2679:2706   */\n      mstore\n        /* \"#utility.yul\":2574:2713   */\n      pop\n      pop\n      pop\n      jump\t// out\n        /* \"#utility.yul\":2719:2821   */\n    tag_145:\n        /* \"#utility.yul\":2760:2766   */\n      0x00\n        /* \"#utility.yul\":2811:2813   */\n      0x1f\n        /* \"#utility.yul\":2807:2814   */\n      not\n        /* \"#utility.yul\":2802:2804   */\n      0x1f\n        /* \"#utility.yul\":2795:2800   */\n      dup4\n        /* \"#utility.yul\":2791:2805   */\n      add\n        /* \"#utility.yul\":2787:2815   */\n      and\n        /* \"#utility.yul\":2777:2815   */\n      swap1\n      pop\n        /* \"#utility.yul\":2719:2821   */\n      swap2\n      swap1\n      pop\n      jump\t// out\n        /* \"#utility.yul\":2827:3204   */\n    tag_146:\n        /* \"#utility.yul\":2915:2918   */\n      0x00\n        /* \"#utility.yul\":2943:2982   */\n      tag_218\n        /* \"#utility.yul\":2976:2981   */\n      dup3\n        /* \"#utility.yul\":2943:2982   */\n      tag_142\n      jump\t// in\n    tag_218:\n        /* \"#utility.yul\":2998:3069   */\n      tag_219\n        /* \"#utility.yul\":3062:3068   */\n      dup2\n        /* \"#utility.yul\":3057:3060   */\n      dup6\n        /* \"#utility.yul\":2998:3069   */\n      tag_143\n      jump\t// in\n    tag_219:\n        /* \"#utility.yul\":2991:3069   */\n      swap4\n      pop\n        /* \"#utility.yul\":3078:3143   */\n      tag_220\n        /* \"#utility.yul\":3136:3142   */\n      dup2\n        /* \"#utility.yul\":3131:3134   */\n      dup6\n        /* \"#utility.yul\":3124:3128   */\n      0x20\n        /* \"#utility.yul\":3117:3122   */\n      dup7\n        /* \"#utility.yul\":3113:3129   */\n      add\n        /* \"#utility.yul\":3078:3143   */\n      tag_144\n      jump\t// in\n    tag_220:\n        /* \"#utility.yul\":3168:3197   */\n      tag_221\n        /* \"#utility.yul\":3190:3196   */\n      dup2\n        /* \"#utility.yul\":3168:3197   */\n      tag_145\n      jump\t// in\n    tag_221:\n        /* \"#utility.yul\":3163:3166   */\n      dup5\n        /* \"#utility.yul\":3159:3198   */\n      add\n        /* \"#utility.yul\":3152:3198   */\n      swap2\n      pop\n        /* \"#utility.yul\":2919:3204   */\n      pop\n        /* \"#utility.yul\":2827:3204   */\n      swap3\n      swap2\n      pop\n      pop\n      jump\t// out\n        /* \"#utility.yul\":3210:3621   */\n    tag_27:\n        /* \"#utility.yul\":3345:3349   */\n      0x00\n        /* \"#utility.yul\":3383:3385   */\n      0x40\n        /* \"#utility.yul\":3372:3381   */\n      dup3\n        /* \"#utility.yul\":3368:3386   */\n      add\n        /* \"#utility.yul\":3360:3386   */\n      swap1\n      pop\n        /* \"#utility.yul\":3432:3441   */\n      dup2\n        /* \"#utility.yul\":3426:3430   */\n      dup2\n        /* \"#utility.yul\":3422:3442   */\n      sub\n        /* \"#utility.yul\":3418:3419   */\n      0x00\n        /* \"#utility.yul\":3407:3416   */\n      dup4\n        /* \"#utility.yul\":3403:3420   */\n      add\n        /* \"#utility.yul\":3396:3443   */\n      mstore\n        /* \"#utility.yul\":3460:3538   */\n      tag_223\n        /* \"#utility.yul\":3533:3537   */\n      dup2\n        /* \"#utility.yul\":3524:3530   */\n      dup6\n        /* \"#utility.yul\":3460:3538   */\n      tag_146\n      jump\t// in\n    tag_223:\n        /* \"#utility.yul\":3452:3538   */\n      swap1\n      pop\n        /* \"#utility.yul\":3548:3614   */\n      tag_224\n        /* \"#utility.yul\":3610:3612   */\n      0x20\n        /* \"#utility.yul\":3599:3608   */\n      dup4\n        /* \"#utility.yul\":3595:3613   */\n      add\n        /* \"#utility.yul\":3586:3592   */\n      dup5\n        /* \"#utility.yul\":3548:3614   */\n      tag_137\n      jump\t// in\n    tag_224:\n        /* \"#utility.yul\":3210:3621   */\n      swap4\n      swap3\n      pop\n      pop\n      pop\n      jump\t// out\n        /* \"#utility.yul\":3627:3744   */\n    tag_147:\n        /* \"#utility.yul\":3736:3737   */\n      0x00\n        /* \"#utility.yul\":3733:3734   */\n      dup1\n        /* \"#utility.yul\":3726:3738   */\n      revert\n        /* \"#utility.yul\":3750:3867   */\n    tag_148:\n        /* \"#utility.yul\":3859:3860   */\n      0x00\n        /* \"#utility.yul\":3856:3857   */\n      dup1\n        /* \"#utility.yul\":3849:3861   */\n      revert\n        /* \"#utility.yul\":3873:4053   */\n    tag_149:\n        /* \"#utility.yul\":3921:3998   */\n      0x4e487b7100000000000000000000000000000000000000000000000000000000\n        /* \"#utility.yul\":3918:3919   */\n      0x00\n        /* \"#utility.yul\":3911:3999   */\n      mstore\n        /* \"#utility.yul\":4018:4022   */\n      0x41\n        /* \"#utility.yul\":4015:4016   */\n      0x04\n        /* \"#utility.yul\":4008:4023   */\n      mstore\n        /* \"#utility.yul\":4042:4046   */\n      0x24\n        /* \"#utility.yul\":4039:4040   */\n      0x00\n        /* \"#utility.yul\":4032:4047   */\n      revert\n        /* \"#utility.yul\":4059:4340   */\n    tag_150:\n        /* \"#utility.yul\":4142:4169   */\n      tag_229\n        /* \"#utility.yul\":4164:4168   */\n      dup3\n        /* \"#utility.yul\":4142:4169   */\n      tag_145\n      jump\t// in\n    tag_229:\n        /* \"#utility.yul\":4134:4140   */\n      dup2\n        /* \"#utility.yul\":4130:4170   */\n      add\n        /* \"#utility.yul\":4272:4278   */\n      dup2\n        /* \"#utility.yul\":4260:4270   */\n      dup2\n        /* \"#utility.yul\":4257:4279   */\n      lt\n        /* \"#utility.yul\":4236:4254   */\n      0xffffffffffffffff\n        /* \"#utility.yul\":4224:4234   */\n      dup3\n        /* \"#utility.yul\":4221:4255   */\n      gt\n        /* \"#utility.yul\":4218:4280   */\n      or\n        /* \"#utility.yul\":4215:4303   */\n      iszero\n      tag_230\n      jumpi\n        /* \"#utility.yul\":4283:4301   */\n      tag_231\n      tag_149\n      jump\t// in\n    tag_231:\n        /* \"#utility.yul\":4215:4303   */\n    tag_230:\n        /* \"#utility.yul\":4323:4333   */\n      dup1\n        /* \"#utility.yul\":4319:4321   */\n      0x40\n        /* \"#utility.yul\":4312:4334   */\n      mstore\n        /* \"#utility.yul\":4102:4340   */\n      pop\n        /* \"#utility.yul\":4059:4340   */\n      pop\n      pop\n      jump\t// out\n        /* \"#utility.yul\":4346:4475   */\n    tag_151:\n        /* \"#utility.yul\":4380:4386   */\n      0x00\n        /* \"#utility.yul\":4407:4427   */\n      tag_233\n      tag_130\n      jump\t// in\n    tag_233:\n        /* \"#utility.yul\":4397:4427   */\n      swap1\n      pop\n        /* \"#utility.yul\":4436:4469   */\n      tag_234\n        /* \"#utility.yul\":4464:4468   */\n      dup3\n        /* \"#utility.yul\":4456:4462   */\n      dup3\n        /* \"#utility.yul\":4436:4469   */\n      tag_150\n      jump\t// in\n    tag_234:\n        /* \"#utility.yul\":4346:4475   */\n      swap2\n      swap1\n      pop\n      jump\t// out\n        /* \"#utility.yul\":4481:4789   */\n    tag_152:\n        /* \"#utility.yul\":4543:4547   */\n      0x00\n        /* \"#utility.yul\":4633:4651   */\n      0xffffffffffffffff\n        /* \"#utility.yul\":4625:4631   */\n      dup3\n        /* \"#utility.yul\":4622:4652   */\n      gt\n        /* \"#utility.yul\":4619:4675   */\n      iszero\n      tag_236\n      jumpi\n        /* \"#utility.yul\":4655:4673   */\n      tag_237\n      tag_149\n      jump\t// in\n    tag_237:\n        /* \"#utility.yul\":4619:4675   */\n    tag_236:\n        /* \"#utility.yul\":4693:4722   */\n      tag_238\n        /* \"#utility.yul\":4715:4721   */\n      dup3\n        /* \"#utility.yul\":4693:4722   */\n      tag_145\n      jump\t// in\n    tag_238:\n        /* \"#utility.yul\":4685:4722   */\n      swap1\n      pop\n        /* \"#utility.yul\":4777:4781   */\n      0x20\n        /* \"#utility.yul\":4771:4775   */\n      dup2\n        /* \"#utility.yul\":4767:4782   */\n      add\n        /* \"#utility.yul\":4759:4782   */\n      swap1\n      pop\n        /* \"#utility.yul\":4481:4789   */\n      swap2\n      swap1\n      pop\n      jump\t// out\n        /* \"#utility.yul\":4795:4943   */\n    tag_153:\n        /* \"#utility.yul\":4893:4899   */\n      dup3\n        /* \"#utility.yul\":4888:4891   */\n      dup2\n        /* \"#utility.yul\":4883:4886   */\n      dup4\n        /* \"#utility.yul\":4870:4900   */\n      calldatacopy\n        /* \"#utility.yul\":4934:4935   */\n      0x00\n        /* \"#utility.yul\":4925:4931   */\n      dup4\n        /* \"#utility.yul\":4920:4923   */\n      dup4\n        /* \"#utility.yul\":4916:4932   */\n      add\n        /* \"#utility.yul\":4909:4936   */\n      mstore\n        /* \"#utility.yul\":4795:4943   */\n      pop\n      pop\n      pop\n      jump\t// out\n        /* \"#utility.yul\":4949:5374   */\n    tag_154:\n        /* \"#utility.yul\":5027:5032   */\n      0x00\n        /* \"#utility.yul\":5052:5118   */\n      tag_241\n        /* \"#utility.yul\":5068:5117   */\n      tag_242\n        /* \"#utility.yul\":5110:5116   */\n      dup5\n        /* \"#utility.yul\":5068:5117   */\n      tag_152\n      jump\t// in\n    tag_242:\n        /* \"#utility.yul\":5052:5118   */\n      tag_151\n      jump\t// in\n    tag_241:\n        /* \"#utility.yul\":5043:5118   */\n      swap1\n      pop\n        /* \"#utility.yul\":5141:5147   */\n      dup3\n        /* \"#utility.yul\":5134:5139   */\n      dup2\n        /* \"#utility.yul\":5127:5148   */\n      mstore\n        /* \"#utility.yul\":5179:5183   */\n      0x20\n        /* \"#utility.yul\":5172:5177   */\n      dup2\n        /* \"#utility.yul\":5168:5184   */\n      add\n        /* \"#utility.yul\":5217:5220   */\n      dup5\n        /* \"#utility.yul\":5208:5214   */\n      dup5\n        /* \"#utility.yul\":5203:5206   */\n      dup5\n        /* \"#utility.yul\":5199:5215   */\n      add\n        /* \"#utility.yul\":5196:5221   */\n      gt\n        /* \"#utility.yul\":5193:5305   */\n      iszero\n      tag_243\n      jumpi\n        /* \"#utility.yul\":5224:5303   */\n      tag_244\n      tag_148\n      jump\t// in\n    tag_244:\n        /* \"#utility.yul\":5193:5305   */\n    tag_243:\n        /* \"#utility.yul\":5314:5368   */\n      tag_245\n        /* \"#utility.yul\":5361:5367   */\n      dup5\n        /* \"#utility.yul\":5356:5359   */\n      dup3\n        /* \"#utility.yul\":5351:5354   */\n      dup6\n        /* \"#utility.yul\":5314:5368   */\n      tag_153\n      jump\t// in\n    tag_245:\n        /* \"#utility.yul\":5033:5374   */\n      pop\n        /* \"#utility.yul\":4949:5374   */\n      swap4\n      swap3\n      pop\n      pop\n      pop\n      jump\t// out\n        /* \"#utility.yul\":5394:5734   */\n    tag_155:\n        /* \"#utility.yul\":5450:5455   */\n      0x00\n        /* \"#utility.yul\":5499:5502   */\n      dup3\n        /* \"#utility.yul\":5492:5496   */\n      0x1f\n        /* \"#utility.yul\":5484:5490   */\n      dup4\n        /* \"#utility.yul\":5480:5497   */\n      add\n        /* \"#utility.yul\":5476:5503   */\n      slt\n        /* \"#utility.yul\":5466:5588   */\n      tag_247\n      jumpi\n        /* \"#utility.yul\":5507:5586   */\n      tag_248\n      tag_147\n      jump\t// in\n    tag_248:\n        /* \"#utility.yul\":5466:5588   */\n    tag_247:\n        /* \"#utility.yul\":5624:5630   */\n      dup2\n        /* \"#utility.yul\":5611:5631   */\n      calldataload\n        /* \"#utility.yul\":5649:5728   */\n      tag_249\n        /* \"#utility.yul\":5724:5727   */\n      dup5\n        /* \"#utility.yul\":5716:5722   */\n      dup3\n        /* \"#utility.yul\":5709:5713   */\n      0x20\n        /* \"#utility.yul\":5701:5707   */\n      dup7\n        /* \"#utility.yul\":5697:5714   */\n      add\n        /* \"#utility.yul\":5649:5728   */\n      tag_154\n      jump\t// in\n    tag_249:\n        /* \"#utility.yul\":5640:5728   */\n      swap2\n      pop\n        /* \"#utility.yul\":5456:5734   */\n      pop\n        /* \"#utility.yul\":5394:5734   */\n      swap3\n      swap2\n      pop\n      pop\n      jump\t// out\n        /* \"#utility.yul\":5740:6394   */\n    tag_30:\n        /* \"#utility.yul\":5818:5824   */\n      0x00\n        /* \"#utility.yul\":5826:5832   */\n      dup1\n        /* \"#utility.yul\":5875:5877   */\n      0x40\n        /* \"#utility.yul\":5863:5872   */\n      dup4\n        /* \"#utility.yul\":5854:5861   */\n      dup6\n        /* \"#utility.yul\":5850:5873   */\n      sub\n        /* \"#utility.yul\":5846:5878   */\n      slt\n        /* \"#utility.yul\":5843:5962   */\n      iszero\n      tag_251\n      jumpi\n        /* \"#utility.yul\":5881:5960   */\n      tag_252\n      tag_131\n      jump\t// in\n    tag_252:\n        /* \"#utility.yul\":5843:5962   */\n    tag_251:\n        /* \"#utility.yul\":6001:6002   */\n      0x00\n        /* \"#utility.yul\":6026:6079   */\n      tag_253\n        /* \"#utility.yul\":6071:6078   */\n      dup6\n        /* \"#utility.yul\":6062:6068   */\n      dup3\n        /* \"#utility.yul\":6051:6060   */\n      dup7\n        /* \"#utility.yul\":6047:6069   */\n      add\n        /* \"#utility.yul\":6026:6079   */\n      tag_141\n      jump\t// in\n    tag_253:\n        /* \"#utility.yul\":6016:6079   */\n      swap3\n      pop\n        /* \"#utility.yul\":5972:6089   */\n      pop\n        /* \"#utility.yul\":6156:6158   */\n      0x20\n        /* \"#utility.yul\":6145:6154   */\n      dup4\n        /* \"#utility.yul\":6141:6159   */\n      add\n        /* \"#utility.yul\":6128:6160   */\n      calldataload\n        /* \"#utility.yul\":6187:6205   */\n      0xffffffffffffffff\n        /* \"#utility.yul\":6179:6185   */\n      dup2\n        /* \"#utility.yul\":6176:6206   */\n      gt\n        /* \"#utility.yul\":6173:6290   */\n      iszero\n      tag_254\n      jumpi\n        /* \"#utility.yul\":6209:6288   */\n      tag_255\n      tag_132\n      jump\t// in\n    tag_255:\n        /* \"#utility.yul\":6173:6290   */\n    tag_254:\n        /* \"#utility.yul\":6314:6377   */\n      tag_256\n        /* \"#utility.yul\":6369:6376   */\n      dup6\n        /* \"#utility.yul\":6360:6366   */\n      dup3\n        /* \"#utility.yul\":6349:6358   */\n      dup7\n        /* \"#utility.yul\":6345:6367   */\n      add\n        /* \"#utility.yul\":6314:6377   */\n      tag_155\n      jump\t// in\n    tag_256:\n        /* \"#utility.yul\":6304:6377   */\n      swap2\n      pop\n        /* \"#utility.yul\":6099:6387   */\n      pop\n        /* \"#utility.yul\":5740:6394   */\n      swap3\n      pop\n      swap3\n      swap1\n      pop\n      jump\t// out\n        /* \"#utility.yul\":6400:6518   */\n    tag_156:\n        /* \"#utility.yul\":6487:6511   */\n      tag_258\n        /* \"#utility.yul\":6505:6510   */\n      dup2\n        /* \"#utility.yul\":6487:6511   */\n      tag_133\n      jump\t// in\n    tag_258:\n        /* \"#utility.yul\":6482:6485   */\n      dup3\n        /* \"#utility.yul\":6475:6512   */\n      mstore\n        /* \"#utility.yul\":6400:6518   */\n      pop\n      pop\n      jump\t// out\n        /* \"#utility.yul\":6524:6746   */\n    tag_33:\n        /* \"#utility.yul\":6617:6621   */\n      0x00\n        /* \"#utility.yul\":6655:6657   */\n      0x20\n        /* \"#utility.yul\":6644:6653   */\n      dup3\n        /* \"#utility.yul\":6640:6658   */\n      add\n        /* \"#utility.yul\":6632:6658   */\n      swap1\n      pop\n        /* \"#utility.yul\":6668:6739   */\n      tag_260\n        /* \"#utility.yul\":6736:6737   */\n      0x00\n        /* \"#utility.yul\":6725:6734   */\n      dup4\n        /* \"#utility.yul\":6721:6738   */\n      add\n        /* \"#utility.yul\":6712:6718   */\n      dup5\n        /* \"#utility.yul\":6668:6739   */\n      tag_156\n      jump\t// in\n    tag_260:\n        /* \"#utility.yul\":6524:6746   */\n      swap3\n      swap2\n      pop\n      pop\n      jump\t// out\n        /* \"#utility.yul\":6752:6870   */\n    tag_157:\n        /* \"#utility.yul\":6839:6863   */\n      tag_262\n        /* \"#utility.yul\":6857:6862   */\n      dup2\n        /* \"#utility.yul\":6839:6863   */\n      tag_139\n      jump\t// in\n    tag_262:\n        /* \"#utility.yul\":6834:6837   */\n      dup3\n        /* \"#utility.yul\":6827:6864   */\n      mstore\n        /* \"#utility.yul\":6752:6870   */\n      pop\n      pop\n      jump\t// out\n        /* \"#utility.yul\":6876:7098   */\n    tag_40:\n        /* \"#utility.yul\":6969:6973   */\n      0x00\n        /* \"#utility.yul\":7007:7009   */\n      0x20\n        /* \"#utility.yul\":6996:7005   */\n      dup3\n        /* \"#utility.yul\":6992:7010   */\n      add\n        /* \"#utility.yul\":6984:7010   */\n      swap1\n      pop\n        /* \"#utility.yul\":7020:7091   */\n      tag_264\n        /* \"#utility.yul\":7088:7089   */\n      0x00\n        /* \"#utility.yul\":7077:7086   */\n      dup4\n        /* \"#utility.yul\":7073:7090   */\n      add\n        /* \"#utility.yul\":7064:7070   */\n      dup5\n        /* \"#utility.yul\":7020:7091   */\n      tag_157\n      jump\t// in\n    tag_264:\n        /* \"#utility.yul\":6876:7098   */\n      swap3\n      swap2\n      pop\n      pop\n      jump\t// out\n        /* \"#utility.yul\":7104:7436   */\n    tag_45:\n        /* \"#utility.yul\":7225:7229   */\n      0x00\n        /* \"#utility.yul\":7263:7265   */\n      0x40\n        /* \"#utility.yul\":7252:7261   */\n      dup3\n        /* \"#utility.yul\":7248:7266   */\n      add\n        /* \"#utility.yul\":7240:7266   */\n      swap1\n      pop\n        /* \"#utility.yul\":7276:7347   */\n      tag_266\n        /* \"#utility.yul\":7344:7345   */\n      0x00\n        /* \"#utility.yul\":7333:7342   */\n      dup4\n        /* \"#utility.yul\":7329:7346   */\n      add\n        /* \"#utility.yul\":7320:7326   */\n      dup6\n        /* \"#utility.yul\":7276:7347   */\n      tag_157\n      jump\t// in\n    tag_266:\n        /* \"#utility.yul\":7357:7429   */\n      tag_267\n        /* \"#utility.yul\":7425:7427   */\n      0x20\n        /* \"#utility.yul\":7414:7423   */\n      dup4\n        /* \"#utility.yul\":7410:7428   */\n      add\n        /* \"#utility.yul\":7401:7407   */\n      dup5\n        /* \"#utility.yul\":7357:7429   */\n      tag_156\n      jump\t// in\n    tag_267:\n        /* \"#utility.yul\":7104:7436   */\n      swap4\n      swap3\n      pop\n      pop\n      pop\n      jump\t// out\n        /* \"#utility.yul\":7442:7951   */\n    tag_48:\n        /* \"#utility.yul\":7511:7517   */\n      0x00\n        /* \"#utility.yul\":7560:7562   */\n      0x20\n        /* \"#utility.yul\":7548:7557   */\n      dup3\n        /* \"#utility.yul\":7539:7546   */\n      dup5\n        /* \"#utility.yul\":7535:7558   */\n      sub\n        /* \"#utility.yul\":7531:7563   */\n      slt\n        /* \"#utility.yul\":7528:7647   */\n      iszero\n      tag_269\n      jumpi\n        /* \"#utility.yul\":7566:7645   */\n      tag_270\n      tag_131\n      jump\t// in\n    tag_270:\n        /* \"#utility.yul\":7528:7647   */\n    tag_269:\n        /* \"#utility.yul\":7714:7715   */\n      0x00\n        /* \"#utility.yul\":7703:7712   */\n      dup3\n        /* \"#utility.yul\":7699:7716   */\n      add\n        /* \"#utility.yul\":7686:7717   */\n      calldataload\n        /* \"#utility.yul\":7744:7762   */\n      0xffffffffffffffff\n        /* \"#utility.yul\":7736:7742   */\n      dup2\n        /* \"#utility.yul\":7733:7763   */\n      gt\n        /* \"#utility.yul\":7730:7847   */\n      iszero\n      tag_271\n      jumpi\n        /* \"#utility.yul\":7766:7845   */\n      tag_272\n      tag_132\n      jump\t// in\n    tag_272:\n        /* \"#utility.yul\":7730:7847   */\n    tag_271:\n        /* \"#utility.yul\":7871:7934   */\n      tag_273\n        /* \"#utility.yul\":7926:7933   */\n      dup5\n        /* \"#utility.yul\":7917:7923   */\n      dup3\n        /* \"#utility.yul\":7906:7915   */\n      dup6\n        /* \"#utility.yul\":7902:7924   */\n      add\n        /* \"#utility.yul\":7871:7934   */\n      tag_155\n      jump\t// in\n    tag_273:\n        /* \"#utility.yul\":7861:7934   */\n      swap2\n      pop\n        /* \"#utility.yul\":7657:7944   */\n      pop\n        /* \"#utility.yul\":7442:7951   */\n      swap3\n      swap2\n      pop\n      pop\n      jump\t// out\n        /* \"#utility.yul\":7957:8270   */\n    tag_61:\n        /* \"#utility.yul\":8070:8074   */\n      0x00\n        /* \"#utility.yul\":8108:8110   */\n      0x20\n        /* \"#utility.yul\":8097:8106   */\n      dup3\n        /* \"#utility.yul\":8093:8111   */\n      add\n        /* \"#utility.yul\":8085:8111   */\n      swap1\n      pop\n        /* \"#utility.yul\":8157:8166   */\n      dup2\n        /* \"#utility.yul\":8151:8155   */\n      dup2\n        /* \"#utility.yul\":8147:8167   */\n      sub\n        /* \"#utility.yul\":8143:8144   */\n      0x00\n        /* \"#utility.yul\":8132:8141   */\n      dup4\n        /* \"#utility.yul\":8128:8145   */\n      add\n        /* \"#utility.yul\":8121:8168   */\n      mstore\n        /* \"#utility.yul\":8185:8263   */\n      tag_275\n        /* \"#utility.yul\":8258:8262   */\n      dup2\n        /* \"#utility.yul\":8249:8255   */\n      dup5\n        /* \"#utility.yul\":8185:8263   */\n      tag_146\n      jump\t// in\n    tag_275:\n        /* \"#utility.yul\":8177:8263   */\n      swap1\n      pop\n        /* \"#utility.yul\":7957:8270   */\n      swap3\n      swap2\n      pop\n      pop\n      jump\t// out\n        /* \"#utility.yul\":8276:8498   */\n    tag_158:\n        /* \"#utility.yul\":8416:8450   */\n      0x43616e20766f7465206f6e6c79207768696c6520766f74696e67206973206f70\n        /* \"#utility.yul\":8412:8413   */\n      0x00\n        /* \"#utility.yul\":8404:8410   */\n      dup3\n        /* \"#utility.yul\":8400:8414   */\n      add\n        /* \"#utility.yul\":8393:8451   */\n      mstore\n        /* \"#utility.yul\":8485:8490   */\n      0x656e2e0000000000000000000000000000000000000000000000000000000000\n        /* \"#utility.yul\":8480:8482   */\n      0x20\n        /* \"#utility.yul\":8472:8478   */\n      dup3\n        /* \"#utility.yul\":8468:8483   */\n      add\n        /* \"#utility.yul\":8461:8491   */\n      mstore\n        /* \"#utility.yul\":8276:8498   */\n      pop\n      jump\t// out\n        /* \"#utility.yul\":8504:8870   */\n    tag_159:\n        /* \"#utility.yul\":8646:8649   */\n      0x00\n        /* \"#utility.yul\":8667:8734   */\n      tag_278\n        /* \"#utility.yul\":8731:8733   */\n      0x23\n        /* \"#utility.yul\":8726:8729   */\n      dup4\n        /* \"#utility.yul\":8667:8734   */\n      tag_143\n      jump\t// in\n    tag_278:\n        /* \"#utility.yul\":8660:8734   */\n      swap2\n      pop\n        /* \"#utility.yul\":8743:8836   */\n      tag_279\n        /* \"#utility.yul\":8832:8835   */\n      dup3\n        /* \"#utility.yul\":8743:8836   */\n      tag_158\n      jump\t// in\n    tag_279:\n        /* \"#utility.yul\":8861:8863   */\n      0x40\n        /* \"#utility.yul\":8856:8859   */\n      dup3\n        /* \"#utility.yul\":8852:8864   */\n      add\n        /* \"#utility.yul\":8845:8864   */\n      swap1\n      pop\n        /* \"#utility.yul\":8504:8870   */\n      swap2\n      swap1\n      pop\n      jump\t// out\n        /* \"#utility.yul\":8876:9295   */\n    tag_71:\n        /* \"#utility.yul\":9042:9046   */\n      0x00\n        /* \"#utility.yul\":9080:9082   */\n      0x20\n        /* \"#utility.yul\":9069:9078   */\n      dup3\n        /* \"#utility.yul\":9065:9083   */\n      add\n        /* \"#utility.yul\":9057:9083   */\n      swap1\n      pop\n        /* \"#utility.yul\":9129:9138   */\n      dup2\n        /* \"#utility.yul\":9123:9127   */\n      dup2\n        /* \"#utility.yul\":9119:9139   */\n      sub\n        /* \"#utility.yul\":9115:9116   */\n      0x00\n        /* \"#utility.yul\":9104:9113   */\n      dup4\n        /* \"#utility.yul\":9100:9117   */\n      add\n        /* \"#utility.yul\":9093:9140   */\n      mstore\n        /* \"#utility.yul\":9157:9288   */\n      tag_281\n        /* \"#utility.yul\":9283:9287   */\n      dup2\n        /* \"#utility.yul\":9157:9288   */\n      tag_159\n      jump\t// in\n    tag_281:\n        /* \"#utility.yul\":9149:9288   */\n      swap1\n      pop\n        /* \"#utility.yul\":8876:9295   */\n      swap2\n      swap1\n      pop\n      jump\t// out\n        /* \"#utility.yul\":9301:9481   */\n    tag_160:\n        /* \"#utility.yul\":9349:9426   */\n      0x4e487b7100000000000000000000000000000000000000000000000000000000\n        /* \"#utility.yul\":9346:9347   */\n      0x00\n        /* \"#utility.yul\":9339:9427   */\n      mstore\n        /* \"#utility.yul\":9446:9450   */\n      0x22\n        /* \"#utility.yul\":9443:9444   */\n      0x04\n        /* \"#utility.yul\":9436:9451   */\n      mstore\n        /* \"#utility.yul\":9470:9474   */\n      0x24\n        /* \"#utility.yul\":9467:9468   */\n      0x00\n        /* \"#utility.yul\":9460:9475   */\n      revert\n        /* \"#utility.yul\":9487:9807   */\n    tag_74:\n        /* \"#utility.yul\":9531:9537   */\n      0x00\n        /* \"#utility.yul\":9568:9569   */\n      0x02\n        /* \"#utility.yul\":9562:9566   */\n      dup3\n        /* \"#utility.yul\":9558:9570   */\n      div\n        /* \"#utility.yul\":9548:9570   */\n      swap1\n      pop\n        /* \"#utility.yul\":9615:9616   */\n      0x01\n        /* \"#utility.yul\":9609:9613   */\n      dup3\n        /* \"#utility.yul\":9605:9617   */\n      and\n        /* \"#utility.yul\":9636:9654   */\n      dup1\n        /* \"#utility.yul\":9626:9707   */\n      tag_284\n      jumpi\n        /* \"#utility.yul\":9692:9696   */\n      0x7f\n        /* \"#utility.yul\":9684:9690   */\n      dup3\n        /* \"#utility.yul\":9680:9697   */\n      and\n        /* \"#utility.yul\":9670:9697   */\n      swap2\n      pop\n        /* \"#utility.yul\":9626:9707   */\n    tag_284:\n        /* \"#utility.yul\":9754:9756   */\n      0x20\n        /* \"#utility.yul\":9746:9752   */\n      dup3\n        /* \"#utility.yul\":9743:9757   */\n      lt\n        /* \"#utility.yul\":9723:9741   */\n      dup2\n        /* \"#utility.yul\":9720:9758   */\n      sub\n        /* \"#utility.yul\":9717:9801   */\n      tag_285\n      jumpi\n        /* \"#utility.yul\":9773:9791   */\n      tag_286\n      tag_160\n      jump\t// in\n    tag_286:\n        /* \"#utility.yul\":9717:9801   */\n    tag_285:\n        /* \"#utility.yul\":9538:9807   */\n      pop\n        /* \"#utility.yul\":9487:9807   */\n      swap2\n      swap1\n      pop\n      jump\t// out\n        /* \"#utility.yul\":9813:9993   */\n    tag_161:\n        /* \"#utility.yul\":9861:9938   */\n      0x4e487b7100000000000000000000000000000000000000000000000000000000\n        /* \"#utility.yul\":9858:9859   */\n      0x00\n        /* \"#utility.yul\":9851:9939   */\n      mstore\n        /* \"#utility.yul\":9958:9962   */\n      0x11\n        /* \"#utility.yul\":9955:9956   */\n      0x04\n        /* \"#utility.yul\":9948:9963   */\n      mstore\n        /* \"#utility.yul\":9982:9986   */\n      0x24\n        /* \"#utility.yul\":9979:9980   */\n      0x00\n        /* \"#utility.yul\":9972:9987   */\n      revert\n        /* \"#utility.yul\":9999:10232   */\n    tag_81:\n        /* \"#utility.yul\":10038:10041   */\n      0x00\n        /* \"#utility.yul\":10061:10085   */\n      tag_289\n        /* \"#utility.yul\":10079:10084   */\n      dup3\n        /* \"#utility.yul\":10061:10085   */\n      tag_133\n      jump\t// in\n    tag_289:\n        /* \"#utility.yul\":10052:10085   */\n      swap2\n      pop\n        /* \"#utility.yul\":10107:10173   */\n      0xffffffffffffffffffffffffffffffffffffffffffffffffffffffffffffffff\n        /* \"#utility.yul\":10100:10105   */\n      dup3\n        /* \"#utility.yul\":10097:10174   */\n      sub\n        /* \"#utility.yul\":10094:10197   */\n      tag_290\n      jumpi\n        /* \"#utility.yul\":10177:10195   */\n      tag_291\n      tag_161\n      jump\t// in\n    tag_291:\n        /* \"#utility.yul\":10094:10197   */\n    tag_290:\n        /* \"#utility.yul\":10224:10225   */\n      0x01\n        /* \"#utility.yul\":10217:10222   */\n      dup3\n        /* \"#utility.yul\":10213:10226   */\n      add\n        /* \"#utility.yul\":10206:10226   */\n      swap1\n      pop\n        /* \"#utility.yul\":9999:10232   */\n      swap2\n      swap1\n      pop\n      jump\t// out\n        /* \"#utility.yul\":10238:10418   */\n    tag_162:\n        /* \"#utility.yul\":10286:10363   */\n      0x4e487b7100000000000000000000000000000000000000000000000000000000\n        /* \"#utility.yul\":10283:10284   */\n      0x00\n        /* \"#utility.yul\":10276:10364   */\n      mstore\n        /* \"#utility.yul\":10383:10387   */\n      0x12\n        /* \"#utility.yul\":10380:10381   */\n      0x04\n        /* \"#utility.yul\":10373:10388   */\n      mstore\n        /* \"#utility.yul\":10407:10411   */\n      0x24\n        /* \"#utility.yul\":10404:10405   */\n      0x00\n        /* \"#utility.yul\":10397:10412   */\n      revert\n        /* \"#utility.yul\":10424:10609   */\n    tag_83:\n        /* \"#utility.yul\":10464:10465   */\n      0x00\n        /* \"#utility.yul\":10481:10501   */\n      tag_294\n        /* \"#utility.yul\":10499:10500   */\n      dup3\n        /* \"#utility.yul\":10481:10501   */\n      tag_133\n      jump\t// in\n    tag_294:\n        /* \"#utility.yul\":10476:10501   */\n      swap2\n      pop\n        /* \"#utility.yul\":10515:10535   */\n      tag_295\n        /* \"#utility.yul\":10533:10534   */\n      dup4\n        /* \"#utility.yul\":10515:10535   */\n      tag_133\n      jump\t// in\n    tag_295:\n        /* \"#utility.yul\":10510:10535   */\n      swap3\n      pop\n        /* \"#utility.yul\":10554:10555   */\n      dup3\n        /* \"#utility.yul\":10544:10579   */\n      tag_296\n      jumpi\n        /* \"#utility.yul\":10559:10577   */\n      tag_297\n      tag_162\n      jump\t// in\n    tag_297:\n        /* \"#utility.yul\":10544:10579   */\n    tag_296:\n        /* \"#utility.yul\":10601:10602   */\n      dup3\n        /* \"#utility.yul\":10598:10599   */\n      dup3\n        /* \"#utility.yul\":10594:10603   */\n      div\n        /* \"#utility.yul\":10589:10603   */\n      swap1\n      pop\n        /* \"#utility.yul\":10424:10609   */\n      swap3\n      swap2\n      pop\n      pop\n      jump\t// out\n        /* \"#utility.yul\":10615:10806   */\n    tag_85:\n        /* \"#utility.yul\":10655:10658   */\n      0x00\n        /* \"#utility.yul\":10674:10694   */\n      tag_299\n        /* \"#utility.yul\":10692:10693   */\n      dup3\n        /* \"#utility.yul\":10674:10694   */\n      tag_133\n      jump\t// in\n    tag_299:\n        /* \"#utility.yul\":10669:10694   */\n      swap2\n      pop\n        /* \"#utility.yul\":10708:10728   */\n      tag_300\n        /* \"#utility.yul\":10726:10727   */\n      dup4\n        /* \"#utility.yul\":10708:10728   */\n      tag_133\n      jump\t// in\n    tag_300:\n        /* \"#utility.yul\":10703:10728   */\n      swap3\n      pop\n        /* \"#utility.yul\":10751:10752   */\n      dup3\n        /* \"#utility.yul\":10748:10749   */\n      dup3\n        /* \"#utility.yul\":10744:10753   */\n      add\n        /* \"#utility.yul\":10737:10753   */\n      swap1\n      pop\n        /* \"#utility.yul\":10772:10775   */\n      dup1\n        /* \"#utility.yul\":10769:10770   */\n      dup3\n        /* \"#utility.yul\":10766:10776   */\n      gt\n        /* \"#utility.yul\":10763:10799   */\n      iszero\n      tag_301\n      jumpi\n        /* \"#utility.yul\":10779:10797   */\n      tag_302\n      tag_161\n      jump\t// in\n    tag_302:\n        /* \"#utility.yul\":10763:10799   */\n    tag_301:\n        /* \"#utility.yul\":10615:10806   */\n      swap3\n      swap2\n      pop\n      pop\n      jump\t// out\n        /* \"#utility.yul\":10812:11034   */\n    tag_163:\n        /* \"#utility.yul\":10952:10986   */\n      0x43616e206f6e6c7920626520657865637574656420627920746865206d616e61\n        /* \"#utility.yul\":10948:10949   */\n      0x00\n        /* \"#utility.yul\":10940:10946   */\n      dup3\n        /* \"#utility.yul\":10936:10950   */\n      add\n        /* \"#utility.yul\":10929:10987   */\n      mstore\n        /* \"#utility.yul\":11021:11026   */\n      0x6765720000000000000000000000000000000000000000000000000000000000\n        /* \"#utility.yul\":11016:11018   */\n      0x20\n        /* \"#utility.yul\":11008:11014   */\n      dup3\n        /* \"#utility.yul\":11004:11019   */\n      add\n        /* \"#utility.yul\":10997:11027   */\n      mstore\n        /* \"#utility.yul\":10812:11034   */\n      pop\n      jump\t// out\n        /* \"#utility.yul\":11040:11406   */\n    tag_164:\n        /* \"#utility.yul\":11182:11185   */\n      0x00\n        /* \"#utility.yul\":11203:11270   */\n      tag_305\n        /* \"#utility.yul\":11267:11269   */\n      0x23\n        /* \"#utility.yul\":11262:11265   */\n      dup4\n        /* \"#utility.yul\":11203:11270   */\n      tag_143\n      jump\t// in\n    tag_305:\n        /* \"#utility.yul\":11196:11270   */\n      swap2\n      pop\n        /* \"#utility.yul\":11279:11372   */\n      tag_306\n        /* \"#utility.yul\":11368:11371   */\n      dup3\n        /* \"#utility.yul\":11279:11372   */\n      tag_163\n      jump\t// in\n    tag_306:\n        /* \"#utility.yul\":11397:11399   */\n      0x40\n        /* \"#utility.yul\":11392:11395   */\n      dup3\n        /* \"#utility.yul\":11388:11400   */\n      add\n        /* \"#utility.yul\":11381:11400   */\n      swap1\n      pop\n        /* \"#utility.yul\":11040:11406   */\n      swap2\n      swap1\n      pop\n      jump\t// out\n        /* \"#utility.yul\":11412:11831   */\n    tag_97:\n        /* \"#utility.yul\":11578:11582   */\n      0x00\n        /* \"#utility.yul\":11616:11618   */\n      0x20\n        /* \"#utility.yul\":11605:11614   */\n      dup3\n        /* \"#utility.yul\":11601:11619   */\n      add\n        /* \"#utility.yul\":11593:11619   */\n      swap1\n      pop\n        /* \"#utility.yul\":11665:11674   */\n      dup2\n        /* \"#utility.yul\":11659:11663   */\n      dup2\n        /* \"#utility.yul\":11655:11675   */\n      sub\n        /* \"#utility.yul\":11651:11652   */\n      0x00\n        /* \"#utility.yul\":11640:11649   */\n      dup4\n        /* \"#utility.yul\":11636:11653   */\n      add\n        /* \"#utility.yul\":11629:11676   */\n      mstore\n        /* \"#utility.yul\":11693:11824   */\n      tag_308\n        /* \"#utility.yul\":11819:11823   */\n      dup2\n        /* \"#utility.yul\":11693:11824   */\n      tag_164\n      jump\t// in\n    tag_308:\n        /* \"#utility.yul\":11685:11824   */\n      swap1\n      pop\n        /* \"#utility.yul\":11412:11831   */\n      swap2\n      swap1\n      pop\n      jump\t// out\n        /* \"#utility.yul\":11837:11978   */\n    tag_165:\n        /* \"#utility.yul\":11886:11890   */\n      0x00\n        /* \"#utility.yul\":11909:11912   */\n      dup2\n        /* \"#utility.yul\":11901:11912   */\n      swap1\n      pop\n        /* \"#utility.yul\":11932:11935   */\n      dup2\n        /* \"#utility.yul\":11929:11930   */\n      0x00\n        /* \"#utility.yul\":11922:11936   */\n      mstore\n        /* \"#utility.yul\":11966:11970   */\n      0x20\n        /* \"#utility.yul\":11963:11964   */\n      0x00\n        /* \"#utility.yul\":11953:11971   */\n      keccak256\n        /* \"#utility.yul\":11945:11971   */\n      swap1\n      pop\n        /* \"#utility.yul\":11837:11978   */\n      swap2\n      swap1\n      pop\n      jump\t// out\n        /* \"#utility.yul\":11984:12077   */\n    tag_166:\n        /* \"#utility.yul\":12021:12027   */\n      0x00\n        /* \"#utility.yul\":12068:12070   */\n      0x20\n        /* \"#utility.yul\":12063:12065   */\n      0x1f\n        /* \"#utility.yul\":12056:12061   */\n      dup4\n        /* \"#utility.yul\":12052:12066   */\n      add\n        /* \"#utility.yul\":12048:12071   */\n      div\n        /* \"#utility.yul\":12038:12071   */\n      swap1\n      pop\n        /* \"#utility.yul\":11984:12077   */\n      swap2\n      swap1\n      pop\n      jump\t// out\n        /* \"#utility.yul\":12083:12190   */\n    tag_167:\n        /* \"#utility.yul\":12127:12135   */\n      0x00\n        /* \"#utility.yul\":12177:12182   */\n      dup3\n        /* \"#utility.yul\":12171:12175   */\n      dup3\n        /* \"#utility.yul\":12167:12183   */\n      shl\n        /* \"#utility.yul\":12146:12183   */\n      swap1\n      pop\n        /* \"#utility.yul\":12083:12190   */\n      swap3\n      swap2\n      pop\n      pop\n      jump\t// out\n        /* \"#utility.yul\":12196:12589   */\n    tag_168:\n        /* \"#utility.yul\":12265:12271   */\n      0x00\n        /* \"#utility.yul\":12315:12316   */\n      0x08\n        /* \"#utility.yul\":12303:12313   */\n      dup4\n        /* \"#utility.yul\":12299:12317   */\n      mul\n        /* \"#utility.yul\":12338:12435   */\n      tag_313\n        /* \"#utility.yul\":12368:12434   */\n      0xffffffffffffffffffffffffffffffffffffffffffffffffffffffffffffffff\n        /* \"#utility.yul\":12357:12366   */\n      dup3\n        /* \"#utility.yul\":12338:12435   */\n      tag_167\n      jump\t// in\n    tag_313:\n        /* \"#utility.yul\":12456:12495   */\n      tag_314\n        /* \"#utility.yul\":12486:12494   */\n      dup7\n        /* \"#utility.yul\":12475:12484   */\n      dup4\n        /* \"#utility.yul\":12456:12495   */\n      tag_167\n      jump\t// in\n    tag_314:\n        /* \"#utility.yul\":12444:12495   */\n      swap6\n      pop\n        /* \"#utility.yul\":12528:12532   */\n      dup1\n        /* \"#utility.yul\":12524:12533   */\n      not\n        /* \"#utility.yul\":12517:12522   */\n      dup5\n        /* \"#utility.yul\":12513:12534   */\n      and\n        /* \"#utility.yul\":12504:12534   */\n      swap4\n      pop\n        /* \"#utility.yul\":12577:12581   */\n      dup1\n        /* \"#utility.yul\":12567:12575   */\n      dup7\n        /* \"#utility.yul\":12563:12582   */\n      and\n        /* \"#utility.yul\":12556:12561   */\n      dup5\n        /* \"#utility.yul\":12553:12583   */\n      or\n        /* \"#utility.yul\":12543:12583   */\n      swap3\n      pop\n        /* \"#utility.yul\":12272:12589   */\n      pop\n      pop\n        /* \"#utility.yul\":12196:12589   */\n      swap4\n      swap3\n      pop\n      pop\n      pop\n      jump\t// out\n        /* \"#utility.yul\":12595:12655   */\n    tag_169:\n        /* \"#utility.yul\":12623:12626   */\n      0x00\n        /* \"#utility.yul\":12644:12649   */\n      dup2\n        /* \"#utility.yul\":12637:12649   */\n      swap1\n      pop\n        /* \"#utility.yul\":12595:12655   */\n      swap2\n      swap1\n      pop\n      jump\t// out\n        /* \"#utility.yul\":12661:12803   */\n    tag_170:\n        /* \"#utility.yul\":12711:12720   */\n      0x00\n        /* \"#utility.yul\":12744:12797   */\n      tag_317\n        /* \"#utility.yul\":12762:12796   */\n      tag_318\n        /* \"#utility.yul\":12771:12795   */\n      tag_319\n        /* \"#utility.yul\":12789:12794   */\n      dup5\n        /* \"#utility.yul\":12771:12795   */\n      tag_133\n      jump\t// in\n    tag_319:\n        /* \"#utility.yul\":12762:12796   */\n      tag_169\n      jump\t// in\n    tag_318:\n        /* \"#utility.yul\":12744:12797   */\n      tag_133\n      jump\t// in\n    tag_317:\n        /* \"#utility.yul\":12731:12797   */\n      swap1\n      pop\n        /* \"#utility.yul\":12661:12803   */\n      swap2\n      swap1\n      pop\n      jump\t// out\n        /* \"#utility.yul\":12809:12884   */\n    tag_171:\n        /* \"#utility.yul\":12852:12855   */\n      0x00\n        /* \"#utility.yul\":12873:12878   */\n      dup2\n        /* \"#utility.yul\":12866:12878   */\n      swap1\n      pop\n        /* \"#utility.yul\":12809:12884   */\n      swap2\n      swap1\n      pop\n      jump\t// out\n        /* \"#utility.yul\":12890:13159   */\n    tag_172:\n        /* \"#utility.yul\":13000:13039   */\n      tag_322\n        /* \"#utility.yul\":13031:13038   */\n      dup4\n        /* \"#utility.yul\":13000:13039   */\n      tag_170\n      jump\t// in\n    tag_322:\n        /* \"#utility.yul\":13061:13152   */\n      tag_323\n        /* \"#utility.yul\":13110:13151   */\n      tag_324\n        /* \"#utility.yul\":13134:13150   */\n      dup3\n        /* \"#utility.yul\":13110:13151   */\n      tag_171\n      jump\t// in\n    tag_324:\n        /* \"#utility.yul\":13102:13108   */\n      dup5\n        /* \"#utility.yul\":13095:13099   */\n      dup5\n        /* \"#utility.yul\":13089:13100   */\n      sload\n        /* \"#utility.yul\":13061:13152   */\n      tag_168\n      jump\t// in\n    tag_323:\n        /* \"#utility.yul\":13055:13059   */\n      dup3\n        /* \"#utility.yul\":13048:13153   */\n      sstore\n        /* \"#utility.yul\":12966:13159   */\n      pop\n        /* \"#utility.yul\":12890:13159   */\n      pop\n      pop\n      pop\n      jump\t// out\n        /* \"#utility.yul\":13165:13238   */\n    tag_173:\n        /* \"#utility.yul\":13210:13213   */\n      0x00\n        /* \"#utility.yul\":13165:13238   */\n      swap1\n      jump\t// out\n        /* \"#utility.yul\":13244:13433   */\n    tag_174:\n        /* \"#utility.yul\":13321:13353   */\n      tag_327\n      tag_173\n      jump\t// in\n    tag_327:\n        /* \"#utility.yul\":13362:13427   */\n      tag_328\n        /* \"#utility.yul\":13420:13426   */\n      dup2\n        /* \"#utility.yul\":13412:13418   */\n      dup5\n        /* \"#utility.yul\":13406:13410   */\n      dup5\n        /* \"#utility.yul\":13362:13427   */\n      tag_172\n      jump\t// in\n    tag_328:\n        /* \"#utility.yul\":13297:13433   */\n      pop\n        /* \"#utility.yul\":13244:13433   */\n      pop\n      pop\n      jump\t// out\n        /* \"#utility.yul\":13439:13625   */\n    tag_175:\n        /* \"#utility.yul\":13499:13619   */\n    tag_330:\n        /* \"#utility.yul\":13516:13519   */\n      dup2\n        /* \"#utility.yul\":13509:13514   */\n      dup2\n        /* \"#utility.yul\":13506:13520   */\n      lt\n        /* \"#utility.yul\":13499:13619   */\n      iszero\n      tag_332\n      jumpi\n        /* \"#utility.yul\":13570:13609   */\n      tag_333\n        /* \"#utility.yul\":13607:13608   */\n      0x00\n        /* \"#utility.yul\":13600:13605   */\n      dup3\n        /* \"#utility.yul\":13570:13609   */\n      tag_174\n      jump\t// in\n    tag_333:\n        /* \"#utility.yul\":13543:13544   */\n      0x01\n        /* \"#utility.yul\":13536:13541   */\n      dup2\n        /* \"#utility.yul\":13532:13545   */\n      add\n        /* \"#utility.yul\":13523:13545   */\n      swap1\n      pop\n        /* \"#utility.yul\":13499:13619   */\n      jump(tag_330)\n    tag_332:\n        /* \"#utility.yul\":13439:13625   */\n      pop\n      pop\n      jump\t// out\n        /* \"#utility.yul\":13631:14174   */\n    tag_176:\n        /* \"#utility.yul\":13732:13734   */\n      0x1f\n        /* \"#utility.yul\":13727:13730   */\n      dup3\n        /* \"#utility.yul\":13724:13735   */\n      gt\n        /* \"#utility.yul\":13721:14167   */\n      iszero\n      tag_335\n      jumpi\n        /* \"#utility.yul\":13766:13804   */\n      tag_336\n        /* \"#utility.yul\":13798:13803   */\n      dup2\n        /* \"#utility.yul\":13766:13804   */\n      tag_165\n      jump\t// in\n    tag_336:\n        /* \"#utility.yul\":13850:13879   */\n      tag_337\n        /* \"#utility.yul\":13868:13878   */\n      dup5\n        /* \"#utility.yul\":13850:13879   */\n      tag_166\n      jump\t// in\n    tag_337:\n        /* \"#utility.yul\":13840:13848   */\n      dup2\n        /* \"#utility.yul\":13836:13880   */\n      add\n        /* \"#utility.yul\":14033:14035   */\n      0x20\n        /* \"#utility.yul\":14021:14031   */\n      dup6\n        /* \"#utility.yul\":14018:14036   */\n      lt\n        /* \"#utility.yul\":14015:14064   */\n      iszero\n      tag_338\n      jumpi\n        /* \"#utility.yul\":14054:14062   */\n      dup2\n        /* \"#utility.yul\":14039:14062   */\n      swap1\n      pop\n        /* \"#utility.yul\":14015:14064   */\n    tag_338:\n        /* \"#utility.yul\":14077:14157   */\n      tag_339\n        /* \"#utility.yul\":14133:14155   */\n      tag_340\n        /* \"#utility.yul\":14151:14154   */\n      dup6\n        /* \"#utility.yul\":14133:14155   */\n      tag_166\n      jump\t// in\n    tag_340:\n        /* \"#utility.yul\":14123:14131   */\n      dup4\n        /* \"#utility.yul\":14119:14156   */\n      add\n        /* \"#utility.yul\":14106:14117   */\n      dup3\n        /* \"#utility.yul\":14077:14157   */\n      tag_175\n      jump\t// in\n    tag_339:\n        /* \"#utility.yul\":13736:14167   */\n      pop\n      pop\n        /* \"#utility.yul\":13721:14167   */\n    tag_335:\n        /* \"#utility.yul\":13631:14174   */\n      pop\n      pop\n      pop\n      jump\t// out\n        /* \"#utility.yul\":14180:14297   */\n    tag_177:\n        /* \"#utility.yul\":14234:14242   */\n      0x00\n        /* \"#utility.yul\":14284:14289   */\n      dup3\n        /* \"#utility.yul\":14278:14282   */\n      dup3\n        /* \"#utility.yul\":14274:14290   */\n      shr\n        /* \"#utility.yul\":14253:14290   */\n      swap1\n      pop\n        /* \"#utility.yul\":14180:14297   */\n      swap3\n      swap2\n      pop\n      pop\n      jump\t// out\n        /* \"#utility.yul\":14303:14472   */\n    tag_178:\n        /* \"#utility.yul\":14347:14353   */\n      0x00\n        /* \"#utility.yul\":14380:14431   */\n      tag_343\n        /* \"#utility.yul\":14428:14429   */\n      0x00\n        /* \"#utility.yul\":14424:14430   */\n      not\n        /* \"#utility.yul\":14416:14421   */\n      dup5\n        /* \"#utility.yul\":14413:14414   */\n      0x08\n        /* \"#utility.yul\":14409:14422   */\n      mul\n        /* \"#utility.yul\":14380:14431   */\n      tag_177\n      jump\t// in\n    tag_343:\n        /* \"#utility.yul\":14376:14432   */\n      not\n        /* \"#utility.yul\":14461:14465   */\n      dup1\n        /* \"#utility.yul\":14455:14459   */\n      dup4\n        /* \"#utility.yul\":14451:14466   */\n      and\n        /* \"#utility.yul\":14441:14466   */\n      swap2\n      pop\n        /* \"#utility.yul\":14354:14472   */\n      pop\n        /* \"#utility.yul\":14303:14472   */\n      swap3\n      swap2\n      pop\n      pop\n      jump\t// out\n        /* \"#utility.yul\":14477:14772   */\n    tag_179:\n        /* \"#utility.yul\":14553:14557   */\n      0x00\n        /* \"#utility.yul\":14699:14728   */\n      tag_345\n        /* \"#utility.yul\":14724:14727   */\n      dup4\n        /* \"#utility.yul\":14718:14722   */\n      dup4\n        /* \"#utility.yul\":14699:14728   */\n      tag_178\n      jump\t// in\n    tag_345:\n        /* \"#utility.yul\":14691:14728   */\n      swap2\n      pop\n        /* \"#utility.yul\":14761:14764   */\n      dup3\n        /* \"#utility.yul\":14758:14759   */\n      0x02\n        /* \"#utility.yul\":14754:14765   */\n      mul\n        /* \"#utility.yul\":14748:14752   */\n      dup3\n        /* \"#utility.yul\":14745:14766   */\n      or\n        /* \"#utility.yul\":14737:14766   */\n      swap1\n      pop\n        /* \"#utility.yul\":14477:14772   */\n      swap3\n      swap2\n      pop\n      pop\n      jump\t// out\n        /* \"#utility.yul\":14777:16172   */\n    tag_102:\n        /* \"#utility.yul\":14894:14931   */\n      tag_347\n        /* \"#utility.yul\":14927:14930   */\n      dup3\n        /* \"#utility.yul\":14894:14931   */\n      tag_142\n      jump\t// in\n    tag_347:\n        /* \"#utility.yul\":14996:15014   */\n      0xffffffffffffffff\n        /* \"#utility.yul\":14988:14994   */\n      dup2\n        /* \"#utility.yul\":14985:15015   */\n      gt\n        /* \"#utility.yul\":14982:15038   */\n      iszero\n      tag_348\n      jumpi\n        /* \"#utility.yul\":15018:15036   */\n      tag_349\n      tag_149\n      jump\t// in\n    tag_349:\n        /* \"#utility.yul\":14982:15038   */\n    tag_348:\n        /* \"#utility.yul\":15062:15100   */\n      tag_350\n        /* \"#utility.yul\":15094:15098   */\n      dup3\n        /* \"#utility.yul\":15088:15099   */\n      sload\n        /* \"#utility.yul\":15062:15100   */\n      tag_74\n      jump\t// in\n    tag_350:\n        /* \"#utility.yul\":15147:15214   */\n      tag_351\n        /* \"#utility.yul\":15207:15213   */\n      dup3\n        /* \"#utility.yul\":15199:15205   */\n      dup3\n        /* \"#utility.yul\":15193:15197   */\n      dup6\n        /* \"#utility.yul\":15147:15214   */\n      tag_176\n      jump\t// in\n    tag_351:\n        /* \"#utility.yul\":15241:15242   */\n      0x00\n        /* \"#utility.yul\":15265:15269   */\n      0x20\n        /* \"#utility.yul\":15252:15269   */\n      swap1\n      pop\n        /* \"#utility.yul\":15297:15299   */\n      0x1f\n        /* \"#utility.yul\":15289:15295   */\n      dup4\n        /* \"#utility.yul\":15286:15300   */\n      gt\n        /* \"#utility.yul\":15314:15315   */\n      0x01\n        /* \"#utility.yul\":15309:15927   */\n      dup2\n      eq\n      tag_353\n      jumpi\n        /* \"#utility.yul\":15971:15972   */\n      0x00\n        /* \"#utility.yul\":15988:15994   */\n      dup5\n        /* \"#utility.yul\":15985:16062   */\n      iszero\n      tag_354\n      jumpi\n        /* \"#utility.yul\":16037:16046   */\n      dup3\n        /* \"#utility.yul\":16032:16035   */\n      dup8\n        /* \"#utility.yul\":16028:16047   */\n      add\n        /* \"#utility.yul\":16022:16048   */\n      mload\n        /* \"#utility.yul\":16013:16048   */\n      swap1\n      pop\n        /* \"#utility.yul\":15985:16062   */\n    tag_354:\n        /* \"#utility.yul\":16088:16155   */\n      tag_355\n        /* \"#utility.yul\":16148:16154   */\n      dup6\n        /* \"#utility.yul\":16141:16146   */\n      dup3\n        /* \"#utility.yul\":16088:16155   */\n      tag_179\n      jump\t// in\n    tag_355:\n        /* \"#utility.yul\":16082:16086   */\n      dup7\n        /* \"#utility.yul\":16075:16156   */\n      sstore\n        /* \"#utility.yul\":15944:16166   */\n      pop\n        /* \"#utility.yul\":15279:16166   */\n      jump(tag_352)\n        /* \"#utility.yul\":15309:15927   */\n    tag_353:\n        /* \"#utility.yul\":15361:15365   */\n      0x1f\n        /* \"#utility.yul\":15357:15366   */\n      not\n        /* \"#utility.yul\":15349:15355   */\n      dup5\n        /* \"#utility.yul\":15345:15367   */\n      and\n        /* \"#utility.yul\":15395:15432   */\n      tag_356\n        /* \"#utility.yul\":15427:15431   */\n      dup7\n        /* \"#utility.yul\":15395:15432   */\n      tag_165\n      jump\t// in\n    tag_356:\n        /* \"#utility.yul\":15454:15455   */\n      0x00\n        /* \"#utility.yul\":15468:15676   */\n    tag_357:\n        /* \"#utility.yul\":15482:15489   */\n      dup3\n        /* \"#utility.yul\":15479:15480   */\n      dup2\n        /* \"#utility.yul\":15476:15490   */\n      lt\n        /* \"#utility.yul\":15468:15676   */\n      iszero\n      tag_359\n      jumpi\n        /* \"#utility.yul\":15561:15570   */\n      dup5\n        /* \"#utility.yul\":15556:15559   */\n      dup10\n        /* \"#utility.yul\":15552:15571   */\n      add\n        /* \"#utility.yul\":15546:15572   */\n      mload\n        /* \"#utility.yul\":15538:15544   */\n      dup3\n        /* \"#utility.yul\":15531:15573   */\n      sstore\n        /* \"#utility.yul\":15612:15613   */\n      0x01\n        /* \"#utility.yul\":15604:15610   */\n      dup3\n        /* \"#utility.yul\":15600:15614   */\n      add\n        /* \"#utility.yul\":15590:15614   */\n      swap2\n      pop\n        /* \"#utility.yul\":15659:15661   */\n      0x20\n        /* \"#utility.yul\":15648:15657   */\n      dup6\n        /* \"#utility.yul\":15644:15662   */\n      add\n        /* \"#utility.yul\":15631:15662   */\n      swap5\n      pop\n        /* \"#utility.yul\":15505:15509   */\n      0x20\n        /* \"#utility.yul\":15502:15503   */\n      dup2\n        /* \"#utility.yul\":15498:15510   */\n      add\n        /* \"#utility.yul\":15493:15510   */\n      swap1\n      pop\n        /* \"#utility.yul\":15468:15676   */\n      jump(tag_357)\n    tag_359:\n        /* \"#utility.yul\":15704:15710   */\n      dup7\n        /* \"#utility.yul\":15695:15702   */\n      dup4\n        /* \"#utility.yul\":15692:15711   */\n      lt\n        /* \"#utility.yul\":15689:15868   */\n      iszero\n      tag_360\n      jumpi\n        /* \"#utility.yul\":15762:15771   */\n      dup5\n        /* \"#utility.yul\":15757:15760   */\n      dup10\n        /* \"#utility.yul\":15753:15772   */\n      add\n        /* \"#utility.yul\":15747:15773   */\n      mload\n        /* \"#utility.yul\":15805:15853   */\n      tag_361\n        /* \"#utility.yul\":15847:15851   */\n      0x1f\n        /* \"#utility.yul\":15839:15845   */\n      dup10\n        /* \"#utility.yul\":15835:15852   */\n      and\n        /* \"#utility.yul\":15824:15833   */\n      dup3\n        /* \"#utility.yul\":15805:15853   */\n      tag_178\n      jump\t// in\n    tag_361:\n        /* \"#utility.yul\":15797:15803   */\n      dup4\n        /* \"#utility.yul\":15790:15854   */\n      sstore\n        /* \"#utility.yul\":15712:15868   */\n      pop\n        /* \"#utility.yul\":15689:15868   */\n    tag_360:\n        /* \"#utility.yul\":15914:15915   */\n      0x01\n        /* \"#utility.yul\":15910:15911   */\n      0x02\n        /* \"#utility.yul\":15902:15908   */\n      dup9\n        /* \"#utility.yul\":15898:15912   */\n      mul\n        /* \"#utility.yul\":15894:15916   */\n      add\n        /* \"#utility.yul\":15888:15892   */\n      dup9\n        /* \"#utility.yul\":15881:15917   */\n      sstore\n        /* \"#utility.yul\":15316:15927   */\n      pop\n      pop\n      pop\n        /* \"#utility.yul\":15279:16166   */\n    tag_352:\n      pop\n        /* \"#utility.yul\":14869:16172   */\n      pop\n      pop\n      pop\n        /* \"#utility.yul\":14777:16172   */\n      pop\n      pop\n      jump\t// out\n        /* \"#utility.yul\":16178:16331   */\n    tag_180:\n        /* \"#utility.yul\":16231:16237   */\n      0x00\n        /* \"#utility.yul\":16265:16270   */\n      dup2\n        /* \"#utility.yul\":16259:16271   */\n      sload\n        /* \"#utility.yul\":16249:16271   */\n      swap1\n      pop\n        /* \"#utility.yul\":16291:16324   */\n      tag_363\n        /* \"#utility.yul\":16317:16323   */\n      dup2\n        /* \"#utility.yul\":16291:16324   */\n      tag_74\n      jump\t// in\n    tag_363:\n        /* \"#utility.yul\":16281:16324   */\n      swap1\n      pop\n        /* \"#utility.yul\":16178:16331   */\n      swap2\n      swap1\n      pop\n      jump\t// out\n        /* \"#utility.yul\":16337:16482   */\n    tag_181:\n        /* \"#utility.yul\":16390:16394   */\n      0x00\n        /* \"#utility.yul\":16413:16416   */\n      dup2\n        /* \"#utility.yul\":16405:16416   */\n      swap1\n      pop\n        /* \"#utility.yul\":16436:16439   */\n      dup2\n        /* \"#utility.yul\":16433:16434   */\n      0x00\n        /* \"#utility.yul\":16426:16440   */\n      mstore\n        /* \"#utility.yul\":16470:16474   */\n      0x20\n        /* \"#utility.yul\":16467:16468   */\n      0x00\n        /* \"#utility.yul\":16457:16475   */\n      keccak256\n        /* \"#utility.yul\":16449:16475   */\n      swap1\n      pop\n        /* \"#utility.yul\":16337:16482   */\n      swap2\n      swap1\n      pop\n      jump\t// out\n        /* \"#utility.yul\":16488:17951   */\n    tag_129:\n        /* \"#utility.yul\":16603:16606   */\n      dup2\n        /* \"#utility.yul\":16597:16601   */\n      dup2\n        /* \"#utility.yul\":16594:16607   */\n      sub\n        /* \"#utility.yul\":16591:16617   */\n      tag_366\n      jumpi\n        /* \"#utility.yul\":16610:16615   */\n      pop\n      pop\n      jump(tag_365)\n        /* \"#utility.yul\":16591:16617   */\n    tag_366:\n        /* \"#utility.yul\":16641:16679   */\n      tag_367\n        /* \"#utility.yul\":16675:16678   */\n      dup3\n        /* \"#utility.yul\":16641:16679   */\n      tag_180\n      jump\t// in\n    tag_367:\n        /* \"#utility.yul\":16744:16762   */\n      0xffffffffffffffff\n        /* \"#utility.yul\":16736:16742   */\n      dup2\n        /* \"#utility.yul\":16733:16763   */\n      gt\n        /* \"#utility.yul\":16730:16786   */\n      iszero\n      tag_368\n      jumpi\n        /* \"#utility.yul\":16766:16784   */\n      tag_369\n      tag_149\n      jump\t// in\n    tag_369:\n        /* \"#utility.yul\":16730:16786   */\n    tag_368:\n        /* \"#utility.yul\":16810:16848   */\n      tag_370\n        /* \"#utility.yul\":16842:16846   */\n      dup3\n        /* \"#utility.yul\":16836:16847   */\n      sload\n        /* \"#utility.yul\":16810:16848   */\n      tag_74\n      jump\t// in\n    tag_370:\n        /* \"#utility.yul\":16895:16962   */\n      tag_371\n        /* \"#utility.yul\":16955:16961   */\n      dup3\n        /* \"#utility.yul\":16947:16953   */\n      dup3\n        /* \"#utility.yul\":16941:16945   */\n      dup6\n        /* \"#utility.yul\":16895:16962   */\n      tag_176\n      jump\t// in\n    tag_371:\n        /* \"#utility.yul\":16989:16990   */\n      0x00\n        /* \"#utility.yul\":17018:17020   */\n      0x1f\n        /* \"#utility.yul\":17010:17016   */\n      dup4\n        /* \"#utility.yul\":17007:17021   */\n      gt\n        /* \"#utility.yul\":17035:17036   */\n      0x01\n        /* \"#utility.yul\":17030:17706   */\n      dup2\n      eq\n      tag_373\n      jumpi\n        /* \"#utility.yul\":17750:17751   */\n      0x00\n        /* \"#utility.yul\":17767:17773   */\n      dup5\n        /* \"#utility.yul\":17764:17841   */\n      iszero\n      tag_374\n      jumpi\n        /* \"#utility.yul\":17816:17825   */\n      dup3\n        /* \"#utility.yul\":17811:17814   */\n      dup8\n        /* \"#utility.yul\":17807:17826   */\n      add\n        /* \"#utility.yul\":17801:17827   */\n      sload\n        /* \"#utility.yul\":17792:17827   */\n      swap1\n      pop\n        /* \"#utility.yul\":17764:17841   */\n    tag_374:\n        /* \"#utility.yul\":17867:17934   */\n      tag_375\n        /* \"#utility.yul\":17927:17933   */\n      dup6\n        /* \"#utility.yul\":17920:17925   */\n      dup3\n        /* \"#utility.yul\":17867:17934   */\n      tag_179\n      jump\t// in\n    tag_375:\n        /* \"#utility.yul\":17861:17865   */\n      dup7\n        /* \"#utility.yul\":17854:17935   */\n      sstore\n        /* \"#utility.yul\":17723:17945   */\n      pop\n        /* \"#utility.yul\":17000:17945   */\n      jump(tag_372)\n        /* \"#utility.yul\":17030:17706   */\n    tag_373:\n        /* \"#utility.yul\":17082:17086   */\n      0x1f\n        /* \"#utility.yul\":17078:17087   */\n      not\n        /* \"#utility.yul\":17070:17076   */\n      dup5\n        /* \"#utility.yul\":17066:17088   */\n      and\n        /* \"#utility.yul\":17108:17148   */\n      tag_376\n        /* \"#utility.yul\":17144:17147   */\n      dup8\n        /* \"#utility.yul\":17108:17148   */\n      tag_181\n      jump\t// in\n    tag_376:\n        /* \"#utility.yul\":17101:17148   */\n      swap7\n      pop\n        /* \"#utility.yul\":17175:17212   */\n      tag_377\n        /* \"#utility.yul\":17207:17211   */\n      dup7\n        /* \"#utility.yul\":17175:17212   */\n      tag_165\n      jump\t// in\n    tag_377:\n        /* \"#utility.yul\":17234:17235   */\n      0x00\n        /* \"#utility.yul\":17248:17455   */\n    tag_378:\n        /* \"#utility.yul\":17262:17269   */\n      dup3\n        /* \"#utility.yul\":17259:17260   */\n      dup2\n        /* \"#utility.yul\":17256:17270   */\n      lt\n        /* \"#utility.yul\":17248:17455   */\n      iszero\n      tag_380\n      jumpi\n        /* \"#utility.yul\":17341:17350   */\n      dup5\n        /* \"#utility.yul\":17336:17339   */\n      dup10\n        /* \"#utility.yul\":17332:17351   */\n      add\n        /* \"#utility.yul\":17326:17352   */\n      sload\n        /* \"#utility.yul\":17318:17324   */\n      dup3\n        /* \"#utility.yul\":17311:17353   */\n      sstore\n        /* \"#utility.yul\":17392:17393   */\n      0x01\n        /* \"#utility.yul\":17384:17390   */\n      dup3\n        /* \"#utility.yul\":17380:17394   */\n      add\n        /* \"#utility.yul\":17370:17394   */\n      swap2\n      pop\n        /* \"#utility.yul\":17439:17440   */\n      0x01\n        /* \"#utility.yul\":17428:17437   */\n      dup6\n        /* \"#utility.yul\":17424:17441   */\n      add\n        /* \"#utility.yul\":17411:17441   */\n      swap5\n      pop\n        /* \"#utility.yul\":17285:17289   */\n      0x20\n        /* \"#utility.yul\":17282:17283   */\n      dup2\n        /* \"#utility.yul\":17278:17290   */\n      add\n        /* \"#utility.yul\":17273:17290   */\n      swap1\n      pop\n        /* \"#utility.yul\":17248:17455   */\n      jump(tag_378)\n    tag_380:\n        /* \"#utility.yul\":17483:17489   */\n      dup7\n        /* \"#utility.yul\":17474:17481   */\n      dup4\n        /* \"#utility.yul\":17471:17490   */\n      lt\n        /* \"#utility.yul\":17468:17647   */\n      iszero\n      tag_381\n      jumpi\n        /* \"#utility.yul\":17541:17550   */\n      dup5\n        /* \"#utility.yul\":17536:17539   */\n      dup10\n        /* \"#utility.yul\":17532:17551   */\n      add\n        /* \"#utility.yul\":17526:17552   */\n      sload\n        /* \"#utility.yul\":17584:17632   */\n      tag_382\n        /* \"#utility.yul\":17626:17630   */\n      0x1f\n        /* \"#utility.yul\":17618:17624   */\n      dup10\n        /* \"#utility.yul\":17614:17631   */\n      and\n        /* \"#utility.yul\":17603:17612   */\n      dup3\n        /* \"#utility.yul\":17584:17632   */\n      tag_178\n      jump\t// in\n    tag_382:\n        /* \"#utility.yul\":17576:17582   */\n      dup4\n        /* \"#utility.yul\":17569:17633   */\n      sstore\n        /* \"#utility.yul\":17491:17647   */\n      pop\n        /* \"#utility.yul\":17468:17647   */\n    tag_381:\n        /* \"#utility.yul\":17693:17694   */\n      0x01\n        /* \"#utility.yul\":17689:17690   */\n      0x02\n        /* \"#utility.yul\":17681:17687   */\n      dup9\n        /* \"#utility.yul\":17677:17691   */\n      mul\n        /* \"#utility.yul\":17673:17695   */\n      add\n        /* \"#utility.yul\":17667:17671   */\n      dup9\n        /* \"#utility.yul\":17660:17696   */\n      sstore\n        /* \"#utility.yul\":17037:17706   */\n      pop\n      pop\n      pop\n        /* \"#utility.yul\":17000:17945   */\n    tag_372:\n      pop\n        /* \"#utility.yul\":16581:17951   */\n      pop\n      pop\n      pop\n        /* \"#utility.yul\":16488:17951   */\n      pop\n      pop\n    tag_365:\n      jump\t// out\n\n    auxdata: 0xa26469706673582212209c8244dc892ae5df07fe04ba33cb24368da537b296647f62ea0ac369508df71e64736f6c634300081a0033\n}\n",
				"bytecode": {
					"linkReferences": {},
					"object": "60806040525f6002555f6003555f60045560405180602001604052805f8152506006908161002d91906102d3565b50600160095f6101000a81548160ff021916908315150217905550348015610053575f80fd5b503360055f6101000a81548173ffffffffffffffffffffffffffffffffffffffff021916908373ffffffffffffffffffffffffffffffffffffffff1602179055506103a2565b5f81519050919050565b7f4e487b71000000000000000000000000000000000000000000000000000000005f52604160045260245ffd5b7f4e487b71000000000000000000000000000000000000000000000000000000005f52602260045260245ffd5b5f600282049050600182168061011457607f821691505b602082108103610127576101266100d0565b5b50919050565b5f819050815f5260205f209050919050565b5f6020601f8301049050919050565b5f82821b905092915050565b5f600883026101897fffffffffffffffffffffffffffffffffffffffffffffffffffffffffffffffff8261014e565b610193868361014e565b95508019841693508086168417925050509392505050565b5f819050919050565b5f819050919050565b5f6101d76101d26101cd846101ab565b6101b4565b6101ab565b9050919050565b5f819050919050565b6101f0836101bd565b6102046101fc826101de565b84845461015a565b825550505050565b5f90565b61021861020c565b6102238184846101e7565b505050565b5b818110156102465761023b5f82610210565b600181019050610229565b5050565b601f82111561028b5761025c8161012d565b6102658461013f565b81016020851015610274578190505b6102886102808561013f565b830182610228565b50505b505050565b5f82821c905092915050565b5f6102ab5f1984600802610290565b1980831691505092915050565b5f6102c3838361029c565b9150826002028217905092915050565b6102dc82610099565b67ffffffffffffffff8111156102f5576102f46100a3565b5b6102ff82546100fd565b61030a82828561024a565b5f60209050601f83116001811461033b575f8415610329578287015190505b61033385826102b8565b86555061039a565b601f1984166103498661012d565b5f5b828110156103705784890151825560018201915060208501945060208101905061034b565b8683101561038d5784890151610389601f89168261029c565b8355505b6001600288020188555050505b505050505050565b6114d8806103af5f395ff3fe608060405234801561000f575f80fd5b50600436106100b2575f3560e01c80636d77bd3e1161006f5780636d77bd3e146101b4578063788d3851146101e4578063a3bef4d714610202578063ad5461d814610220578063b798867f14610250578063c1c16efc1461026e576100b2565b8063124258c6146100b65780631ddabf7a146100e65780633b9f708d1461011757806347098f3614610147578063481c6a75146101655780635df8133014610183575b5f80fd5b6100d060048036038101906100cb9190610ac8565b61028c565b6040516100dd9190610b0d565b60405180910390f35b61010060048036038101906100fb9190610b80565b6104ae565b60405161010e929190610c1b565b60405180910390f35b610131600480360381019061012c9190610d75565b610560565b60405161013e9190610dde565b60405180910390f35b61014f6106a7565b60405161015c9190610dde565b60405180910390f35b61016d6106ad565b60405161017a9190610e06565b60405180910390f35b61019d60048036038101906101989190610ac8565b6106d2565b6040516101ab929190610e1f565b60405180910390f35b6101ce60048036038101906101c99190610e46565b610711565b6040516101db9190610dde565b60405180910390f35b6101ec6107e2565b6040516101f99190610b0d565b60405180910390f35b61020a6107f4565b6040516102179190610dde565b60405180910390f35b61023a60048036038101906102359190610ac8565b6107fa565b6040516102479190610e8d565b60405180910390f35b610258610894565b6040516102659190610dde565b60405180910390f35b61027661089a565b6040516102839190610e8d565b60405180910390f35b5f6001151560095f9054906101000a900460ff161515146102e2576040517f08c379a00000000000000000000000000000000000000000000000000000000081526004016102d990610f1d565b60405180910390fd5b5f90505f60015f3373ffffffffffffffffffffffffffffffffffffffff1673ffffffffffffffffffffffffffffffffffffffff1681526020019081526020015f205f01805461033090610f68565b90501461047d575f805f8481526020019081526020015f20805461035390610f68565b90501461047c57600190506001805f3373ffffffffffffffffffffffffffffffffffffffff1673ffffffffffffffffffffffffffffffffffffffff1681526020019081526020015f206001015f6101000a81548160ff0219169083151502179055506103bd610a3b565b33815f019073ffffffffffffffffffffffffffffffffffffffff16908173ffffffffffffffffffffffffffffffffffffffff16815250508281602001818152505060045f81548092919061041090610fc5565b91905055508060075f60045481526020019081526020015f205f820151815f015f6101000a81548173ffffffffffffffffffffffffffffffffffffffff021916908373ffffffffffffffffffffffffffffffffffffffff16021790555060208201518160010155905050505b5b6001600260035461048e9190611039565b6104989190611069565b600454106104a9576104a8610926565b5b919050565b6001602052805f5260405f205f91509050805f0180546104cd90610f68565b80601f01602080910402602001604051908101604052809291908181526020018280546104f990610f68565b80156105445780601f1061051b57610100808354040283529160200191610544565b820191905f5260205f20905b81548152906001019060200180831161052757829003601f168201915b505050505090806001015f9054906101000a900460ff16905082565b5f60055f9054906101000a900473ffffffffffffffffffffffffffffffffffffffff1673ffffffffffffffffffffffffffffffffffffffff163373ffffffffffffffffffffffffffffffffffffffff16146105f0576040517f08c379a00000000000000000000000000000000000000000000000000000000081526004016105e79061110c565b60405180910390fd5b6105f8610a69565b82815f01819052505f8160200190151590811515815250508060015f8673ffffffffffffffffffffffffffffffffffffffff1673ffffffffffffffffffffffffffffffffffffffff1681526020019081526020015f205f820151815f01908161066191906112c7565b506020820151816001015f6101000a81548160ff02191690831515021790555090505060035f81548092919061069690610fc5565b919050555060035491505092915050565b60035481565b60055f9054906101000a900473ffffffffffffffffffffffffffffffffffffffff1681565b6007602052805f5260405f205f91509050805f015f9054906101000a900473ffffffffffffffffffffffffffffffffffffffff16908060010154905082565b5f60055f9054906101000a900473ffffffffffffffffffffffffffffffffffffffff1673ffffffffffffffffffffffffffffffffffffffff163373ffffffffffffffffffffffffffffffffffffffff16146107a1576040517f08c379a00000000000000000000000000000000000000000000000000000000081526004016107989061110c565b60405180910390fd5b60025f8154809291906107b390610fc5565b9190505550815f8060025481526020019081526020015f2090816107d791906112c7565b506002549050919050565b60095f9054906101000a900460ff1681565b60045481565b5f602052805f5260405f205f91509050805461081590610f68565b80601f016020809104026020016040519081016040528092919081815260200182805461084190610f68565b801561088c5780601f106108635761010080835404028352916020019161088c565b820191905f5260205f20905b81548152906001019060200180831161086f57829003601f168201915b505050505081565b60025481565b600680546108a790610f68565b80601f01602080910402602001604051908101604052809291908181526020018280546108d390610f68565b801561091e5780601f106108f55761010080835404028352916020019161091e565b820191905f5260205f20905b81548152906001019060200180831161090157829003601f168201915b505050505081565b5f805f600190505b60045481116109fe575f600190505f60085f60075f8681526020019081526020015f206001015481526020019081526020015f2054111561099d5760085f60075f8581526020019081526020015f206001015481526020019081526020015f20548161099a9190611069565b90505b8060085f60075f8681526020019081526020015f206001015481526020019081526020015f2081905550838111156109ea5780935060075f8381526020019081526020015f206001015492505b5080806109f690610fc5565b91505061092e565b505f808281526020019081526020015f2060069081610a1d91906113bd565b505f60095f6101000a81548160ff0219169083151502179055505050565b60405180604001604052805f73ffffffffffffffffffffffffffffffffffffffff1681526020015f81525090565b6040518060400160405280606081526020015f151581525090565b5f604051905090565b5f80fd5b5f80fd5b5f819050919050565b610aa781610a95565b8114610ab1575f80fd5b50565b5f81359050610ac281610a9e565b92915050565b5f60208284031215610add57610adc610a8d565b5b5f610aea84828501610ab4565b91505092915050565b5f8115159050919050565b610b0781610af3565b82525050565b5f602082019050610b205f830184610afe565b92915050565b5f73ffffffffffffffffffffffffffffffffffffffff82169050919050565b5f610b4f82610b26565b9050919050565b610b5f81610b45565b8114610b69575f80fd5b50565b5f81359050610b7a81610b56565b92915050565b5f60208284031215610b9557610b94610a8d565b5b5f610ba284828501610b6c565b91505092915050565b5f81519050919050565b5f82825260208201905092915050565b8281835e5f83830152505050565b5f601f19601f8301169050919050565b5f610bed82610bab565b610bf78185610bb5565b9350610c07818560208601610bc5565b610c1081610bd3565b840191505092915050565b5f6040820190508181035f830152610c338185610be3565b9050610c426020830184610afe565b9392505050565b5f80fd5b5f80fd5b7f4e487b71000000000000000000000000000000000000000000000000000000005f52604160045260245ffd5b610c8782610bd3565b810181811067ffffffffffffffff82111715610ca657610ca5610c51565b5b80604052505050565b5f610cb8610a84565b9050610cc48282610c7e565b919050565b5f67ffffffffffffffff821115610ce357610ce2610c51565b5b610cec82610bd3565b9050602081019050919050565b828183375f83830152505050565b5f610d19610d1484610cc9565b610caf565b905082815260208101848484011115610d3557610d34610c4d565b5b610d40848285610cf9565b509392505050565b5f82601f830112610d5c57610d5b610c49565b5b8135610d6c848260208601610d07565b91505092915050565b5f8060408385031215610d8b57610d8a610a8d565b5b5f610d9885828601610b6c565b925050602083013567ffffffffffffffff811115610db957610db8610a91565b5b610dc585828601610d48565b9150509250929050565b610dd881610a95565b82525050565b5f602082019050610df15f830184610dcf565b92915050565b610e0081610b45565b82525050565b5f602082019050610e195f830184610df7565b92915050565b5f604082019050610e325f830185610df7565b610e3f6020830184610dcf565b9392505050565b5f60208284031215610e5b57610e5a610a8d565b5b5f82013567ffffffffffffffff811115610e7857610e77610a91565b5b610e8484828501610d48565b91505092915050565b5f6020820190508181035f830152610ea58184610be3565b905092915050565b7f43616e20766f7465206f6e6c79207768696c6520766f74696e67206973206f705f8201527f656e2e0000000000000000000000000000000000000000000000000000000000602082015250565b5f610f07602383610bb5565b9150610f1282610ead565b604082019050919050565b5f6020820190508181035f830152610f3481610efb565b9050919050565b7f4e487b71000000000000000000000000000000000000000000000000000000005f52602260045260245ffd5b5f6002820490506001821680610f7f57607f821691505b602082108103610f9257610f91610f3b565b5b50919050565b7f4e487b71000000000000000000000000000000000000000000000000000000005f52601160045260245ffd5b5f610fcf82610a95565b91507fffffffffffffffffffffffffffffffffffffffffffffffffffffffffffffffff820361100157611000610f98565b5b600182019050919050565b7f4e487b71000000000000000000000000000000000000000000000000000000005f52601260045260245ffd5b5f61104382610a95565b915061104e83610a95565b92508261105e5761105d61100c565b5b828204905092915050565b5f61107382610a95565b915061107e83610a95565b925082820190508082111561109657611095610f98565b5b92915050565b7f43616e206f6e6c7920626520657865637574656420627920746865206d616e615f8201527f6765720000000000000000000000000000000000000000000000000000000000602082015250565b5f6110f6602383610bb5565b91506111018261109c565b604082019050919050565b5f6020820190508181035f830152611123816110ea565b9050919050565b5f819050815f5260205f209050919050565b5f6020601f8301049050919050565b5f82821b905092915050565b5f600883026111867fffffffffffffffffffffffffffffffffffffffffffffffffffffffffffffffff8261114b565b611190868361114b565b95508019841693508086168417925050509392505050565b5f819050919050565b5f6111cb6111c66111c184610a95565b6111a8565b610a95565b9050919050565b5f819050919050565b6111e4836111b1565b6111f86111f0826111d2565b848454611157565b825550505050565b5f90565b61120c611200565b6112178184846111db565b505050565b5b8181101561123a5761122f5f82611204565b60018101905061121d565b5050565b601f82111561127f576112508161112a565b6112598461113c565b81016020851015611268578190505b61127c6112748561113c565b83018261121c565b50505b505050565b5f82821c905092915050565b5f61129f5f1984600802611284565b1980831691505092915050565b5f6112b78383611290565b9150826002028217905092915050565b6112d082610bab565b67ffffffffffffffff8111156112e9576112e8610c51565b5b6112f38254610f68565b6112fe82828561123e565b5f60209050601f83116001811461132f575f841561131d578287015190505b61132785826112ac565b86555061138e565b601f19841661133d8661112a565b5f5b828110156113645784890151825560018201915060208501945060208101905061133f565b86831015611381578489015161137d601f891682611290565b8355505b6001600288020188555050505b505050505050565b5f815490506113a481610f68565b9050919050565b5f819050815f5260205f209050919050565b8181036113cb5750506114a0565b6113d482611396565b67ffffffffffffffff8111156113ed576113ec610c51565b5b6113f78254610f68565b61140282828561123e565b5f601f83116001811461142f575f841561141d578287015490505b61142785826112ac565b865550611499565b601f19841661143d876113ab565b96506114488661112a565b5f5b8281101561146f5784890154825560018201915060018501945060208101905061144a565b8683101561148c5784890154611488601f891682611290565b8355505b6001600288020188555050505b5050505050505b56fea26469706673582212209c8244dc892ae5df07fe04ba33cb24368da537b296647f62ea0ac369508df71e64736f6c634300081a0033",
					"opcodes": "PUSH1 0x80 PUSH1 0x40 MSTORE PUSH0 PUSH1 0x2 SSTORE PUSH0 PUSH1 0x3 SSTORE PUSH0 PUSH1 0x4 SSTORE PUSH1 0x40 MLOAD DUP1 PUSH1 0x20 ADD PUSH1 0x40 MSTORE DUP1 PUSH0 DUP2 MSTORE POP PUSH1 0x6 SWAP1 DUP2 PUSH2 0x2D SWAP2 SWAP1 PUSH2 0x2D3 JUMP JUMPDEST POP PUSH1 0x1 PUSH1 0x9 PUSH0 PUSH2 0x100 EXP DUP2 SLOAD DUP2 PUSH1 0xFF MUL NOT AND SWAP1 DUP4 ISZERO ISZERO MUL OR SWAP1 SSTORE POP CALLVALUE DUP1 ISZERO PUSH2 0x53 JUMPI PUSH0 DUP1 REVERT JUMPDEST POP CALLER PUSH1 0x5 PUSH0 PUSH2 0x100 EXP DUP2 SLOAD DUP2 PUSH20 0xFFFFFFFFFFFFFFFFFFFFFFFFFFFFFFFFFFFFFFFF MUL NOT AND SWAP1 DUP4 PUSH20 0xFFFFFFFFFFFFFFFFFFFFFFFFFFFFFFFFFFFFFFFF AND MUL OR SWAP1 SSTORE POP PUSH2 0x3A2 JUMP JUMPDEST PUSH0 DUP2 MLOAD SWAP1 POP SWAP2 SWAP1 POP JUMP JUMPDEST PUSH32 0x4E487B7100000000000000000000000000000000000000000000000000000000 PUSH0 MSTORE PUSH1 0x41 PUSH1 0x4 MSTORE PUSH1 0x24 PUSH0 REVERT JUMPDEST PUSH32 0x4E487B7100000000000000000000000000000000000000000000000000000000 PUSH0 MSTORE PUSH1 0x22 PUSH1 0x4 MSTORE PUSH1 0x24 PUSH0 REVERT JUMPDEST PUSH0 PUSH1 0x2 DUP3 DIV SWAP1 POP PUSH1 0x1 DUP3 AND DUP1 PUSH2 0x114 JUMPI PUSH1 0x7F DUP3 AND SWAP2 POP JUMPDEST PUSH1 0x20 DUP3 LT DUP2 SUB PUSH2 0x127 JUMPI PUSH2 0x126 PUSH2 0xD0 JUMP JUMPDEST JUMPDEST POP SWAP2 SWAP1 POP JUMP JUMPDEST PUSH0 DUP2 SWAP1 POP DUP2 PUSH0 MSTORE PUSH1 0x20 PUSH0 KECCAK256 SWAP1 POP SWAP2 SWAP1 POP JUMP JUMPDEST PUSH0 PUSH1 0x20 PUSH1 0x1F DUP4 ADD DIV SWAP1 POP SWAP2 SWAP1 POP JUMP JUMPDEST PUSH0 DUP3 DUP3 SHL SWAP1 POP SWAP3 SWAP2 POP POP JUMP JUMPDEST PUSH0 PUSH1 0x8 DUP4 MUL PUSH2 0x189 PUSH32 0xFFFFFFFFFFFFFFFFFFFFFFFFFFFFFFFFFFFFFFFFFFFFFFFFFFFFFFFFFFFFFFFF DUP3 PUSH2 0x14E JUMP JUMPDEST PUSH2 0x193 DUP7 DUP4 PUSH2 0x14E JUMP JUMPDEST SWAP6 POP DUP1 NOT DUP5 AND SWAP4 POP DUP1 DUP7 AND DUP5 OR SWAP3 POP POP POP SWAP4 SWAP3 POP POP POP JUMP JUMPDEST PUSH0 DUP2 SWAP1 POP SWAP2 SWAP1 POP JUMP JUMPDEST PUSH0 DUP2 SWAP1 POP SWAP2 SWAP1 POP JUMP JUMPDEST PUSH0 PUSH2 0x1D7 PUSH2 0x1D2 PUSH2 0x1CD DUP5 PUSH2 0x1AB JUMP JUMPDEST PUSH2 0x1B4 JUMP JUMPDEST PUSH2 0x1AB JUMP JUMPDEST SWAP1 POP SWAP2 SWAP1 POP JUMP JUMPDEST PUSH0 DUP2 SWAP1 POP SWAP2 SWAP1 POP JUMP JUMPDEST PUSH2 0x1F0 DUP4 PUSH2 0x1BD JUMP JUMPDEST PUSH2 0x204 PUSH2 0x1FC DUP3 PUSH2 0x1DE JUMP JUMPDEST DUP5 DUP5 SLOAD PUSH2 0x15A JUMP JUMPDEST DUP3 SSTORE POP POP POP POP JUMP JUMPDEST PUSH0 SWAP1 JUMP JUMPDEST PUSH2 0x218 PUSH2 0x20C JUMP JUMPDEST PUSH2 0x223 DUP2 DUP5 DUP5 PUSH2 0x1E7 JUMP JUMPDEST POP POP POP JUMP JUMPDEST JUMPDEST DUP2 DUP2 LT ISZERO PUSH2 0x246 JUMPI PUSH2 0x23B PUSH0 DUP3 PUSH2 0x210 JUMP JUMPDEST PUSH1 0x1 DUP2 ADD SWAP1 POP PUSH2 0x229 JUMP JUMPDEST POP POP JUMP JUMPDEST PUSH1 0x1F DUP3 GT ISZERO PUSH2 0x28B JUMPI PUSH2 0x25C DUP2 PUSH2 0x12D JUMP JUMPDEST PUSH2 0x265 DUP5 PUSH2 0x13F JUMP JUMPDEST DUP2 ADD PUSH1 0x20 DUP6 LT ISZERO PUSH2 0x274 JUMPI DUP2 SWAP1 POP JUMPDEST PUSH2 0x288 PUSH2 0x280 DUP6 PUSH2 0x13F JUMP JUMPDEST DUP4 ADD DUP3 PUSH2 0x228 JUMP JUMPDEST POP POP JUMPDEST POP POP POP JUMP JUMPDEST PUSH0 DUP3 DUP3 SHR SWAP1 POP SWAP3 SWAP2 POP POP JUMP JUMPDEST PUSH0 PUSH2 0x2AB PUSH0 NOT DUP5 PUSH1 0x8 MUL PUSH2 0x290 JUMP JUMPDEST NOT DUP1 DUP4 AND SWAP2 POP POP SWAP3 SWAP2 POP POP JUMP JUMPDEST PUSH0 PUSH2 0x2C3 DUP4 DUP4 PUSH2 0x29C JUMP JUMPDEST SWAP2 POP DUP3 PUSH1 0x2 MUL DUP3 OR SWAP1 POP SWAP3 SWAP2 POP POP JUMP JUMPDEST PUSH2 0x2DC DUP3 PUSH2 0x99 JUMP JUMPDEST PUSH8 0xFFFFFFFFFFFFFFFF DUP2 GT ISZERO PUSH2 0x2F5 JUMPI PUSH2 0x2F4 PUSH2 0xA3 JUMP JUMPDEST JUMPDEST PUSH2 0x2FF DUP3 SLOAD PUSH2 0xFD JUMP JUMPDEST PUSH2 0x30A DUP3 DUP3 DUP6 PUSH2 0x24A JUMP JUMPDEST PUSH0 PUSH1 0x20 SWAP1 POP PUSH1 0x1F DUP4 GT PUSH1 0x1 DUP2 EQ PUSH2 0x33B JUMPI PUSH0 DUP5 ISZERO PUSH2 0x329 JUMPI DUP3 DUP8 ADD MLOAD SWAP1 POP JUMPDEST PUSH2 0x333 DUP6 DUP3 PUSH2 0x2B8 JUMP JUMPDEST DUP7 SSTORE POP PUSH2 0x39A JUMP JUMPDEST PUSH1 0x1F NOT DUP5 AND PUSH2 0x349 DUP7 PUSH2 0x12D JUMP JUMPDEST PUSH0 JUMPDEST DUP3 DUP2 LT ISZERO PUSH2 0x370 JUMPI DUP5 DUP10 ADD MLOAD DUP3 SSTORE PUSH1 0x1 DUP3 ADD SWAP2 POP PUSH1 0x20 DUP6 ADD SWAP5 POP PUSH1 0x20 DUP2 ADD SWAP1 POP PUSH2 0x34B JUMP JUMPDEST DUP7 DUP4 LT ISZERO PUSH2 0x38D JUMPI DUP5 DUP10 ADD MLOAD PUSH2 0x389 PUSH1 0x1F DUP10 AND DUP3 PUSH2 0x29C JUMP JUMPDEST DUP4 SSTORE POP JUMPDEST PUSH1 0x1 PUSH1 0x2 DUP9 MUL ADD DUP9 SSTORE POP POP POP JUMPDEST POP POP POP POP POP POP JUMP JUMPDEST PUSH2 0x14D8 DUP1 PUSH2 0x3AF PUSH0 CODECOPY PUSH0 RETURN INVALID PUSH1 0x80 PUSH1 0x40 MSTORE CALLVALUE DUP1 ISZERO PUSH2 0xF JUMPI PUSH0 DUP1 REVERT JUMPDEST POP PUSH1 0x4 CALLDATASIZE LT PUSH2 0xB2 JUMPI PUSH0 CALLDATALOAD PUSH1 0xE0 SHR DUP1 PUSH4 0x6D77BD3E GT PUSH2 0x6F JUMPI DUP1 PUSH4 0x6D77BD3E EQ PUSH2 0x1B4 JUMPI DUP1 PUSH4 0x788D3851 EQ PUSH2 0x1E4 JUMPI DUP1 PUSH4 0xA3BEF4D7 EQ PUSH2 0x202 JUMPI DUP1 PUSH4 0xAD5461D8 EQ PUSH2 0x220 JUMPI DUP1 PUSH4 0xB798867F EQ PUSH2 0x250 JUMPI DUP1 PUSH4 0xC1C16EFC EQ PUSH2 0x26E JUMPI PUSH2 0xB2 JUMP JUMPDEST DUP1 PUSH4 0x124258C6 EQ PUSH2 0xB6 JUMPI DUP1 PUSH4 0x1DDABF7A EQ PUSH2 0xE6 JUMPI DUP1 PUSH4 0x3B9F708D EQ PUSH2 0x117 JUMPI DUP1 PUSH4 0x47098F36 EQ PUSH2 0x147 JUMPI DUP1 PUSH4 0x481C6A75 EQ PUSH2 0x165 JUMPI DUP1 PUSH4 0x5DF81330 EQ PUSH2 0x183 JUMPI JUMPDEST PUSH0 DUP1 REVERT JUMPDEST PUSH2 0xD0 PUSH1 0x4 DUP1 CALLDATASIZE SUB DUP2 ADD SWAP1 PUSH2 0xCB SWAP2 SWAP1 PUSH2 0xAC8 JUMP JUMPDEST PUSH2 0x28C JUMP JUMPDEST PUSH1 0x40 MLOAD PUSH2 0xDD SWAP2 SWAP1 PUSH2 0xB0D JUMP JUMPDEST PUSH1 0x40 MLOAD DUP1 SWAP2 SUB SWAP1 RETURN JUMPDEST PUSH2 0x100 PUSH1 0x4 DUP1 CALLDATASIZE SUB DUP2 ADD SWAP1 PUSH2 0xFB SWAP2 SWAP1 PUSH2 0xB80 JUMP JUMPDEST PUSH2 0x4AE JUMP JUMPDEST PUSH1 0x40 MLOAD PUSH2 0x10E SWAP3 SWAP2 SWAP1 PUSH2 0xC1B JUMP JUMPDEST PUSH1 0x40 MLOAD DUP1 SWAP2 SUB SWAP1 RETURN JUMPDEST PUSH2 0x131 PUSH1 0x4 DUP1 CALLDATASIZE SUB DUP2 ADD SWAP1 PUSH2 0x12C SWAP2 SWAP1 PUSH2 0xD75 JUMP JUMPDEST PUSH2 0x560 JUMP JUMPDEST PUSH1 0x40 MLOAD PUSH2 0x13E SWAP2 SWAP1 PUSH2 0xDDE JUMP JUMPDEST PUSH1 0x40 MLOAD DUP1 SWAP2 SUB SWAP1 RETURN JUMPDEST PUSH2 0x14F PUSH2 0x6A7 JUMP JUMPDEST PUSH1 0x40 MLOAD PUSH2 0x15C SWAP2 SWAP1 PUSH2 0xDDE JUMP JUMPDEST PUSH1 0x40 MLOAD DUP1 SWAP2 SUB SWAP1 RETURN JUMPDEST PUSH2 0x16D PUSH2 0x6AD JUMP JUMPDEST PUSH1 0x40 MLOAD PUSH2 0x17A SWAP2 SWAP1 PUSH2 0xE06 JUMP JUMPDEST PUSH1 0x40 MLOAD DUP1 SWAP2 SUB SWAP1 RETURN JUMPDEST PUSH2 0x19D PUSH1 0x4 DUP1 CALLDATASIZE SUB DUP2 ADD SWAP1 PUSH2 0x198 SWAP2 SWAP1 PUSH2 0xAC8 JUMP JUMPDEST PUSH2 0x6D2 JUMP JUMPDEST PUSH1 0x40 MLOAD PUSH2 0x1AB SWAP3 SWAP2 SWAP1 PUSH2 0xE1F JUMP JUMPDEST PUSH1 0x40 MLOAD DUP1 SWAP2 SUB SWAP1 RETURN JUMPDEST PUSH2 0x1CE PUSH1 0x4 DUP1 CALLDATASIZE SUB DUP2 ADD SWAP1 PUSH2 0x1C9 SWAP2 SWAP1 PUSH2 0xE46 JUMP JUMPDEST PUSH2 0x711 JUMP JUMPDEST PUSH1 0x40 MLOAD PUSH2 0x1DB SWAP2 SWAP1 PUSH2 0xDDE JUMP JUMPDEST PUSH1 0x40 MLOAD DUP1 SWAP2 SUB SWAP1 RETURN JUMPDEST PUSH2 0x1EC PUSH2 0x7E2 JUMP JUMPDEST PUSH1 0x40 MLOAD PUSH2 0x1F9 SWAP2 SWAP1 PUSH2 0xB0D JUMP JUMPDEST PUSH1 0x40 MLOAD DUP1 SWAP2 SUB SWAP1 RETURN JUMPDEST PUSH2 0x20A PUSH2 0x7F4 JUMP JUMPDEST PUSH1 0x40 MLOAD PUSH2 0x217 SWAP2 SWAP1 PUSH2 0xDDE JUMP JUMPDEST PUSH1 0x40 MLOAD DUP1 SWAP2 SUB SWAP1 RETURN JUMPDEST PUSH2 0x23A PUSH1 0x4 DUP1 CALLDATASIZE SUB DUP2 ADD SWAP1 PUSH2 0x235 SWAP2 SWAP1 PUSH2 0xAC8 JUMP JUMPDEST PUSH2 0x7FA JUMP JUMPDEST PUSH1 0x40 MLOAD PUSH2 0x247 SWAP2 SWAP1 PUSH2 0xE8D JUMP JUMPDEST PUSH1 0x40 MLOAD DUP1 SWAP2 SUB SWAP1 RETURN JUMPDEST PUSH2 0x258 PUSH2 0x894 JUMP JUMPDEST PUSH1 0x40 MLOAD PUSH2 0x265 SWAP2 SWAP1 PUSH2 0xDDE JUMP JUMPDEST PUSH1 0x40 MLOAD DUP1 SWAP2 SUB SWAP1 RETURN JUMPDEST PUSH2 0x276 PUSH2 0x89A JUMP JUMPDEST PUSH1 0x40 MLOAD PUSH2 0x283 SWAP2 SWAP1 PUSH2 0xE8D JUMP JUMPDEST PUSH1 0x40 MLOAD DUP1 SWAP2 SUB SWAP1 RETURN JUMPDEST PUSH0 PUSH1 0x1 ISZERO ISZERO PUSH1 0x9 PUSH0 SWAP1 SLOAD SWAP1 PUSH2 0x100 EXP SWAP1 DIV PUSH1 0xFF AND ISZERO ISZERO EQ PUSH2 0x2E2 JUMPI PUSH1 0x40 MLOAD PUSH32 0x8C379A000000000000000000000000000000000000000000000000000000000 DUP2 MSTORE PUSH1 0x4 ADD PUSH2 0x2D9 SWAP1 PUSH2 0xF1D JUMP JUMPDEST PUSH1 0x40 MLOAD DUP1 SWAP2 SUB SWAP1 REVERT JUMPDEST PUSH0 SWAP1 POP PUSH0 PUSH1 0x1 PUSH0 CALLER PUSH20 0xFFFFFFFFFFFFFFFFFFFFFFFFFFFFFFFFFFFFFFFF AND PUSH20 0xFFFFFFFFFFFFFFFFFFFFFFFFFFFFFFFFFFFFFFFF AND DUP2 MSTORE PUSH1 0x20 ADD SWAP1 DUP2 MSTORE PUSH1 0x20 ADD PUSH0 KECCAK256 PUSH0 ADD DUP1 SLOAD PUSH2 0x330 SWAP1 PUSH2 0xF68 JUMP JUMPDEST SWAP1 POP EQ PUSH2 0x47D JUMPI PUSH0 DUP1 PUSH0 DUP5 DUP2 MSTORE PUSH1 0x20 ADD SWAP1 DUP2 MSTORE PUSH1 0x20 ADD PUSH0 KECCAK256 DUP1 SLOAD PUSH2 0x353 SWAP1 PUSH2 0xF68 JUMP JUMPDEST SWAP1 POP EQ PUSH2 0x47C JUMPI PUSH1 0x1 SWAP1 POP PUSH1 0x1 DUP1 PUSH0 CALLER PUSH20 0xFFFFFFFFFFFFFFFFFFFFFFFFFFFFFFFFFFFFFFFF AND PUSH20 0xFFFFFFFFFFFFFFFFFFFFFFFFFFFFFFFFFFFFFFFF AND DUP2 MSTORE PUSH1 0x20 ADD SWAP1 DUP2 MSTORE PUSH1 0x20 ADD PUSH0 KECCAK256 PUSH1 0x1 ADD PUSH0 PUSH2 0x100 EXP DUP2 SLOAD DUP2 PUSH1 0xFF MUL NOT AND SWAP1 DUP4 ISZERO ISZERO MUL OR SWAP1 SSTORE POP PUSH2 0x3BD PUSH2 0xA3B JUMP JUMPDEST CALLER DUP2 PUSH0 ADD SWAP1 PUSH20 0xFFFFFFFFFFFFFFFFFFFFFFFFFFFFFFFFFFFFFFFF AND SWAP1 DUP2 PUSH20 0xFFFFFFFFFFFFFFFFFFFFFFFFFFFFFFFFFFFFFFFF AND DUP2 MSTORE POP POP DUP3 DUP2 PUSH1 0x20 ADD DUP2 DUP2 MSTORE POP POP PUSH1 0x4 PUSH0 DUP2 SLOAD DUP1 SWAP3 SWAP2 SWAP1 PUSH2 0x410 SWAP1 PUSH2 0xFC5 JUMP JUMPDEST SWAP2 SWAP1 POP SSTORE POP DUP1 PUSH1 0x7 PUSH0 PUSH1 0x4 SLOAD DUP2 MSTORE PUSH1 0x20 ADD SWAP1 DUP2 MSTORE PUSH1 0x20 ADD PUSH0 KECCAK256 PUSH0 DUP3 ADD MLOAD DUP2 PUSH0 ADD PUSH0 PUSH2 0x100 EXP DUP2 SLOAD DUP2 PUSH20 0xFFFFFFFFFFFFFFFFFFFFFFFFFFFFFFFFFFFFFFFF MUL NOT AND SWAP1 DUP4 PUSH20 0xFFFFFFFFFFFFFFFFFFFFFFFFFFFFFFFFFFFFFFFF AND MUL OR SWAP1 SSTORE POP PUSH1 0x20 DUP3 ADD MLOAD DUP2 PUSH1 0x1 ADD SSTORE SWAP1 POP POP POP JUMPDEST JUMPDEST PUSH1 0x1 PUSH1 0x2 PUSH1 0x3 SLOAD PUSH2 0x48E SWAP2 SWAP1 PUSH2 0x1039 JUMP JUMPDEST PUSH2 0x498 SWAP2 SWAP1 PUSH2 0x1069 JUMP JUMPDEST PUSH1 0x4 SLOAD LT PUSH2 0x4A9 JUMPI PUSH2 0x4A8 PUSH2 0x926 JUMP JUMPDEST JUMPDEST SWAP2 SWAP1 POP JUMP JUMPDEST PUSH1 0x1 PUSH1 0x20 MSTORE DUP1 PUSH0 MSTORE PUSH1 0x40 PUSH0 KECCAK256 PUSH0 SWAP2 POP SWAP1 POP DUP1 PUSH0 ADD DUP1 SLOAD PUSH2 0x4CD SWAP1 PUSH2 0xF68 JUMP JUMPDEST DUP1 PUSH1 0x1F ADD PUSH1 0x20 DUP1 SWAP2 DIV MUL PUSH1 0x20 ADD PUSH1 0x40 MLOAD SWAP1 DUP2 ADD PUSH1 0x40 MSTORE DUP1 SWAP3 SWAP2 SWAP1 DUP2 DUP2 MSTORE PUSH1 0x20 ADD DUP3 DUP1 SLOAD PUSH2 0x4F9 SWAP1 PUSH2 0xF68 JUMP JUMPDEST DUP1 ISZERO PUSH2 0x544 JUMPI DUP1 PUSH1 0x1F LT PUSH2 0x51B JUMPI PUSH2 0x100 DUP1 DUP4 SLOAD DIV MUL DUP4 MSTORE SWAP2 PUSH1 0x20 ADD SWAP2 PUSH2 0x544 JUMP JUMPDEST DUP3 ADD SWAP2 SWAP1 PUSH0 MSTORE PUSH1 0x20 PUSH0 KECCAK256 SWAP1 JUMPDEST DUP2 SLOAD DUP2 MSTORE SWAP1 PUSH1 0x1 ADD SWAP1 PUSH1 0x20 ADD DUP1 DUP4 GT PUSH2 0x527 JUMPI DUP3 SWAP1 SUB PUSH1 0x1F AND DUP3 ADD SWAP2 JUMPDEST POP POP POP POP POP SWAP1 DUP1 PUSH1 0x1 ADD PUSH0 SWAP1 SLOAD SWAP1 PUSH2 0x100 EXP SWAP1 DIV PUSH1 0xFF AND SWAP1 POP DUP3 JUMP JUMPDEST PUSH0 PUSH1 0x5 PUSH0 SWAP1 SLOAD SWAP1 PUSH2 0x100 EXP SWAP1 DIV PUSH20 0xFFFFFFFFFFFFFFFFFFFFFFFFFFFFFFFFFFFFFFFF AND PUSH20 0xFFFFFFFFFFFFFFFFFFFFFFFFFFFFFFFFFFFFFFFF AND CALLER PUSH20 0xFFFFFFFFFFFFFFFFFFFFFFFFFFFFFFFFFFFFFFFF AND EQ PUSH2 0x5F0 JUMPI PUSH1 0x40 MLOAD PUSH32 0x8C379A000000000000000000000000000000000000000000000000000000000 DUP2 MSTORE PUSH1 0x4 ADD PUSH2 0x5E7 SWAP1 PUSH2 0x110C JUMP JUMPDEST PUSH1 0x40 MLOAD DUP1 SWAP2 SUB SWAP1 REVERT JUMPDEST PUSH2 0x5F8 PUSH2 0xA69 JUMP JUMPDEST DUP3 DUP2 PUSH0 ADD DUP2 SWAP1 MSTORE POP PUSH0 DUP2 PUSH1 0x20 ADD SWAP1 ISZERO ISZERO SWAP1 DUP2 ISZERO ISZERO DUP2 MSTORE POP POP DUP1 PUSH1 0x1 PUSH0 DUP7 PUSH20 0xFFFFFFFFFFFFFFFFFFFFFFFFFFFFFFFFFFFFFFFF AND PUSH20 0xFFFFFFFFFFFFFFFFFFFFFFFFFFFFFFFFFFFFFFFF AND DUP2 MSTORE PUSH1 0x20 ADD SWAP1 DUP2 MSTORE PUSH1 0x20 ADD PUSH0 KECCAK256 PUSH0 DUP3 ADD MLOAD DUP2 PUSH0 ADD SWAP1 DUP2 PUSH2 0x661 SWAP2 SWAP1 PUSH2 0x12C7 JUMP JUMPDEST POP PUSH1 0x20 DUP3 ADD MLOAD DUP2 PUSH1 0x1 ADD PUSH0 PUSH2 0x100 EXP DUP2 SLOAD DUP2 PUSH1 0xFF MUL NOT AND SWAP1 DUP4 ISZERO ISZERO MUL OR SWAP1 SSTORE POP SWAP1 POP POP PUSH1 0x3 PUSH0 DUP2 SLOAD DUP1 SWAP3 SWAP2 SWAP1 PUSH2 0x696 SWAP1 PUSH2 0xFC5 JUMP JUMPDEST SWAP2 SWAP1 POP SSTORE POP PUSH1 0x3 SLOAD SWAP2 POP POP SWAP3 SWAP2 POP POP JUMP JUMPDEST PUSH1 0x3 SLOAD DUP2 JUMP JUMPDEST PUSH1 0x5 PUSH0 SWAP1 SLOAD SWAP1 PUSH2 0x100 EXP SWAP1 DIV PUSH20 0xFFFFFFFFFFFFFFFFFFFFFFFFFFFFFFFFFFFFFFFF AND DUP2 JUMP JUMPDEST PUSH1 0x7 PUSH1 0x20 MSTORE DUP1 PUSH0 MSTORE PUSH1 0x40 PUSH0 KECCAK256 PUSH0 SWAP2 POP SWAP1 POP DUP1 PUSH0 ADD PUSH0 SWAP1 SLOAD SWAP1 PUSH2 0x100 EXP SWAP1 DIV PUSH20 0xFFFFFFFFFFFFFFFFFFFFFFFFFFFFFFFFFFFFFFFF AND SWAP1 DUP1 PUSH1 0x1 ADD SLOAD SWAP1 POP DUP3 JUMP JUMPDEST PUSH0 PUSH1 0x5 PUSH0 SWAP1 SLOAD SWAP1 PUSH2 0x100 EXP SWAP1 DIV PUSH20 0xFFFFFFFFFFFFFFFFFFFFFFFFFFFFFFFFFFFFFFFF AND PUSH20 0xFFFFFFFFFFFFFFFFFFFFFFFFFFFFFFFFFFFFFFFF AND CALLER PUSH20 0xFFFFFFFFFFFFFFFFFFFFFFFFFFFFFFFFFFFFFFFF AND EQ PUSH2 0x7A1 JUMPI PUSH1 0x40 MLOAD PUSH32 0x8C379A000000000000000000000000000000000000000000000000000000000 DUP2 MSTORE PUSH1 0x4 ADD PUSH2 0x798 SWAP1 PUSH2 0x110C JUMP JUMPDEST PUSH1 0x40 MLOAD DUP1 SWAP2 SUB SWAP1 REVERT JUMPDEST PUSH1 0x2 PUSH0 DUP2 SLOAD DUP1 SWAP3 SWAP2 SWAP1 PUSH2 0x7B3 SWAP1 PUSH2 0xFC5 JUMP JUMPDEST SWAP2 SWAP1 POP SSTORE POP DUP2 PUSH0 DUP1 PUSH1 0x2 SLOAD DUP2 MSTORE PUSH1 0x20 ADD SWAP1 DUP2 MSTORE PUSH1 0x20 ADD PUSH0 KECCAK256 SWAP1 DUP2 PUSH2 0x7D7 SWAP2 SWAP1 PUSH2 0x12C7 JUMP JUMPDEST POP PUSH1 0x2 SLOAD SWAP1 POP SWAP2 SWAP1 POP JUMP JUMPDEST PUSH1 0x9 PUSH0 SWAP1 SLOAD SWAP1 PUSH2 0x100 EXP SWAP1 DIV PUSH1 0xFF AND DUP2 JUMP JUMPDEST PUSH1 0x4 SLOAD DUP2 JUMP JUMPDEST PUSH0 PUSH1 0x20 MSTORE DUP1 PUSH0 MSTORE PUSH1 0x40 PUSH0 KECCAK256 PUSH0 SWAP2 POP SWAP1 POP DUP1 SLOAD PUSH2 0x815 SWAP1 PUSH2 0xF68 JUMP JUMPDEST DUP1 PUSH1 0x1F ADD PUSH1 0x20 DUP1 SWAP2 DIV MUL PUSH1 0x20 ADD PUSH1 0x40 MLOAD SWAP1 DUP2 ADD PUSH1 0x40 MSTORE DUP1 SWAP3 SWAP2 SWAP1 DUP2 DUP2 MSTORE PUSH1 0x20 ADD DUP3 DUP1 SLOAD PUSH2 0x841 SWAP1 PUSH2 0xF68 JUMP JUMPDEST DUP1 ISZERO PUSH2 0x88C JUMPI DUP1 PUSH1 0x1F LT PUSH2 0x863 JUMPI PUSH2 0x100 DUP1 DUP4 SLOAD DIV MUL DUP4 MSTORE SWAP2 PUSH1 0x20 ADD SWAP2 PUSH2 0x88C JUMP JUMPDEST DUP3 ADD SWAP2 SWAP1 PUSH0 MSTORE PUSH1 0x20 PUSH0 KECCAK256 SWAP1 JUMPDEST DUP2 SLOAD DUP2 MSTORE SWAP1 PUSH1 0x1 ADD SWAP1 PUSH1 0x20 ADD DUP1 DUP4 GT PUSH2 0x86F JUMPI DUP3 SWAP1 SUB PUSH1 0x1F AND DUP3 ADD SWAP2 JUMPDEST POP POP POP POP POP DUP2 JUMP JUMPDEST PUSH1 0x2 SLOAD DUP2 JUMP JUMPDEST PUSH1 0x6 DUP1 SLOAD PUSH2 0x8A7 SWAP1 PUSH2 0xF68 JUMP JUMPDEST DUP1 PUSH1 0x1F ADD PUSH1 0x20 DUP1 SWAP2 DIV MUL PUSH1 0x20 ADD PUSH1 0x40 MLOAD SWAP1 DUP2 ADD PUSH1 0x40 MSTORE DUP1 SWAP3 SWAP2 SWAP1 DUP2 DUP2 MSTORE PUSH1 0x20 ADD DUP3 DUP1 SLOAD PUSH2 0x8D3 SWAP1 PUSH2 0xF68 JUMP JUMPDEST DUP1 ISZERO PUSH2 0x91E JUMPI DUP1 PUSH1 0x1F LT PUSH2 0x8F5 JUMPI PUSH2 0x100 DUP1 DUP4 SLOAD DIV MUL DUP4 MSTORE SWAP2 PUSH1 0x20 ADD SWAP2 PUSH2 0x91E JUMP JUMPDEST DUP3 ADD SWAP2 SWAP1 PUSH0 MSTORE PUSH1 0x20 PUSH0 KECCAK256 SWAP1 JUMPDEST DUP2 SLOAD DUP2 MSTORE SWAP1 PUSH1 0x1 ADD SWAP1 PUSH1 0x20 ADD DUP1 DUP4 GT PUSH2 0x901 JUMPI DUP3 SWAP1 SUB PUSH1 0x1F AND DUP3 ADD SWAP2 JUMPDEST POP POP POP POP POP DUP2 JUMP JUMPDEST PUSH0 DUP1 PUSH0 PUSH1 0x1 SWAP1 POP JUMPDEST PUSH1 0x4 SLOAD DUP2 GT PUSH2 0x9FE JUMPI PUSH0 PUSH1 0x1 SWAP1 POP PUSH0 PUSH1 0x8 PUSH0 PUSH1 0x7 PUSH0 DUP7 DUP2 MSTORE PUSH1 0x20 ADD SWAP1 DUP2 MSTORE PUSH1 0x20 ADD PUSH0 KECCAK256 PUSH1 0x1 ADD SLOAD DUP2 MSTORE PUSH1 0x20 ADD SWAP1 DUP2 MSTORE PUSH1 0x20 ADD PUSH0 KECCAK256 SLOAD GT ISZERO PUSH2 0x99D JUMPI PUSH1 0x8 PUSH0 PUSH1 0x7 PUSH0 DUP6 DUP2 MSTORE PUSH1 0x20 ADD SWAP1 DUP2 MSTORE PUSH1 0x20 ADD PUSH0 KECCAK256 PUSH1 0x1 ADD SLOAD DUP2 MSTORE PUSH1 0x20 ADD SWAP1 DUP2 MSTORE PUSH1 0x20 ADD PUSH0 KECCAK256 SLOAD DUP2 PUSH2 0x99A SWAP2 SWAP1 PUSH2 0x1069 JUMP JUMPDEST SWAP1 POP JUMPDEST DUP1 PUSH1 0x8 PUSH0 PUSH1 0x7 PUSH0 DUP7 DUP2 MSTORE PUSH1 0x20 ADD SWAP1 DUP2 MSTORE PUSH1 0x20 ADD PUSH0 KECCAK256 PUSH1 0x1 ADD SLOAD DUP2 MSTORE PUSH1 0x20 ADD SWAP1 DUP2 MSTORE PUSH1 0x20 ADD PUSH0 KECCAK256 DUP2 SWAP1 SSTORE POP DUP4 DUP2 GT ISZERO PUSH2 0x9EA JUMPI DUP1 SWAP4 POP PUSH1 0x7 PUSH0 DUP4 DUP2 MSTORE PUSH1 0x20 ADD SWAP1 DUP2 MSTORE PUSH1 0x20 ADD PUSH0 KECCAK256 PUSH1 0x1 ADD SLOAD SWAP3 POP JUMPDEST POP DUP1 DUP1 PUSH2 0x9F6 SWAP1 PUSH2 0xFC5 JUMP JUMPDEST SWAP2 POP POP PUSH2 0x92E JUMP JUMPDEST POP PUSH0 DUP1 DUP3 DUP2 MSTORE PUSH1 0x20 ADD SWAP1 DUP2 MSTORE PUSH1 0x20 ADD PUSH0 KECCAK256 PUSH1 0x6 SWAP1 DUP2 PUSH2 0xA1D SWAP2 SWAP1 PUSH2 0x13BD JUMP JUMPDEST POP PUSH0 PUSH1 0x9 PUSH0 PUSH2 0x100 EXP DUP2 SLOAD DUP2 PUSH1 0xFF MUL NOT AND SWAP1 DUP4 ISZERO ISZERO MUL OR SWAP1 SSTORE POP POP POP JUMP JUMPDEST PUSH1 0x40 MLOAD DUP1 PUSH1 0x40 ADD PUSH1 0x40 MSTORE DUP1 PUSH0 PUSH20 0xFFFFFFFFFFFFFFFFFFFFFFFFFFFFFFFFFFFFFFFF AND DUP2 MSTORE PUSH1 0x20 ADD PUSH0 DUP2 MSTORE POP SWAP1 JUMP JUMPDEST PUSH1 0x40 MLOAD DUP1 PUSH1 0x40 ADD PUSH1 0x40 MSTORE DUP1 PUSH1 0x60 DUP2 MSTORE PUSH1 0x20 ADD PUSH0 ISZERO ISZERO DUP2 MSTORE POP SWAP1 JUMP JUMPDEST PUSH0 PUSH1 0x40 MLOAD SWAP1 POP SWAP1 JUMP JUMPDEST PUSH0 DUP1 REVERT JUMPDEST PUSH0 DUP1 REVERT JUMPDEST PUSH0 DUP2 SWAP1 POP SWAP2 SWAP1 POP JUMP JUMPDEST PUSH2 0xAA7 DUP2 PUSH2 0xA95 JUMP JUMPDEST DUP2 EQ PUSH2 0xAB1 JUMPI PUSH0 DUP1 REVERT JUMPDEST POP JUMP JUMPDEST PUSH0 DUP2 CALLDATALOAD SWAP1 POP PUSH2 0xAC2 DUP2 PUSH2 0xA9E JUMP JUMPDEST SWAP3 SWAP2 POP POP JUMP JUMPDEST PUSH0 PUSH1 0x20 DUP3 DUP5 SUB SLT ISZERO PUSH2 0xADD JUMPI PUSH2 0xADC PUSH2 0xA8D JUMP JUMPDEST JUMPDEST PUSH0 PUSH2 0xAEA DUP5 DUP3 DUP6 ADD PUSH2 0xAB4 JUMP JUMPDEST SWAP2 POP POP SWAP3 SWAP2 POP POP JUMP JUMPDEST PUSH0 DUP2 ISZERO ISZERO SWAP1 POP SWAP2 SWAP1 POP JUMP JUMPDEST PUSH2 0xB07 DUP2 PUSH2 0xAF3 JUMP JUMPDEST DUP3 MSTORE POP POP JUMP JUMPDEST PUSH0 PUSH1 0x20 DUP3 ADD SWAP1 POP PUSH2 0xB20 PUSH0 DUP4 ADD DUP5 PUSH2 0xAFE JUMP JUMPDEST SWAP3 SWAP2 POP POP JUMP JUMPDEST PUSH0 PUSH20 0xFFFFFFFFFFFFFFFFFFFFFFFFFFFFFFFFFFFFFFFF DUP3 AND SWAP1 POP SWAP2 SWAP1 POP JUMP JUMPDEST PUSH0 PUSH2 0xB4F DUP3 PUSH2 0xB26 JUMP JUMPDEST SWAP1 POP SWAP2 SWAP1 POP JUMP JUMPDEST PUSH2 0xB5F DUP2 PUSH2 0xB45 JUMP JUMPDEST DUP2 EQ PUSH2 0xB69 JUMPI PUSH0 DUP1 REVERT JUMPDEST POP JUMP JUMPDEST PUSH0 DUP2 CALLDATALOAD SWAP1 POP PUSH2 0xB7A DUP2 PUSH2 0xB56 JUMP JUMPDEST SWAP3 SWAP2 POP POP JUMP JUMPDEST PUSH0 PUSH1 0x20 DUP3 DUP5 SUB SLT ISZERO PUSH2 0xB95 JUMPI PUSH2 0xB94 PUSH2 0xA8D JUMP JUMPDEST JUMPDEST PUSH0 PUSH2 0xBA2 DUP5 DUP3 DUP6 ADD PUSH2 0xB6C JUMP JUMPDEST SWAP2 POP POP SWAP3 SWAP2 POP POP JUMP JUMPDEST PUSH0 DUP2 MLOAD SWAP1 POP SWAP2 SWAP1 POP JUMP JUMPDEST PUSH0 DUP3 DUP3 MSTORE PUSH1 0x20 DUP3 ADD SWAP1 POP SWAP3 SWAP2 POP POP JUMP JUMPDEST DUP3 DUP2 DUP4 MCOPY PUSH0 DUP4 DUP4 ADD MSTORE POP POP POP JUMP JUMPDEST PUSH0 PUSH1 0x1F NOT PUSH1 0x1F DUP4 ADD AND SWAP1 POP SWAP2 SWAP1 POP JUMP JUMPDEST PUSH0 PUSH2 0xBED DUP3 PUSH2 0xBAB JUMP JUMPDEST PUSH2 0xBF7 DUP2 DUP6 PUSH2 0xBB5 JUMP JUMPDEST SWAP4 POP PUSH2 0xC07 DUP2 DUP6 PUSH1 0x20 DUP7 ADD PUSH2 0xBC5 JUMP JUMPDEST PUSH2 0xC10 DUP2 PUSH2 0xBD3 JUMP JUMPDEST DUP5 ADD SWAP2 POP POP SWAP3 SWAP2 POP POP JUMP JUMPDEST PUSH0 PUSH1 0x40 DUP3 ADD SWAP1 POP DUP2 DUP2 SUB PUSH0 DUP4 ADD MSTORE PUSH2 0xC33 DUP2 DUP6 PUSH2 0xBE3 JUMP JUMPDEST SWAP1 POP PUSH2 0xC42 PUSH1 0x20 DUP4 ADD DUP5 PUSH2 0xAFE JUMP JUMPDEST SWAP4 SWAP3 POP POP POP JUMP JUMPDEST PUSH0 DUP1 REVERT JUMPDEST PUSH0 DUP1 REVERT JUMPDEST PUSH32 0x4E487B7100000000000000000000000000000000000000000000000000000000 PUSH0 MSTORE PUSH1 0x41 PUSH1 0x4 MSTORE PUSH1 0x24 PUSH0 REVERT JUMPDEST PUSH2 0xC87 DUP3 PUSH2 0xBD3 JUMP JUMPDEST DUP2 ADD DUP2 DUP2 LT PUSH8 0xFFFFFFFFFFFFFFFF DUP3 GT OR ISZERO PUSH2 0xCA6 JUMPI PUSH2 0xCA5 PUSH2 0xC51 JUMP JUMPDEST JUMPDEST DUP1 PUSH1 0x40 MSTORE POP POP POP JUMP JUMPDEST PUSH0 PUSH2 0xCB8 PUSH2 0xA84 JUMP JUMPDEST SWAP1 POP PUSH2 0xCC4 DUP3 DUP3 PUSH2 0xC7E JUMP JUMPDEST SWAP2 SWAP1 POP JUMP JUMPDEST PUSH0 PUSH8 0xFFFFFFFFFFFFFFFF DUP3 GT ISZERO PUSH2 0xCE3 JUMPI PUSH2 0xCE2 PUSH2 0xC51 JUMP JUMPDEST JUMPDEST PUSH2 0xCEC DUP3 PUSH2 0xBD3 JUMP JUMPDEST SWAP1 POP PUSH1 0x20 DUP2 ADD SWAP1 POP SWAP2 SWAP1 POP JUMP JUMPDEST DUP3 DUP2 DUP4 CALLDATACOPY PUSH0 DUP4 DUP4 ADD MSTORE POP POP POP JUMP JUMPDEST PUSH0 PUSH2 0xD19 PUSH2 0xD14 DUP5 PUSH2 0xCC9 JUMP JUMPDEST PUSH2 0xCAF JUMP JUMPDEST SWAP1 POP DUP3 DUP2 MSTORE PUSH1 0x20 DUP2 ADD DUP5 DUP5 DUP5 ADD GT ISZERO PUSH2 0xD35 JUMPI PUSH2 0xD34 PUSH2 0xC4D JUMP JUMPDEST JUMPDEST PUSH2 0xD40 DUP5 DUP3 DUP6 PUSH2 0xCF9 JUMP JUMPDEST POP SWAP4 SWAP3 POP POP POP JUMP JUMPDEST PUSH0 DUP3 PUSH1 0x1F DUP4 ADD SLT PUSH2 0xD5C JUMPI PUSH2 0xD5B PUSH2 0xC49 JUMP JUMPDEST JUMPDEST DUP2 CALLDATALOAD PUSH2 0xD6C DUP5 DUP3 PUSH1 0x20 DUP7 ADD PUSH2 0xD07 JUMP JUMPDEST SWAP2 POP POP SWAP3 SWAP2 POP POP JUMP JUMPDEST PUSH0 DUP1 PUSH1 0x40 DUP4 DUP6 SUB SLT ISZERO PUSH2 0xD8B JUMPI PUSH2 0xD8A PUSH2 0xA8D JUMP JUMPDEST JUMPDEST PUSH0 PUSH2 0xD98 DUP6 DUP3 DUP7 ADD PUSH2 0xB6C JUMP JUMPDEST SWAP3 POP POP PUSH1 0x20 DUP4 ADD CALLDATALOAD PUSH8 0xFFFFFFFFFFFFFFFF DUP2 GT ISZERO PUSH2 0xDB9 JUMPI PUSH2 0xDB8 PUSH2 0xA91 JUMP JUMPDEST JUMPDEST PUSH2 0xDC5 DUP6 DUP3 DUP7 ADD PUSH2 0xD48 JUMP JUMPDEST SWAP2 POP POP SWAP3 POP SWAP3 SWAP1 POP JUMP JUMPDEST PUSH2 0xDD8 DUP2 PUSH2 0xA95 JUMP JUMPDEST DUP3 MSTORE POP POP JUMP JUMPDEST PUSH0 PUSH1 0x20 DUP3 ADD SWAP1 POP PUSH2 0xDF1 PUSH0 DUP4 ADD DUP5 PUSH2 0xDCF JUMP JUMPDEST SWAP3 SWAP2 POP POP JUMP JUMPDEST PUSH2 0xE00 DUP2 PUSH2 0xB45 JUMP JUMPDEST DUP3 MSTORE POP POP JUMP JUMPDEST PUSH0 PUSH1 0x20 DUP3 ADD SWAP1 POP PUSH2 0xE19 PUSH0 DUP4 ADD DUP5 PUSH2 0xDF7 JUMP JUMPDEST SWAP3 SWAP2 POP POP JUMP JUMPDEST PUSH0 PUSH1 0x40 DUP3 ADD SWAP1 POP PUSH2 0xE32 PUSH0 DUP4 ADD DUP6 PUSH2 0xDF7 JUMP JUMPDEST PUSH2 0xE3F PUSH1 0x20 DUP4 ADD DUP5 PUSH2 0xDCF JUMP JUMPDEST SWAP4 SWAP3 POP POP POP JUMP JUMPDEST PUSH0 PUSH1 0x20 DUP3 DUP5 SUB SLT ISZERO PUSH2 0xE5B JUMPI PUSH2 0xE5A PUSH2 0xA8D JUMP JUMPDEST JUMPDEST PUSH0 DUP3 ADD CALLDATALOAD PUSH8 0xFFFFFFFFFFFFFFFF DUP2 GT ISZERO PUSH2 0xE78 JUMPI PUSH2 0xE77 PUSH2 0xA91 JUMP JUMPDEST JUMPDEST PUSH2 0xE84 DUP5 DUP3 DUP6 ADD PUSH2 0xD48 JUMP JUMPDEST SWAP2 POP POP SWAP3 SWAP2 POP POP JUMP JUMPDEST PUSH0 PUSH1 0x20 DUP3 ADD SWAP1 POP DUP2 DUP2 SUB PUSH0 DUP4 ADD MSTORE PUSH2 0xEA5 DUP2 DUP5 PUSH2 0xBE3 JUMP JUMPDEST SWAP1 POP SWAP3 SWAP2 POP POP JUMP JUMPDEST PUSH32 0x43616E20766F7465206F6E6C79207768696C6520766F74696E67206973206F70 PUSH0 DUP3 ADD MSTORE PUSH32 0x656E2E0000000000000000000000000000000000000000000000000000000000 PUSH1 0x20 DUP3 ADD MSTORE POP JUMP JUMPDEST PUSH0 PUSH2 0xF07 PUSH1 0x23 DUP4 PUSH2 0xBB5 JUMP JUMPDEST SWAP2 POP PUSH2 0xF12 DUP3 PUSH2 0xEAD JUMP JUMPDEST PUSH1 0x40 DUP3 ADD SWAP1 POP SWAP2 SWAP1 POP JUMP JUMPDEST PUSH0 PUSH1 0x20 DUP3 ADD SWAP1 POP DUP2 DUP2 SUB PUSH0 DUP4 ADD MSTORE PUSH2 0xF34 DUP2 PUSH2 0xEFB JUMP JUMPDEST SWAP1 POP SWAP2 SWAP1 POP JUMP JUMPDEST PUSH32 0x4E487B7100000000000000000000000000000000000000000000000000000000 PUSH0 MSTORE PUSH1 0x22 PUSH1 0x4 MSTORE PUSH1 0x24 PUSH0 REVERT JUMPDEST PUSH0 PUSH1 0x2 DUP3 DIV SWAP1 POP PUSH1 0x1 DUP3 AND DUP1 PUSH2 0xF7F JUMPI PUSH1 0x7F DUP3 AND SWAP2 POP JUMPDEST PUSH1 0x20 DUP3 LT DUP2 SUB PUSH2 0xF92 JUMPI PUSH2 0xF91 PUSH2 0xF3B JUMP JUMPDEST JUMPDEST POP SWAP2 SWAP1 POP JUMP JUMPDEST PUSH32 0x4E487B7100000000000000000000000000000000000000000000000000000000 PUSH0 MSTORE PUSH1 0x11 PUSH1 0x4 MSTORE PUSH1 0x24 PUSH0 REVERT JUMPDEST PUSH0 PUSH2 0xFCF DUP3 PUSH2 0xA95 JUMP JUMPDEST SWAP2 POP PUSH32 0xFFFFFFFFFFFFFFFFFFFFFFFFFFFFFFFFFFFFFFFFFFFFFFFFFFFFFFFFFFFFFFFF DUP3 SUB PUSH2 0x1001 JUMPI PUSH2 0x1000 PUSH2 0xF98 JUMP JUMPDEST JUMPDEST PUSH1 0x1 DUP3 ADD SWAP1 POP SWAP2 SWAP1 POP JUMP JUMPDEST PUSH32 0x4E487B7100000000000000000000000000000000000000000000000000000000 PUSH0 MSTORE PUSH1 0x12 PUSH1 0x4 MSTORE PUSH1 0x24 PUSH0 REVERT JUMPDEST PUSH0 PUSH2 0x1043 DUP3 PUSH2 0xA95 JUMP JUMPDEST SWAP2 POP PUSH2 0x104E DUP4 PUSH2 0xA95 JUMP JUMPDEST SWAP3 POP DUP3 PUSH2 0x105E JUMPI PUSH2 0x105D PUSH2 0x100C JUMP JUMPDEST JUMPDEST DUP3 DUP3 DIV SWAP1 POP SWAP3 SWAP2 POP POP JUMP JUMPDEST PUSH0 PUSH2 0x1073 DUP3 PUSH2 0xA95 JUMP JUMPDEST SWAP2 POP PUSH2 0x107E DUP4 PUSH2 0xA95 JUMP JUMPDEST SWAP3 POP DUP3 DUP3 ADD SWAP1 POP DUP1 DUP3 GT ISZERO PUSH2 0x1096 JUMPI PUSH2 0x1095 PUSH2 0xF98 JUMP JUMPDEST JUMPDEST SWAP3 SWAP2 POP POP JUMP JUMPDEST PUSH32 0x43616E206F6E6C7920626520657865637574656420627920746865206D616E61 PUSH0 DUP3 ADD MSTORE PUSH32 0x6765720000000000000000000000000000000000000000000000000000000000 PUSH1 0x20 DUP3 ADD MSTORE POP JUMP JUMPDEST PUSH0 PUSH2 0x10F6 PUSH1 0x23 DUP4 PUSH2 0xBB5 JUMP JUMPDEST SWAP2 POP PUSH2 0x1101 DUP3 PUSH2 0x109C JUMP JUMPDEST PUSH1 0x40 DUP3 ADD SWAP1 POP SWAP2 SWAP1 POP JUMP JUMPDEST PUSH0 PUSH1 0x20 DUP3 ADD SWAP1 POP DUP2 DUP2 SUB PUSH0 DUP4 ADD MSTORE PUSH2 0x1123 DUP2 PUSH2 0x10EA JUMP JUMPDEST SWAP1 POP SWAP2 SWAP1 POP JUMP JUMPDEST PUSH0 DUP2 SWAP1 POP DUP2 PUSH0 MSTORE PUSH1 0x20 PUSH0 KECCAK256 SWAP1 POP SWAP2 SWAP1 POP JUMP JUMPDEST PUSH0 PUSH1 0x20 PUSH1 0x1F DUP4 ADD DIV SWAP1 POP SWAP2 SWAP1 POP JUMP JUMPDEST PUSH0 DUP3 DUP3 SHL SWAP1 POP SWAP3 SWAP2 POP POP JUMP JUMPDEST PUSH0 PUSH1 0x8 DUP4 MUL PUSH2 0x1186 PUSH32 0xFFFFFFFFFFFFFFFFFFFFFFFFFFFFFFFFFFFFFFFFFFFFFFFFFFFFFFFFFFFFFFFF DUP3 PUSH2 0x114B JUMP JUMPDEST PUSH2 0x1190 DUP7 DUP4 PUSH2 0x114B JUMP JUMPDEST SWAP6 POP DUP1 NOT DUP5 AND SWAP4 POP DUP1 DUP7 AND DUP5 OR SWAP3 POP POP POP SWAP4 SWAP3 POP POP POP JUMP JUMPDEST PUSH0 DUP2 SWAP1 POP SWAP2 SWAP1 POP JUMP JUMPDEST PUSH0 PUSH2 0x11CB PUSH2 0x11C6 PUSH2 0x11C1 DUP5 PUSH2 0xA95 JUMP JUMPDEST PUSH2 0x11A8 JUMP JUMPDEST PUSH2 0xA95 JUMP JUMPDEST SWAP1 POP SWAP2 SWAP1 POP JUMP JUMPDEST PUSH0 DUP2 SWAP1 POP SWAP2 SWAP1 POP JUMP JUMPDEST PUSH2 0x11E4 DUP4 PUSH2 0x11B1 JUMP JUMPDEST PUSH2 0x11F8 PUSH2 0x11F0 DUP3 PUSH2 0x11D2 JUMP JUMPDEST DUP5 DUP5 SLOAD PUSH2 0x1157 JUMP JUMPDEST DUP3 SSTORE POP POP POP POP JUMP JUMPDEST PUSH0 SWAP1 JUMP JUMPDEST PUSH2 0x120C PUSH2 0x1200 JUMP JUMPDEST PUSH2 0x1217 DUP2 DUP5 DUP5 PUSH2 0x11DB JUMP JUMPDEST POP POP POP JUMP JUMPDEST JUMPDEST DUP2 DUP2 LT ISZERO PUSH2 0x123A JUMPI PUSH2 0x122F PUSH0 DUP3 PUSH2 0x1204 JUMP JUMPDEST PUSH1 0x1 DUP2 ADD SWAP1 POP PUSH2 0x121D JUMP JUMPDEST POP POP JUMP JUMPDEST PUSH1 0x1F DUP3 GT ISZERO PUSH2 0x127F JUMPI PUSH2 0x1250 DUP2 PUSH2 0x112A JUMP JUMPDEST PUSH2 0x1259 DUP5 PUSH2 0x113C JUMP JUMPDEST DUP2 ADD PUSH1 0x20 DUP6 LT ISZERO PUSH2 0x1268 JUMPI DUP2 SWAP1 POP JUMPDEST PUSH2 0x127C PUSH2 0x1274 DUP6 PUSH2 0x113C JUMP JUMPDEST DUP4 ADD DUP3 PUSH2 0x121C JUMP JUMPDEST POP POP JUMPDEST POP POP POP JUMP JUMPDEST PUSH0 DUP3 DUP3 SHR SWAP1 POP SWAP3 SWAP2 POP POP JUMP JUMPDEST PUSH0 PUSH2 0x129F PUSH0 NOT DUP5 PUSH1 0x8 MUL PUSH2 0x1284 JUMP JUMPDEST NOT DUP1 DUP4 AND SWAP2 POP POP SWAP3 SWAP2 POP POP JUMP JUMPDEST PUSH0 PUSH2 0x12B7 DUP4 DUP4 PUSH2 0x1290 JUMP JUMPDEST SWAP2 POP DUP3 PUSH1 0x2 MUL DUP3 OR SWAP1 POP SWAP3 SWAP2 POP POP JUMP JUMPDEST PUSH2 0x12D0 DUP3 PUSH2 0xBAB JUMP JUMPDEST PUSH8 0xFFFFFFFFFFFFFFFF DUP2 GT ISZERO PUSH2 0x12E9 JUMPI PUSH2 0x12E8 PUSH2 0xC51 JUMP JUMPDEST JUMPDEST PUSH2 0x12F3 DUP3 SLOAD PUSH2 0xF68 JUMP JUMPDEST PUSH2 0x12FE DUP3 DUP3 DUP6 PUSH2 0x123E JUMP JUMPDEST PUSH0 PUSH1 0x20 SWAP1 POP PUSH1 0x1F DUP4 GT PUSH1 0x1 DUP2 EQ PUSH2 0x132F JUMPI PUSH0 DUP5 ISZERO PUSH2 0x131D JUMPI DUP3 DUP8 ADD MLOAD SWAP1 POP JUMPDEST PUSH2 0x1327 DUP6 DUP3 PUSH2 0x12AC JUMP JUMPDEST DUP7 SSTORE POP PUSH2 0x138E JUMP JUMPDEST PUSH1 0x1F NOT DUP5 AND PUSH2 0x133D DUP7 PUSH2 0x112A JUMP JUMPDEST PUSH0 JUMPDEST DUP3 DUP2 LT ISZERO PUSH2 0x1364 JUMPI DUP5 DUP10 ADD MLOAD DUP3 SSTORE PUSH1 0x1 DUP3 ADD SWAP2 POP PUSH1 0x20 DUP6 ADD SWAP5 POP PUSH1 0x20 DUP2 ADD SWAP1 POP PUSH2 0x133F JUMP JUMPDEST DUP7 DUP4 LT ISZERO PUSH2 0x1381 JUMPI DUP5 DUP10 ADD MLOAD PUSH2 0x137D PUSH1 0x1F DUP10 AND DUP3 PUSH2 0x1290 JUMP JUMPDEST DUP4 SSTORE POP JUMPDEST PUSH1 0x1 PUSH1 0x2 DUP9 MUL ADD DUP9 SSTORE POP POP POP JUMPDEST POP POP POP POP POP POP JUMP JUMPDEST PUSH0 DUP2 SLOAD SWAP1 POP PUSH2 0x13A4 DUP2 PUSH2 0xF68 JUMP JUMPDEST SWAP1 POP SWAP2 SWAP1 POP JUMP JUMPDEST PUSH0 DUP2 SWAP1 POP DUP2 PUSH0 MSTORE PUSH1 0x20 PUSH0 KECCAK256 SWAP1 POP SWAP2 SWAP1 POP JUMP JUMPDEST DUP2 DUP2 SUB PUSH2 0x13CB JUMPI POP POP PUSH2 0x14A0 JUMP JUMPDEST PUSH2 0x13D4 DUP3 PUSH2 0x1396 JUMP JUMPDEST PUSH8 0xFFFFFFFFFFFFFFFF DUP2 GT ISZERO PUSH2 0x13ED JUMPI PUSH2 0x13EC PUSH2 0xC51 JUMP JUMPDEST JUMPDEST PUSH2 0x13F7 DUP3 SLOAD PUSH2 0xF68 JUMP JUMPDEST PUSH2 0x1402 DUP3 DUP3 DUP6 PUSH2 0x123E JUMP JUMPDEST PUSH0 PUSH1 0x1F DUP4 GT PUSH1 0x1 DUP2 EQ PUSH2 0x142F JUMPI PUSH0 DUP5 ISZERO PUSH2 0x141D JUMPI DUP3 DUP8 ADD SLOAD SWAP1 POP JUMPDEST PUSH2 0x1427 DUP6 DUP3 PUSH2 0x12AC JUMP JUMPDEST DUP7 SSTORE POP PUSH2 0x1499 JUMP JUMPDEST PUSH1 0x1F NOT DUP5 AND PUSH2 0x143D DUP8 PUSH2 0x13AB JUMP JUMPDEST SWAP7 POP PUSH2 0x1448 DUP7 PUSH2 0x112A JUMP JUMPDEST PUSH0 JUMPDEST DUP3 DUP2 LT ISZERO PUSH2 0x146F JUMPI DUP5 DUP10 ADD SLOAD DUP3 SSTORE PUSH1 0x1 DUP3 ADD SWAP2 POP PUSH1 0x1 DUP6 ADD SWAP5 POP PUSH1 0x20 DUP2 ADD SWAP1 POP PUSH2 0x144A JUMP JUMPDEST DUP7 DUP4 LT ISZERO PUSH2 0x148C JUMPI DUP5 DUP10 ADD SLOAD PUSH2 0x1488 PUSH1 0x1F DUP10 AND DUP3 PUSH2 0x1290 JUMP JUMPDEST DUP4 SSTORE POP JUMPDEST PUSH1 0x1 PUSH1 0x2 DUP9 MUL ADD DUP9 SSTORE POP POP POP JUMPDEST POP POP POP POP POP POP JUMPDEST JUMP INVALID LOG2 PUSH5 0x6970667358 0x22 SLT KECCAK256 SWAP13 DUP3 PREVRANDAO 0xDC DUP10 0x2A 0xE5 0xDF SMOD INVALID DIV 0xBA CALLER 0xCB 0x24 CALLDATASIZE DUP14 0xA5 CALLDATACOPY 0xB2 SWAP7 PUSH5 0x7F62EA0AC3 PUSH10 0x508DF71E64736F6C6343 STOP ADDMOD BYTE STOP CALLER "
				},
				"gasEstimates": {
					"creation": {
						"codeDepositCost": "1067200",
						"executionCost": "infinite",
						"totalCost": "infinite"
					},
					"external": {
						"addFriend(address,string)": "infinite",
						"addRestaurant(string)": "infinite",
						"doVote(uint256)": "infinite",
						"friends(address)": "infinite",
						"manager()": "2597",
						"numFriends()": "2492",
						"numRestaurants()": "2513",
						"numVotes()": "2469",
						"restaurants(uint256)": "infinite",
						"voteOpen()": "2488",
						"votedRestaurant()": "infinite",
						"votes(uint256)": "infinite"
					},
					"internal": {
						"finalResult()": "infinite"
					}
				},
				"methodIdentifiers": {
					"addFriend(address,string)": "3b9f708d",
					"addRestaurant(string)": "6d77bd3e",
					"doVote(uint256)": "124258c6",
					"friends(address)": "1ddabf7a",
					"manager()": "481c6a75",
					"numFriends()": "47098f36",
					"numRestaurants()": "b798867f",
					"numVotes()": "a3bef4d7",
					"restaurants(uint256)": "ad5461d8",
					"voteOpen()": "788d3851",
					"votedRestaurant()": "c1c16efc",
					"votes(uint256)": "5df81330"
				}
			},
			"storageLayout": {
				"storage": [
					{
						"astId": 16,
						"contract": "lunchVenue.sol:LunchVenue",
						"label": "restaurants",
						"offset": 0,
						"slot": "0",
						"type": "t_mapping(t_uint256,t_string_storage)"
					},
					{
						"astId": 21,
						"contract": "lunchVenue.sol:LunchVenue",
						"label": "friends",
						"offset": 0,
						"slot": "1",
						"type": "t_mapping(t_address,t_struct(Friend)7_storage)"
					},
					{
						"astId": 24,
						"contract": "lunchVenue.sol:LunchVenue",
						"label": "numRestaurants",
						"offset": 0,
						"slot": "2",
						"type": "t_uint256"
					},
					{
						"astId": 27,
						"contract": "lunchVenue.sol:LunchVenue",
						"label": "numFriends",
						"offset": 0,
						"slot": "3",
						"type": "t_uint256"
					},
					{
						"astId": 30,
						"contract": "lunchVenue.sol:LunchVenue",
						"label": "numVotes",
						"offset": 0,
						"slot": "4",
						"type": "t_uint256"
					},
					{
						"astId": 32,
						"contract": "lunchVenue.sol:LunchVenue",
						"label": "manager",
						"offset": 0,
						"slot": "5",
						"type": "t_address"
					},
					{
						"astId": 35,
						"contract": "lunchVenue.sol:LunchVenue",
						"label": "votedRestaurant",
						"offset": 0,
						"slot": "6",
						"type": "t_string_storage"
					},
					{
						"astId": 40,
						"contract": "lunchVenue.sol:LunchVenue",
						"label": "votes",
						"offset": 0,
						"slot": "7",
						"type": "t_mapping(t_uint256,t_struct(Vote)12_storage)"
					},
					{
						"astId": 44,
						"contract": "lunchVenue.sol:LunchVenue",
						"label": "_results",
						"offset": 0,
						"slot": "8",
						"type": "t_mapping(t_uint256,t_uint256)"
					},
					{
						"astId": 47,
						"contract": "lunchVenue.sol:LunchVenue",
						"label": "voteOpen",
						"offset": 0,
						"slot": "9",
						"type": "t_bool"
					}
				],
				"types": {
					"t_address": {
						"encoding": "inplace",
						"label": "address",
						"numberOfBytes": "20"
					},
					"t_bool": {
						"encoding": "inplace",
						"label": "bool",
						"numberOfBytes": "1"
					},
					"t_mapping(t_address,t_struct(Friend)7_storage)": {
						"encoding": "mapping",
						"key": "t_address",
						"label": "mapping(address => struct LunchVenue.Friend)",
						"numberOfBytes": "32",
						"value": "t_struct(Friend)7_storage"
					},
					"t_mapping(t_uint256,t_string_storage)": {
						"encoding": "mapping",
						"key": "t_uint256",
						"label": "mapping(uint256 => string)",
						"numberOfBytes": "32",
						"value": "t_string_storage"
					},
					"t_mapping(t_uint256,t_struct(Vote)12_storage)": {
						"encoding": "mapping",
						"key": "t_uint256",
						"label": "mapping(uint256 => struct LunchVenue.Vote)",
						"numberOfBytes": "32",
						"value": "t_struct(Vote)12_storage"
					},
					"t_mapping(t_uint256,t_uint256)": {
						"encoding": "mapping",
						"key": "t_uint256",
						"label": "mapping(uint256 => uint256)",
						"numberOfBytes": "32",
						"value": "t_uint256"
					},
					"t_string_storage": {
						"encoding": "bytes",
						"label": "string",
						"numberOfBytes": "32"
					},
					"t_struct(Friend)7_storage": {
						"encoding": "inplace",
						"label": "struct LunchVenue.Friend",
						"members": [
							{
								"astId": 4,
								"contract": "lunchVenue.sol:LunchVenue",
								"label": "name",
								"offset": 0,
								"slot": "0",
								"type": "t_string_storage"
							},
							{
								"astId": 6,
								"contract": "lunchVenue.sol:LunchVenue",
								"label": "voted",
								"offset": 0,
								"slot": "1",
								"type": "t_bool"
							}
						],
						"numberOfBytes": "64"
					},
					"t_struct(Vote)12_storage": {
						"encoding": "inplace",
						"label": "struct LunchVenue.Vote",
						"members": [
							{
								"astId": 9,
								"contract": "lunchVenue.sol:LunchVenue",
								"label": "voterAddress",
								"offset": 0,
								"slot": "0",
								"type": "t_address"
							},
							{
								"astId": 11,
								"contract": "lunchVenue.sol:LunchVenue",
								"label": "restaurant",
								"offset": 0,
								"slot": "1",
								"type": "t_uint256"
							}
						],
						"numberOfBytes": "64"
					},
					"t_uint256": {
						"encoding": "inplace",
						"label": "uint256",
						"numberOfBytes": "32"
					}
				}
			},
			"userdoc": {
				"kind": "user",
				"methods": {
					"addFriend(address,string)": {
						"notice": "Add a new friend to voter list"
					},
					"addRestaurant(string)": {
						"notice": "Add a new restaurant"
					},
					"doVote(uint256)": {
						"notice": "Vote for a restaurant"
					}
				},
				"version": 1
			}
		}
	}
}